{
  "transactions": [
    {
      "hash": "0x78ed239a9e339490c18d2ef9ecd91945684ace7e55e44b2c95b20583bebc4a8e",
      "transactionType": "CALL",
      "contractName": null,
      "contractAddress": "0x5cf86bc6e33c3e2b48ca9ea13b7734fcfa6a702e",
      "function": "registerArtist(uint256,address,string,string)",
      "arguments": [
        "2",
        "0x08D811A358850892029251CcC8a565a32fd2dCB8",
        "Bob",
        "https://example.com/bob.png"
      ],
      "transaction": {
        "from": "0x08d811a358850892029251ccc8a565a32fd2dcb8",
        "to": "0x5cf86bc6e33c3e2b48ca9ea13b7734fcfa6a702e",
        "gas": "0x2a41a",
        "value": "0x0",
        "input": "0xcff6f344000000000000000000000000000000000000000000000000000000000000000200000000000000000000000008d811a358850892029251ccc8a565a32fd2dcb8000000000000000000000000000000000000000000000000000000000000008000000000000000000000000000000000000000000000000000000000000000c00000000000000000000000000000000000000000000000000000000000000003426f620000000000000000000000000000000000000000000000000000000000000000000000000000000000000000000000000000000000000000000000001b68747470733a2f2f6578616d706c652e636f6d2f626f622e706e670000000000",
        "nonce": "0x4c",
        "chainId": "0xaa36a7"
      },
      "additionalContracts": [],
      "isFixedGasLimit": false
    }
  ],
  "receipts": [
    {
      "status": "0x1",
      "cumulativeGasUsed": "0x15653e1",
      "logs": [
        {
          "address": "0x5cf86bc6e33c3e2b48ca9ea13b7734fcfa6a702e",
          "topics": [
            "0x4d5335f250ca609809ec654363d9e9df7071c2a1afedd5e2bf4f66dce7d7cada",
            "0x0000000000000000000000000000000000000000000000000000000000000002"
          ],
          "data": "0x00000000000000000000000008d811a358850892029251ccc8a565a32fd2dcb8000000000000000000000000000000000000000000000000000000000000006000000000000000000000000000000000000000000000000000000000000000a00000000000000000000000000000000000000000000000000000000000000003426f620000000000000000000000000000000000000000000000000000000000000000000000000000000000000000000000000000000000000000000000001b68747470733a2f2f6578616d706c652e636f6d2f626f622e706e670000000000",
          "blockHash": "0x0fc5879850bba087bd2a97f0df8e98511fdc456ff8ff25afc27da5d2ddf3c775",
          "blockNumber": "0x8dc62e",
          "blockTimestamp": "0x68d7e258",
          "transactionHash": "0x78ed239a9e339490c18d2ef9ecd91945684ace7e55e44b2c95b20583bebc4a8e",
          "transactionIndex": "0x16f",
          "logIndex": "0x10b",
          "removed": false
        }
      ],
      "logsBloom": "0x04000000000000000000000000000000000000000000000000000000000000000000000000000400000000000000000000000000000000080000000000000000000000000000000000000000000000000000000000000000000000000000000000000000000000000000000000000000000000000000000000010000000000000000000000800000000000000000000000000400000000000000000000000000000000000000000000000100000000000000000000000000020000000000000000000000000000000000000000000000000000000000000000000000000000000000000000000000000000000000000000000000008000000000000000000000",
      "type": "0x2",
      "transactionHash": "0x78ed239a9e339490c18d2ef9ecd91945684ace7e55e44b2c95b20583bebc4a8e",
      "transactionIndex": "0x16f",
      "blockHash": "0x0fc5879850bba087bd2a97f0df8e98511fdc456ff8ff25afc27da5d2ddf3c775",
      "blockNumber": "0x8dc62e",
      "gasUsed": "0x1ce4b",
      "effectiveGasPrice": "0xf424a",
      "from": "0x08d811a358850892029251ccc8a565a32fd2dcb8",
      "to": "0x5cf86bc6e33c3e2b48ca9ea13b7734fcfa6a702e",
      "contractAddress": null
    }
  ],
  "libraries": [],
  "pending": [],
  "returns": {},
  "timestamp": 1758978650,
  "chain": 11155111,
  "commit": "829118b"
}