{
  "transactions": [
    {
      "hash": "0x42b2a07f2cc36c3dbe486b4b21319d2671044ff09bf25f422730693d193ac239",
      "transactionType": "CALL",
      "contractName": null,
      "contractAddress": "0x5cf86bc6e33c3e2b48ca9ea13b7734fcfa6a702e",
      "function": "registerArtist(uint256,address,string,string)",
      "arguments": [
        "1",
        "0x08D811A358850892029251CcC8a565a32fd2dCB8",
        "Alice",
        "https://example.com/alice.png"
      ],
      "transaction": {
        "from": "0x08d811a358850892029251ccc8a565a32fd2dcb8",
        "to": "0x5cf86bc6e33c3e2b48ca9ea13b7734fcfa6a702e",
        "gas": "0x2a460",
        "value": "0x0",
        "input": "0xcff6f344000000000000000000000000000000000000000000000000000000000000000100000000000000000000000008d811a358850892029251ccc8a565a32fd2dcb8000000000000000000000000000000000000000000000000000000000000008000000000000000000000000000000000000000000000000000000000000000c00000000000000000000000000000000000000000000000000000000000000005416c696365000000000000000000000000000000000000000000000000000000000000000000000000000000000000000000000000000000000000000000001d68747470733a2f2f6578616d706c652e636f6d2f616c6963652e706e67000000",
        "nonce": "0x4b",
        "chainId": "0xaa36a7"
      },
      "additionalContracts": [],
      "isFixedGasLimit": false
    }
  ],
  "receipts": [
    {
      "status": "0x1",
      "cumulativeGasUsed": "0x82f276",
      "logs": [
        {
          "address": "0x5cf86bc6e33c3e2b48ca9ea13b7734fcfa6a702e",
          "topics": [
            "0x4d5335f250ca609809ec654363d9e9df7071c2a1afedd5e2bf4f66dce7d7cada",
            "0x0000000000000000000000000000000000000000000000000000000000000001"
          ],
          "data": "0x00000000000000000000000008d811a358850892029251ccc8a565a32fd2dcb8000000000000000000000000000000000000000000000000000000000000006000000000000000000000000000000000000000000000000000000000000000a00000000000000000000000000000000000000000000000000000000000000005416c696365000000000000000000000000000000000000000000000000000000000000000000000000000000000000000000000000000000000000000000001d68747470733a2f2f6578616d706c652e636f6d2f616c6963652e706e67000000",
          "blockHash": "0xa4b032410df8bb771f053e822957f10b9db9013c4319fdce97f346edc67bbf07",
          "blockNumber": "0x8dc629",
          "blockTimestamp": "0x68d7e210",
          "transactionHash": "0x42b2a07f2cc36c3dbe486b4b21319d2671044ff09bf25f422730693d193ac239",
          "transactionIndex": "0x8a",
          "logIndex": "0x76",
          "removed": false
        }
      ],
      "logsBloom": "0x00000000000000000000000000000000000000000000000000000000000000000000000000000400000000000000000000000000000000080000000000040000000000000000000000000000000000000000000000040000000000000000000000000000000000000000000000000000000000000000000000010000000000000000000000800000000000000000000000000400000000000000000000000000000000000000000000000000000000000000000000000000020000000000000000000000000000000000000000000000000000000000000000000000000040000000000000000000000000000000000000000000000000000000000000000000",
      "type": "0x2",
      "transactionHash": "0x42b2a07f2cc36c3dbe486b4b21319d2671044ff09bf25f422730693d193ac239",
      "transactionIndex": "0x8a",
      "blockHash": "0xa4b032410df8bb771f053e822957f10b9db9013c4319fdce97f346edc67bbf07",
      "blockNumber": "0x8dc629",
      "gasUsed": "0x1ce7b",
      "effectiveGasPrice": "0xf424b",
      "from": "0x08d811a358850892029251ccc8a565a32fd2dcb8",
      "to": "0x5cf86bc6e33c3e2b48ca9ea13b7734fcfa6a702e",
      "contractAddress": null
    }
  ],
  "libraries": [],
  "pending": [],
  "returns": {},
  "timestamp": 1758978577,
  "chain": 11155111,
  "commit": "829118b"
}