{
  "transactions": [
    {
      "hash": "0xd0c1eee91b17d240748e62930b2a1eeed69e3e3819aeaeb197fc75ff3d34fba0",
      "transactionType": "CALL",
      "contractName": null,
      "contractAddress": "0x5f48389f0833e7d7787f5244db7f097877b77eee",
      "function": "registerArtist(uint256,address,string,string)",
      "arguments": [
        "1",
        "0x08D811A358850892029251CcC8a565a32fd2dCB8",
        "Alice",
        "https://example.com/alice.png"
      ],
      "transaction": {
        "from": "0x08d811a358850892029251ccc8a565a32fd2dcb8",
        "to": "0x5f48389f0833e7d7787f5244db7f097877b77eee",
        "gas": "0x2a460",
        "value": "0x0",
        "input": "0xcff6f344000000000000000000000000000000000000000000000000000000000000000100000000000000000000000008d811a358850892029251ccc8a565a32fd2dcb8000000000000000000000000000000000000000000000000000000000000008000000000000000000000000000000000000000000000000000000000000000c00000000000000000000000000000000000000000000000000000000000000005416c696365000000000000000000000000000000000000000000000000000000000000000000000000000000000000000000000000000000000000000000001d68747470733a2f2f6578616d706c652e636f6d2f616c6963652e706e67000000",
        "nonce": "0x76",
        "chainId": "0xaa36a7"
      },
      "additionalContracts": [],
      "isFixedGasLimit": false
    }
  ],
  "receipts": [
    {
      "status": "0x1",
      "cumulativeGasUsed": "0xa9b81a",
      "logs": [
        {
          "address": "0x5f48389f0833e7d7787f5244db7f097877b77eee",
          "topics": [
            "0x4d5335f250ca609809ec654363d9e9df7071c2a1afedd5e2bf4f66dce7d7cada",
            "0x0000000000000000000000000000000000000000000000000000000000000001"
          ],
          "data": "0x00000000000000000000000008d811a358850892029251ccc8a565a32fd2dcb8000000000000000000000000000000000000000000000000000000000000006000000000000000000000000000000000000000000000000000000000000000a00000000000000000000000000000000000000000000000000000000000000005416c696365000000000000000000000000000000000000000000000000000000000000000000000000000000000000000000000000000000000000000000001d68747470733a2f2f6578616d706c652e636f6d2f616c6963652e706e67000000",
          "blockHash": "0xb899645e76449c53b820b72c4a52612d30fb672a8f6075936855329f1f3a8234",
          "blockNumber": "0x8dc85d",
          "blockTimestamp": "0x68d7fcbc",
          "transactionHash": "0xd0c1eee91b17d240748e62930b2a1eeed69e3e3819aeaeb197fc75ff3d34fba0",
          "transactionIndex": "0xa9",
          "logIndex": "0xa1",
          "removed": false
        }
      ],
      "logsBloom": "0x00000000000000000000000000000000000000100000000000000000000000000000000000000000000000000000000000000000000000080000000000040000000000000000000000000000000000000000000000040000000000000000000000000000000000000000000000000000000000000000000000000000000000000000000000800000000000000000000000000400000000000000000000000000000000000000000000000000000000000000000000000000000000000000000000000000000000000000000002000000000000000000000000000000000040000000000000000000000000000000000000000000000000000000000004000000",
      "type": "0x2",
      "transactionHash": "0xd0c1eee91b17d240748e62930b2a1eeed69e3e3819aeaeb197fc75ff3d34fba0",
      "transactionIndex": "0xa9",
      "blockHash": "0xb899645e76449c53b820b72c4a52612d30fb672a8f6075936855329f1f3a8234",
      "blockNumber": "0x8dc85d",
      "gasUsed": "0x1ce7b",
      "effectiveGasPrice": "0xf424b",
      "from": "0x08d811a358850892029251ccc8a565a32fd2dcb8",
      "to": "0x5f48389f0833e7d7787f5244db7f097877b77eee",
      "contractAddress": null
    }
  ],
  "libraries": [],
  "pending": [],
  "returns": {},
  "timestamp": 1758985405,
  "chain": 11155111,
  "commit": "cba4639"
}