{
  "transactions": [
    {
      "hash": "0xdc938deb9191b52865e7572259c7fae2240bf887c8c5c99b2895775ed724b761",
      "transactionType": "CALL",
      "contractName": null,
      "contractAddress": "0x07dd0d19157c16b56da296ca4738c9f66ef21177",
      "function": "registerArtist(uint256,address,string,string)",
      "arguments": [
        "1",
        "0x08D811A358850892029251CcC8a565a32fd2dCB8",
        "Alice",
        "https://example.com/alice.png"
      ],
      "transaction": {
        "from": "0x08d811a358850892029251ccc8a565a32fd2dcb8",
        "to": "0x07dd0d19157c16b56da296ca4738c9f66ef21177",
        "gas": "0x2a482",
        "value": "0x0",
        "input": "0xcff6f344000000000000000000000000000000000000000000000000000000000000000100000000000000000000000008d811a358850892029251ccc8a565a32fd2dcb8000000000000000000000000000000000000000000000000000000000000008000000000000000000000000000000000000000000000000000000000000000c00000000000000000000000000000000000000000000000000000000000000005416c696365000000000000000000000000000000000000000000000000000000000000000000000000000000000000000000000000000000000000000000001d68747470733a2f2f6578616d706c652e636f6d2f616c6963652e706e67000000",
        "nonce": "0x8b",
        "chainId": "0xaa36a7"
      },
      "additionalContracts": [],
      "isFixedGasLimit": false
    }
  ],
  "receipts": [
    {
      "status": "0x1",
      "cumulativeGasUsed": "0xaa83d0",
      "logs": [
        {
          "address": "0x07dd0d19157c16b56da296ca4738c9f66ef21177",
          "topics": [
            "0x4d5335f250ca609809ec654363d9e9df7071c2a1afedd5e2bf4f66dce7d7cada",
            "0x0000000000000000000000000000000000000000000000000000000000000001"
          ],
          "data": "0x00000000000000000000000008d811a358850892029251ccc8a565a32fd2dcb8000000000000000000000000000000000000000000000000000000000000006000000000000000000000000000000000000000000000000000000000000000a00000000000000000000000000000000000000000000000000000000000000005416c696365000000000000000000000000000000000000000000000000000000000000000000000000000000000000000000000000000000000000000000001d68747470733a2f2f6578616d706c652e636f6d2f616c6963652e706e67000000",
          "blockHash": "0x2cbde0ed7babc9942ed20dd92b4f0200ab13442495addffeec73cd64ec090633",
          "blockNumber": "0x8dc9c2",
          "blockTimestamp": "0x68d80da8",
          "transactionHash": "0xdc938deb9191b52865e7572259c7fae2240bf887c8c5c99b2895775ed724b761",
          "transactionIndex": "0xd5",
          "logIndex": "0x54",
          "removed": false
        }
      ],
      "logsBloom": "0x00000000000000000000000000000000000000000000000000000000000000000000000000000000000000000000000000000000000000080000000000040000000000000000000000000000000000000000000000040000000008000000000000000000000000000000000000000000000000000000000000000000000000000000000000800000000000000000000000000400000200000000000000000000000000000000000000000000000000000000000000000000000000000000000000000000000000000000000000000000000000000000000000000000000040000000000000000000000000000000000000000000000000000000000000000100",
      "type": "0x2",
      "transactionHash": "0xdc938deb9191b52865e7572259c7fae2240bf887c8c5c99b2895775ed724b761",
      "transactionIndex": "0xd5",
      "blockHash": "0x2cbde0ed7babc9942ed20dd92b4f0200ab13442495addffeec73cd64ec090633",
      "blockNumber": "0x8dc9c2",
      "gasUsed": "0x1ce92",
      "effectiveGasPrice": "0xf424e",
      "from": "0x08d811a358850892029251ccc8a565a32fd2dcb8",
      "to": "0x07dd0d19157c16b56da296ca4738c9f66ef21177",
      "contractAddress": null
    }
  ],
  "libraries": [],
  "pending": [],
  "returns": {},
  "timestamp": 1758989736,
  "chain": 11155111,
  "commit": "1073c01"
}