{
  "transactions": [
    {
      "hash": "0x7c50c62f4189af0450e75080613c25da5a96f6da408cfb3353d878cc65736803",
      "transactionType": "CALL",
      "contractName": null,
      "contractAddress": "0xc99c19d7dc7b765cfdd354d2c8d7c187431e142f",
      "function": "registerArtist(uint256,address,string,string)",
      "arguments": [
        "3",
        "0x08D811A358850892029251CcC8a565a32fd2dCB8",
        "Charlie",
        "https://example.com/charlie.png"
      ],
      "transaction": {
        "from": "0x08d811a358850892029251ccc8a565a32fd2dcb8",
        "to": "0xc99c19d7dc7b765cfdd354d2c8d7c187431e142f",
        "gas": "0x2a4a6",
        "value": "0x0",
        "input": "0xcff6f344000000000000000000000000000000000000000000000000000000000000000300000000000000000000000008d811a358850892029251ccc8a565a32fd2dcb8000000000000000000000000000000000000000000000000000000000000008000000000000000000000000000000000000000000000000000000000000000c00000000000000000000000000000000000000000000000000000000000000007436861726c696500000000000000000000000000000000000000000000000000000000000000000000000000000000000000000000000000000000000000001f68747470733a2f2f6578616d706c652e636f6d2f636861726c69652e706e6700",
        "nonce": "0x34",
        "chainId": "0xaa36a7"
      },
      "additionalContracts": [],
      "isFixedGasLimit": false
    }
  ],
  "receipts": [
    {
      "status": "0x1",
      "cumulativeGasUsed": "0x145b182",
      "logs": [
        {
          "address": "0xc99c19d7dc7b765cfdd354d2c8d7c187431e142f",
          "topics": [
            "0x4d5335f250ca609809ec654363d9e9df7071c2a1afedd5e2bf4f66dce7d7cada",
            "0x0000000000000000000000000000000000000000000000000000000000000003"
          ],
          "data": "0x00000000000000000000000008d811a358850892029251ccc8a565a32fd2dcb8000000000000000000000000000000000000000000000000000000000000006000000000000000000000000000000000000000000000000000000000000000a00000000000000000000000000000000000000000000000000000000000000007436861726c696500000000000000000000000000000000000000000000000000000000000000000000000000000000000000000000000000000000000000001f68747470733a2f2f6578616d706c652e636f6d2f636861726c69652e706e6700",
          "blockHash": "0xaf737dfe71bb000b1e92ec4050bcfbd719dc3bd5146519de5ffdd62cb594f230",
          "blockNumber": "0x8dc396",
          "blockTimestamp": "0x68d7c2b4",
          "transactionHash": "0x7c50c62f4189af0450e75080613c25da5a96f6da408cfb3353d878cc65736803",
          "transactionIndex": "0x160",
          "logIndex": "0x80",
          "removed": false
        }
      ],
      "logsBloom": "0x00000000008000000000000000000000002000000000000000000000000000000000000000000000000000000000000000000000020000080000000000000000000000000000000000000000000000000000000000000000000000000000000000000000000000000000000000000000000000000000000000000000000000000000000000800000000000000000000000000400000000000000000000000000000000000000000000000000000001000000000000800000000000000000400000000000000000000000000000000000000000000000000000000000000000000000000000000000000000000000000000000000000000000000000000000000",
      "type": "0x2",
      "transactionHash": "0x7c50c62f4189af0450e75080613c25da5a96f6da408cfb3353d878cc65736803",
      "transactionIndex": "0x160",
      "blockHash": "0xaf737dfe71bb000b1e92ec4050bcfbd719dc3bd5146519de5ffdd62cb594f230",
      "blockNumber": "0x8dc396",
      "gasUsed": "0x1ceab",
      "effectiveGasPrice": "0xf424b",
      "from": "0x08d811a358850892029251ccc8a565a32fd2dcb8",
      "to": "0xc99c19d7dc7b765cfdd354d2c8d7c187431e142f",
      "contractAddress": null
    }
  ],
  "libraries": [],
  "pending": [],
  "returns": {},
  "timestamp": 1758970549,
  "chain": 11155111,
  "commit": "0c29bf6"
}