{
  "transactions": [
    {
      "hash": "0x3fc8988bd8e4267dd8f1e559e0bac722f0badbc7c136dd22b97e5c2179985b66",
      "transactionType": "CALL",
      "contractName": null,
      "contractAddress": "0x6cd07a2951bae7321d6150e24b08c772eced0c2c",
      "function": "registerArtist(address,string,string)",
      "arguments": [
        "0xC94d68094FA65E991dFfa0A941306E8460876169",
        "Bob",
        "https://example.com/bob.png"
      ],
      "transaction": {
        "from": "0x08d811a358850892029251ccc8a565a32fd2dcb8",
        "to": "0x6cd07a2951bae7321d6150e24b08c772eced0c2c",
        "gas": "0x2a013",
        "value": "0x0",
        "input": "0x93bb5e6f000000000000000000000000c94d68094fa65e991dffa0a941306e8460876169000000000000000000000000000000000000000000000000000000000000006000000000000000000000000000000000000000000000000000000000000000a00000000000000000000000000000000000000000000000000000000000000003426f620000000000000000000000000000000000000000000000000000000000000000000000000000000000000000000000000000000000000000000000001b68747470733a2f2f6578616d706c652e636f6d2f626f622e706e670000000000",
        "nonce": "0x98",
        "chainId": "0xaa36a7"
      },
      "additionalContracts": [],
      "isFixedGasLimit": false
    }
  ],
  "receipts": [
    {
      "status": "0x1",
      "cumulativeGasUsed": "0x7f57ed",
      "logs": [
        {
          "address": "0x6cd07a2951bae7321d6150e24b08c772eced0c2c",
          "topics": [
            "0x3b8cc2a9ce5f30dcaf9dc4ecb003d17fad34e58387858af5ff33344d3a5dfc17",
            "0x000000000000000000000000c94d68094fa65e991dffa0a941306e8460876169"
          ],
          "data": "0x000000000000000000000000000000000000000000000000000000000000004000000000000000000000000000000000000000000000000000000000000000800000000000000000000000000000000000000000000000000000000000000003426f620000000000000000000000000000000000000000000000000000000000000000000000000000000000000000000000000000000000000000000000001b68747470733a2f2f6578616d706c652e636f6d2f626f622e706e670000000000",
          "blockHash": "0xd13f4fc9251630c0c48b5e4a0c676863c08cce33ae89f2c0bc1f539562c8acd1",
          "blockNumber": "0x8dce2d",
          "blockTimestamp": "0x68d84300",
          "transactionHash": "0x3fc8988bd8e4267dd8f1e559e0bac722f0badbc7c136dd22b97e5c2179985b66",
          "transactionIndex": "0x2a",
          "logIndex": "0x69",
          "removed": false
        }
      ],
      "logsBloom": "0x00000000000000000000000000000000000200000000000000000000000000000000800000000000000000000000000000000200000000000000000000000000000000000000000000000000000000000000080000000000000000000000000000000000000000000000000000000000000000000000000000000000000000000000000000000000000000000000000000000000000000000000000000000000000000000000000000000000000000000000000000000200000000000000004000000000000000000000000000000000000000000000000000000000000000000000000000000000000000000000110000000000000100000000000000000000",
      "type": "0x2",
      "transactionHash": "0x3fc8988bd8e4267dd8f1e559e0bac722f0badbc7c136dd22b97e5c2179985b66",
      "transactionIndex": "0x2a",
      "blockHash": "0xd13f4fc9251630c0c48b5e4a0c676863c08cce33ae89f2c0bc1f539562c8acd1",
      "blockNumber": "0x8dce2d",
      "gasUsed": "0x1cb8a",
      "effectiveGasPrice": "0x10059d",
      "from": "0x08d811a358850892029251ccc8a565a32fd2dcb8",
      "to": "0x6cd07a2951bae7321d6150e24b08c772eced0c2c",
      "contractAddress": null
    }
  ],
  "libraries": [],
  "pending": [],
  "returns": {},
  "timestamp": 1759003392,
  "chain": 11155111,
  "commit": "4d6069e"
}