{
  "transactions": [
    {
      "hash": "0x7de81f6542433a5aa7187113b933a9a5085876ca0abba209027ab8caf0871845",
      "transactionType": "CALL",
      "contractName": null,
      "contractAddress": "0x5f48389f0833e7d7787f5244db7f097877b77eee",
      "function": "registerArtist(uint256,address,string,string)",
      "arguments": [
        "2",
        "0x08D811A358850892029251CcC8a565a32fd2dCB8",
        "Bob",
        "https://example.com/bob.png"
      ],
      "transaction": {
        "from": "0x08d811a358850892029251ccc8a565a32fd2dcb8",
        "to": "0x5f48389f0833e7d7787f5244db7f097877b77eee",
        "gas": "0x2a41a",
        "value": "0x0",
        "input": "0xcff6f344000000000000000000000000000000000000000000000000000000000000000200000000000000000000000008d811a358850892029251ccc8a565a32fd2dcb8000000000000000000000000000000000000000000000000000000000000008000000000000000000000000000000000000000000000000000000000000000c00000000000000000000000000000000000000000000000000000000000000003426f620000000000000000000000000000000000000000000000000000000000000000000000000000000000000000000000000000000000000000000000001b68747470733a2f2f6578616d706c652e636f6d2f626f622e706e670000000000",
        "nonce": "0x78",
        "chainId": "0xaa36a7"
      },
      "additionalContracts": [],
      "isFixedGasLimit": false
    }
  ],
  "receipts": [
    {
      "status": "0x1",
      "cumulativeGasUsed": "0xa63e9a",
      "logs": [
        {
          "address": "0x5f48389f0833e7d7787f5244db7f097877b77eee",
          "topics": [
            "0x4d5335f250ca609809ec654363d9e9df7071c2a1afedd5e2bf4f66dce7d7cada",
            "0x0000000000000000000000000000000000000000000000000000000000000002"
          ],
          "data": "0x00000000000000000000000008d811a358850892029251ccc8a565a32fd2dcb8000000000000000000000000000000000000000000000000000000000000006000000000000000000000000000000000000000000000000000000000000000a00000000000000000000000000000000000000000000000000000000000000003426f620000000000000000000000000000000000000000000000000000000000000000000000000000000000000000000000000000000000000000000000001b68747470733a2f2f6578616d706c652e636f6d2f626f622e706e670000000000",
          "blockHash": "0xd113719d4f085d2d49c4f2eb93af2c89117359a79a9b3d5e70152b99591c6b92",
          "blockNumber": "0x8dc866",
          "blockTimestamp": "0x68d7fd28",
          "transactionHash": "0x7de81f6542433a5aa7187113b933a9a5085876ca0abba209027ab8caf0871845",
          "transactionIndex": "0xad",
          "logIndex": "0x7a",
          "removed": false
        }
      ],
      "logsBloom": "0x04000000000000000000000000000000000000100000000000000000000000000000000000000000000000000000000000000000000000080000000000000000000000000000000000000000000000000000000000000000000000000000000000000000000000000000000000000000000000000000000000000000000000000000000000800000000000000000000000000400000000000000000000000000000000000000000000000100000000000000000000000000000000000000000000000000000000000000000002000000000000000000000000000000000000000000000000000000000000000000000000000000008000000000000004000000",
      "type": "0x2",
      "transactionHash": "0x7de81f6542433a5aa7187113b933a9a5085876ca0abba209027ab8caf0871845",
      "transactionIndex": "0xad",
      "blockHash": "0xd113719d4f085d2d49c4f2eb93af2c89117359a79a9b3d5e70152b99591c6b92",
      "blockNumber": "0x8dc866",
      "gasUsed": "0x1ce4b",
      "effectiveGasPrice": "0xf424a",
      "from": "0x08d811a358850892029251ccc8a565a32fd2dcb8",
      "to": "0x5f48389f0833e7d7787f5244db7f097877b77eee",
      "contractAddress": null
    }
  ],
  "libraries": [],
  "pending": [],
  "returns": {},
  "timestamp": 1758985513,
  "chain": 11155111,
  "commit": "cba4639"
}