{
  "transactions": [
    {
      "hash": "0xa1f26fd9e164d7958437ec45a3556fa3565748512053a65baca3d61f0fa74a0e",
      "transactionType": "CALL",
      "contractName": null,
      "contractAddress": "0x0da2a8c64ea6ad574474d34ad35cedabe0ec7ffe",
      "function": "registerArtist(uint256,address,string,string)",
      "arguments": [
        "1",
        "0x08D811A358850892029251CcC8a565a32fd2dCB8",
        "Alice",
        "https://example.com/alice.png"
      ],
      "transaction": {
        "from": "0x08d811a358850892029251ccc8a565a32fd2dcb8",
        "to": "0x0da2a8c64ea6ad574474d34ad35cedabe0ec7ffe",
        "gas": "0x2a460",
        "value": "0x0",
        "input": "0xcff6f344000000000000000000000000000000000000000000000000000000000000000100000000000000000000000008d811a358850892029251ccc8a565a32fd2dcb8000000000000000000000000000000000000000000000000000000000000008000000000000000000000000000000000000000000000000000000000000000c00000000000000000000000000000000000000000000000000000000000000005416c696365000000000000000000000000000000000000000000000000000000000000000000000000000000000000000000000000000000000000000000001d68747470733a2f2f6578616d706c652e636f6d2f616c6963652e706e67000000",
        "nonce": "0x20",
        "chainId": "0xaa36a7"
      },
      "additionalContracts": [],
      "isFixedGasLimit": false
    }
  ],
  "receipts": [
    {
      "status": "0x1",
      "cumulativeGasUsed": "0x61aaa3",
      "logs": [
        {
          "address": "0x0da2a8c64ea6ad574474d34ad35cedabe0ec7ffe",
          "topics": [
            "0x4d5335f250ca609809ec654363d9e9df7071c2a1afedd5e2bf4f66dce7d7cada",
            "0x0000000000000000000000000000000000000000000000000000000000000001"
          ],
          "data": "0x00000000000000000000000008d811a358850892029251ccc8a565a32fd2dcb8000000000000000000000000000000000000000000000000000000000000006000000000000000000000000000000000000000000000000000000000000000a00000000000000000000000000000000000000000000000000000000000000005416c696365000000000000000000000000000000000000000000000000000000000000000000000000000000000000000000000000000000000000000000001d68747470733a2f2f6578616d706c652e636f6d2f616c6963652e706e67000000",
          "blockHash": "0x15df05b7c9e5d1ffcee911b2c20c09e0737265ceb23f95dd4f3654d81fbfcc15",
          "blockNumber": "0x8db596",
          "blockTimestamp": "0x68d71934",
          "transactionHash": "0xa1f26fd9e164d7958437ec45a3556fa3565748512053a65baca3d61f0fa74a0e",
          "transactionIndex": "0x39",
          "logIndex": "0x47",
          "removed": false
        }
      ],
      "logsBloom": "0x000000000000000000000000000000000000000000000000000000000000000000000000000000000000000000000000000000000000000800000000000400000000000000000000000000000000000000000000000c0000000000000000000000000000000000000000000000000000000000000000000000000000000000000000000000800000000000000000000000000400000000000000000000000000000000000000000000000000000000000000000000000000000000000000000000000002000000000000000000000000000000000000000000000000000040000000000000000000000000000000000000000000000000000000000020000000",
      "type": "0x2",
      "transactionHash": "0xa1f26fd9e164d7958437ec45a3556fa3565748512053a65baca3d61f0fa74a0e",
      "transactionIndex": "0x39",
      "blockHash": "0x15df05b7c9e5d1ffcee911b2c20c09e0737265ceb23f95dd4f3654d81fbfcc15",
      "blockNumber": "0x8db596",
      "gasUsed": "0x1ce7b",
      "effectiveGasPrice": "0xf4250",
      "from": "0x08d811a358850892029251ccc8a565a32fd2dcb8",
      "to": "0x0da2a8c64ea6ad574474d34ad35cedabe0ec7ffe",
      "contractAddress": null
    }
  ],
  "libraries": [],
  "pending": [],
  "returns": {},
  "timestamp": 1758927158,
  "chain": 11155111,
  "commit": "6283b42"
}