{
  "transactions": [
    {
      "hash": "0x0ad077a27b1aacdaf6ad6b16d7a770556ebfdb912fe46088ca5253d23b5c438f",
      "transactionType": "CALL",
      "contractName": null,
      "contractAddress": "0x66ff1c4395228f6da5785841776960c9d31c7284",
      "function": "registerArtist(uint256,address,string,string)",
      "arguments": [
        "2",
        "0x08D811A358850892029251CcC8a565a32fd2dCB8",
        "Bob",
        "https://example.com/bob.png"
      ],
      "transaction": {
        "from": "0x08d811a358850892029251ccc8a565a32fd2dcb8",
        "to": "0x66ff1c4395228f6da5785841776960c9d31c7284",
        "gas": "0x2a41a",
        "value": "0x0",
        "input": "0xcff6f344000000000000000000000000000000000000000000000000000000000000000200000000000000000000000008d811a358850892029251ccc8a565a32fd2dcb8000000000000000000000000000000000000000000000000000000000000008000000000000000000000000000000000000000000000000000000000000000c00000000000000000000000000000000000000000000000000000000000000003426f620000000000000000000000000000000000000000000000000000000000000000000000000000000000000000000000000000000000000000000000001b68747470733a2f2f6578616d706c652e636f6d2f626f622e706e670000000000",
        "nonce": "0x51",
        "chainId": "0xaa36a7"
      },
      "additionalContracts": [],
      "isFixedGasLimit": false
    }
  ],
  "receipts": [
    {
      "status": "0x1",
      "cumulativeGasUsed": "0x14e3456",
      "logs": [
        {
          "address": "0x66ff1c4395228f6da5785841776960c9d31c7284",
          "topics": [
            "0x4d5335f250ca609809ec654363d9e9df7071c2a1afedd5e2bf4f66dce7d7cada",
            "0x0000000000000000000000000000000000000000000000000000000000000002"
          ],
          "data": "0x00000000000000000000000008d811a358850892029251ccc8a565a32fd2dcb8000000000000000000000000000000000000000000000000000000000000006000000000000000000000000000000000000000000000000000000000000000a00000000000000000000000000000000000000000000000000000000000000003426f620000000000000000000000000000000000000000000000000000000000000000000000000000000000000000000000000000000000000000000000001b68747470733a2f2f6578616d706c652e636f6d2f626f622e706e670000000000",
          "blockHash": "0x6fcc82eb9f05c815f457ff1ddd1059a82c0a948c338a4f8350b41e29dca19abb",
          "blockNumber": "0x8dc676",
          "blockTimestamp": "0x68d7e5c4",
          "transactionHash": "0x0ad077a27b1aacdaf6ad6b16d7a770556ebfdb912fe46088ca5253d23b5c438f",
          "transactionIndex": "0x4a",
          "logIndex": "0x88",
          "removed": false
        }
      ],
      "logsBloom": "0x04000000000000000000000000000000000000000000000000000000000000000000000080000000000000000000000000000000000000080000000000000000000000000000000000000000000000000000000000000000000000000000000000000000000000000000400000000000000000000000000000000000000000000000000000800000000000000000000000000400000000000000000000000000000000000000000000000100000000000000000000000000000000000000000000000000000000000000000000000000000000000000080000000000000000000000000000000000000000000000000000000000008000000000000000000000",
      "type": "0x2",
      "transactionHash": "0x0ad077a27b1aacdaf6ad6b16d7a770556ebfdb912fe46088ca5253d23b5c438f",
      "transactionIndex": "0x4a",
      "blockHash": "0x6fcc82eb9f05c815f457ff1ddd1059a82c0a948c338a4f8350b41e29dca19abb",
      "blockNumber": "0x8dc676",
      "gasUsed": "0x1ce4b",
      "effectiveGasPrice": "0xf424d",
      "from": "0x08d811a358850892029251ccc8a565a32fd2dcb8",
      "to": "0x66ff1c4395228f6da5785841776960c9d31c7284",
      "contractAddress": null
    }
  ],
  "libraries": [],
  "pending": [],
  "returns": {},
  "timestamp": 1758979526,
  "chain": 11155111,
  "commit": "829118b"
}