{
  "transactions": [
    {
      "hash": "0x40dacdf6f7f0a3fd289361f1bb791c7f9ce235e4c54742b4c5dd6c60723c028f",
      "transactionType": "CALL",
      "contractName": null,
      "contractAddress": "0x99a6d8f5673df9d0642e28b16321dcdac0cd4296",
      "function": "registerArtist(uint256,address,string,string)",
      "arguments": [
        "1",
        "0x08D811A358850892029251CcC8a565a32fd2dCB8",
        "Alice",
        "https://example.com/alice.png"
      ],
      "transaction": {
        "from": "0x08d811a358850892029251ccc8a565a32fd2dcb8",
        "to": "0x99a6d8f5673df9d0642e28b16321dcdac0cd4296",
        "gas": "0x2a460",
        "value": "0x0",
        "input": "0xcff6f344000000000000000000000000000000000000000000000000000000000000000100000000000000000000000008d811a358850892029251ccc8a565a32fd2dcb8000000000000000000000000000000000000000000000000000000000000008000000000000000000000000000000000000000000000000000000000000000c00000000000000000000000000000000000000000000000000000000000000005416c696365000000000000000000000000000000000000000000000000000000000000000000000000000000000000000000000000000000000000000000001d68747470733a2f2f6578616d706c652e636f6d2f616c6963652e706e67000000",
        "nonce": "0x58",
        "chainId": "0xaa36a7"
      },
      "additionalContracts": [],
      "isFixedGasLimit": false
    }
  ],
  "receipts": [
    {
      "status": "0x1",
      "cumulativeGasUsed": "0xa4214e",
      "logs": [
        {
          "address": "0x99a6d8f5673df9d0642e28b16321dcdac0cd4296",
          "topics": [
            "0x4d5335f250ca609809ec654363d9e9df7071c2a1afedd5e2bf4f66dce7d7cada",
            "0x0000000000000000000000000000000000000000000000000000000000000001"
          ],
          "data": "0x00000000000000000000000008d811a358850892029251ccc8a565a32fd2dcb8000000000000000000000000000000000000000000000000000000000000006000000000000000000000000000000000000000000000000000000000000000a00000000000000000000000000000000000000000000000000000000000000005416c696365000000000000000000000000000000000000000000000000000000000000000000000000000000000000000000000000000000000000000000001d68747470733a2f2f6578616d706c652e636f6d2f616c6963652e706e67000000",
          "blockHash": "0xc1b6b768d708f4d201e4d455f88c0f1a7fcbe1afed2d4ab7122ca56773bf6720",
          "blockNumber": "0x8dc71f",
          "blockTimestamp": "0x68d7edbc",
          "transactionHash": "0x40dacdf6f7f0a3fd289361f1bb791c7f9ce235e4c54742b4c5dd6c60723c028f",
          "transactionIndex": "0xd0",
          "logIndex": "0x4b",
          "removed": false
        }
      ],
      "logsBloom": "0x00000000000000000000000000000000000000000000000000000000000000000000000000000000000000000000000000000000010000080000000000040000000000000000000000000000000000000000000000040000000000000000000000000000000000000000000000000000000000000000020000000000000000000000000000800000000000000000000000000400000000040000000000000000000000000000000000000000000000000000000000000000000000000000000000000000000000000000000000000000000000000000000000000000000040000000000000000000000000000000000000000000000000000000000000000000",
      "type": "0x2",
      "transactionHash": "0x40dacdf6f7f0a3fd289361f1bb791c7f9ce235e4c54742b4c5dd6c60723c028f",
      "transactionIndex": "0xd0",
      "blockHash": "0xc1b6b768d708f4d201e4d455f88c0f1a7fcbe1afed2d4ab7122ca56773bf6720",
      "blockNumber": "0x8dc71f",
      "gasUsed": "0x1ce7b",
      "effectiveGasPrice": "0xf4251",
      "from": "0x08d811a358850892029251ccc8a565a32fd2dcb8",
      "to": "0x99a6d8f5673df9d0642e28b16321dcdac0cd4296",
      "contractAddress": null
    }
  ],
  "libraries": [],
  "pending": [],
  "returns": {},
  "timestamp": 1758981564,
  "chain": 11155111,
  "commit": "7561c8e"
}