{
  "transactions": [
    {
      "hash": "0x816c9a66e5d4db49d487fe61095af39c7661b7ee48be42ace500318dbc13a3f7",
      "transactionType": "CALL",
      "contractName": null,
      "contractAddress": "0x783140003cff6c06b230937707eb5222186f0118",
      "function": "registerArtist(uint256,address,string,string)",
      "arguments": [
        "1",
        "0x08D811A358850892029251CcC8a565a32fd2dCB8",
        "Alice",
        "https://example.com/alice.png"
      ],
      "transaction": {
        "from": "0x08d811a358850892029251ccc8a565a32fd2dcb8",
        "to": "0x783140003cff6c06b230937707eb5222186f0118",
        "gas": "0x2a460",
        "value": "0x0",
        "input": "0xcff6f344000000000000000000000000000000000000000000000000000000000000000100000000000000000000000008d811a358850892029251ccc8a565a32fd2dcb8000000000000000000000000000000000000000000000000000000000000008000000000000000000000000000000000000000000000000000000000000000c00000000000000000000000000000000000000000000000000000000000000005416c696365000000000000000000000000000000000000000000000000000000000000000000000000000000000000000000000000000000000000000000001d68747470733a2f2f6578616d706c652e636f6d2f616c6963652e706e67000000",
        "nonce": "0x44",
        "chainId": "0xaa36a7"
      },
      "additionalContracts": [],
      "isFixedGasLimit": false
    }
  ],
  "receipts": [
    {
      "status": "0x1",
      "cumulativeGasUsed": "0x1057ae0",
      "logs": [
        {
          "address": "0x783140003cff6c06b230937707eb5222186f0118",
          "topics": [
            "0x4d5335f250ca609809ec654363d9e9df7071c2a1afedd5e2bf4f66dce7d7cada",
            "0x0000000000000000000000000000000000000000000000000000000000000001"
          ],
          "data": "0x00000000000000000000000008d811a358850892029251ccc8a565a32fd2dcb8000000000000000000000000000000000000000000000000000000000000006000000000000000000000000000000000000000000000000000000000000000a00000000000000000000000000000000000000000000000000000000000000005416c696365000000000000000000000000000000000000000000000000000000000000000000000000000000000000000000000000000000000000000000001d68747470733a2f2f6578616d706c652e636f6d2f616c6963652e706e67000000",
          "blockHash": "0xb2eece726063db866f73b57b091b7d6e90494f628eb94fbc81d7c5cff6fafbee",
          "blockNumber": "0x8dc545",
          "blockTimestamp": "0x68d7d718",
          "transactionHash": "0x816c9a66e5d4db49d487fe61095af39c7661b7ee48be42ace500318dbc13a3f7",
          "transactionIndex": "0x70",
          "logIndex": "0x9d",
          "removed": false
        }
      ],
      "logsBloom": "0x00000000000000000000000000000000000000000000000000000000000000000000000000000000000000010000000000000000000000080000000000040000000000000100000000000000000000000000000000040000000000000000000000000000000000000000000000000000000000000000000000000000000000000000000000800000000000000000000000000400000000000000000000000000000000000000000000000000000000000000000000000000000000000000000000000000000001000000000000000000000000000000000000000000000040000000000000000000000000000000000000000000000000000000000000000000",
      "type": "0x2",
      "transactionHash": "0x816c9a66e5d4db49d487fe61095af39c7661b7ee48be42ace500318dbc13a3f7",
      "transactionIndex": "0x70",
      "blockHash": "0xb2eece726063db866f73b57b091b7d6e90494f628eb94fbc81d7c5cff6fafbee",
      "blockNumber": "0x8dc545",
      "gasUsed": "0x1ce7b",
      "effectiveGasPrice": "0xf4250",
      "from": "0x08d811a358850892029251ccc8a565a32fd2dcb8",
      "to": "0x783140003cff6c06b230937707eb5222186f0118",
      "contractAddress": null
    }
  ],
  "libraries": [],
  "pending": [],
  "returns": {},
  "timestamp": 1758975769,
  "chain": 11155111,
  "commit": "54cecf0"
}