{
  "transactions": [
    {
      "hash": "0xa320501cb39a7ec635009427317ee86af3b0a321e029aadb5a9d207ff0d62712",
      "transactionType": "CALL",
      "contractName": null,
      "contractAddress": "0x9b59d4c6e2517e6812a4eb9f586695c0c8710fa8",
      "function": "registerArtist(uint256,address,string,string)",
      "arguments": [
        "2",
        "0x08D811A358850892029251CcC8a565a32fd2dCB8",
        "Bob",
        "https://example.com/bob.png"
      ],
      "transaction": {
        "from": "0x08d811a358850892029251ccc8a565a32fd2dcb8",
        "to": "0x9b59d4c6e2517e6812a4eb9f586695c0c8710fa8",
        "gas": "0x2a43b",
        "value": "0x0",
        "input": "0xcff6f344000000000000000000000000000000000000000000000000000000000000000200000000000000000000000008d811a358850892029251ccc8a565a32fd2dcb8000000000000000000000000000000000000000000000000000000000000008000000000000000000000000000000000000000000000000000000000000000c00000000000000000000000000000000000000000000000000000000000000003426f620000000000000000000000000000000000000000000000000000000000000000000000000000000000000000000000000000000000000000000000001b68747470733a2f2f6578616d706c652e636f6d2f626f622e706e670000000000",
        "nonce": "0x81",
        "chainId": "0xaa36a7"
      },
      "additionalContracts": [],
      "isFixedGasLimit": false
    }
  ],
  "receipts": [
    {
      "status": "0x1",
      "cumulativeGasUsed": "0x11bd286",
      "logs": [
        {
          "address": "0x9b59d4c6e2517e6812a4eb9f586695c0c8710fa8",
          "topics": [
            "0x4d5335f250ca609809ec654363d9e9df7071c2a1afedd5e2bf4f66dce7d7cada",
            "0x0000000000000000000000000000000000000000000000000000000000000002"
          ],
          "data": "0x00000000000000000000000008d811a358850892029251ccc8a565a32fd2dcb8000000000000000000000000000000000000000000000000000000000000006000000000000000000000000000000000000000000000000000000000000000a00000000000000000000000000000000000000000000000000000000000000003426f620000000000000000000000000000000000000000000000000000000000000000000000000000000000000000000000000000000000000000000000001b68747470733a2f2f6578616d706c652e636f6d2f626f622e706e670000000000",
          "blockHash": "0x1326d3e3e5017125c27cbae21f261285d0e0d8d26a870ac5a925d9f99af0aee8",
          "blockNumber": "0x8dc938",
          "blockTimestamp": "0x68d80700",
          "transactionHash": "0xa320501cb39a7ec635009427317ee86af3b0a321e029aadb5a9d207ff0d62712",
          "transactionIndex": "0xe1",
          "logIndex": "0xa0",
          "removed": false
        }
      ],
      "logsBloom": "0x04000000000000000000000000000000000000000000000000000000000000000000000000000000000000000000000000000000000000080000000000000000000000000000000000000000000000000000000000000000000000000000000000000000000000000000000000000000000000000000000000000000000000000000000800800000000000000000000000000400000000000000000000000000000000000000000000000100000000000000000000000000000000000000000000000000000000080000000000000000000000000000000000000100000000000000000000000000000000000000000000000000008000000000000000000000",
      "type": "0x2",
      "transactionHash": "0xa320501cb39a7ec635009427317ee86af3b0a321e029aadb5a9d207ff0d62712",
      "transactionIndex": "0xe1",
      "blockHash": "0x1326d3e3e5017125c27cbae21f261285d0e0d8d26a870ac5a925d9f99af0aee8",
      "blockNumber": "0x8dc938",
      "gasUsed": "0x1ce62",
      "effectiveGasPrice": "0xf424b",
      "from": "0x08d811a358850892029251ccc8a565a32fd2dcb8",
      "to": "0x9b59d4c6e2517e6812a4eb9f586695c0c8710fa8",
      "contractAddress": null
    }
  ],
  "libraries": [],
  "pending": [],
  "returns": {},
  "timestamp": 1758988034,
  "chain": 11155111,
  "commit": "9722ff8"
}