{
  "transactions": [
    {
      "hash": "0x4e44706c11d1f81879caf635e4e751694fd84781908efaf257b766e5702c14e0",
      "transactionType": "CALL",
      "contractName": null,
      "contractAddress": "0xc99c19d7dc7b765cfdd354d2c8d7c187431e142f",
      "function": "registerArtist(uint256,address,string,string)",
      "arguments": [
        "1",
        "0x08D811A358850892029251CcC8a565a32fd2dCB8",
        "Alice",
        "https://example.com/alice.png"
      ],
      "transaction": {
        "from": "0x08d811a358850892029251ccc8a565a32fd2dcb8",
        "to": "0xc99c19d7dc7b765cfdd354d2c8d7c187431e142f",
        "gas": "0x2a460",
        "value": "0x0",
        "input": "0xcff6f344000000000000000000000000000000000000000000000000000000000000000100000000000000000000000008d811a358850892029251ccc8a565a32fd2dcb8000000000000000000000000000000000000000000000000000000000000008000000000000000000000000000000000000000000000000000000000000000c00000000000000000000000000000000000000000000000000000000000000005416c696365000000000000000000000000000000000000000000000000000000000000000000000000000000000000000000000000000000000000000000001d68747470733a2f2f6578616d706c652e636f6d2f616c6963652e706e67000000",
        "nonce": "0x2a",
        "chainId": "0xaa36a7"
      },
      "additionalContracts": [],
      "isFixedGasLimit": false
    }
  ],
  "receipts": [
    {
      "status": "0x1",
      "cumulativeGasUsed": "0x926991",
      "logs": [
        {
          "address": "0xc99c19d7dc7b765cfdd354d2c8d7c187431e142f",
          "topics": [
            "0x4d5335f250ca609809ec654363d9e9df7071c2a1afedd5e2bf4f66dce7d7cada",
            "0x0000000000000000000000000000000000000000000000000000000000000001"
          ],
          "data": "0x00000000000000000000000008d811a358850892029251ccc8a565a32fd2dcb8000000000000000000000000000000000000000000000000000000000000006000000000000000000000000000000000000000000000000000000000000000a00000000000000000000000000000000000000000000000000000000000000005416c696365000000000000000000000000000000000000000000000000000000000000000000000000000000000000000000000000000000000000000000001d68747470733a2f2f6578616d706c652e636f6d2f616c6963652e706e67000000",
          "blockHash": "0x102fbe4227aeba724e2ba334bf543dc69b30ee3b4ccefb2e315a846143c55d62",
          "blockNumber": "0x8dc292",
          "blockTimestamp": "0x68d7b678",
          "transactionHash": "0x4e44706c11d1f81879caf635e4e751694fd84781908efaf257b766e5702c14e0",
          "transactionIndex": "0x51",
          "logIndex": "0x56",
          "removed": false
        }
      ],
      "logsBloom": "0x00000000008000000000000000000000002000000000000000000000000000000000000000000000000000000000000000000000000000080000000000040000000000000000000000000000000000000000000000040000000000000000000000000000000000000000000000000000000000000000000000000000000000000000000000800000000000000000000000000400000000000000000000000000000000000000000000000000000001000000000000000000000000000000000000000000000000000000000000000000000000000000000000000000000040000000000000000000000000000000000000000000000000000000000000000000",
      "type": "0x2",
      "transactionHash": "0x4e44706c11d1f81879caf635e4e751694fd84781908efaf257b766e5702c14e0",
      "transactionIndex": "0x51",
      "blockHash": "0x102fbe4227aeba724e2ba334bf543dc69b30ee3b4ccefb2e315a846143c55d62",
      "blockNumber": "0x8dc292",
      "gasUsed": "0x1ce7b",
      "effectiveGasPrice": "0xf4248",
      "from": "0x08d811a358850892029251ccc8a565a32fd2dcb8",
      "to": "0xc99c19d7dc7b765cfdd354d2c8d7c187431e142f",
      "contractAddress": null
    }
  ],
  "libraries": [],
  "pending": [],
  "returns": {},
  "timestamp": 1758967418,
  "chain": 11155111,
  "commit": "1f9fd16"
}