{
  "transactions": [
    {
      "hash": "0x54ac7fa60ff10cecaac4fecb7cc897facd05bfe71ea0d759ae69d9d7a23dfc2a",
      "transactionType": "CALL",
      "contractName": null,
      "contractAddress": "0x783140003cff6c06b230937707eb5222186f0118",
      "function": "registerArtist(uint256,address,string,string)",
      "arguments": [
        "2",
        "0x08D811A358850892029251CcC8a565a32fd2dCB8",
        "Bob",
        "https://example.com/bob.png"
      ],
      "transaction": {
        "from": "0x08d811a358850892029251ccc8a565a32fd2dcb8",
        "to": "0x783140003cff6c06b230937707eb5222186f0118",
        "gas": "0x2a41a",
        "value": "0x0",
        "input": "0xcff6f344000000000000000000000000000000000000000000000000000000000000000200000000000000000000000008d811a358850892029251ccc8a565a32fd2dcb8000000000000000000000000000000000000000000000000000000000000008000000000000000000000000000000000000000000000000000000000000000c00000000000000000000000000000000000000000000000000000000000000003426f620000000000000000000000000000000000000000000000000000000000000000000000000000000000000000000000000000000000000000000000001b68747470733a2f2f6578616d706c652e636f6d2f626f622e706e670000000000",
        "nonce": "0x45",
        "chainId": "0xaa36a7"
      },
      "additionalContracts": [],
      "isFixedGasLimit": false
    }
  ],
  "receipts": [
    {
      "status": "0x1",
      "cumulativeGasUsed": "0x96a422",
      "logs": [
        {
          "address": "0x783140003cff6c06b230937707eb5222186f0118",
          "topics": [
            "0x4d5335f250ca609809ec654363d9e9df7071c2a1afedd5e2bf4f66dce7d7cada",
            "0x0000000000000000000000000000000000000000000000000000000000000002"
          ],
          "data": "0x00000000000000000000000008d811a358850892029251ccc8a565a32fd2dcb8000000000000000000000000000000000000000000000000000000000000006000000000000000000000000000000000000000000000000000000000000000a00000000000000000000000000000000000000000000000000000000000000003426f620000000000000000000000000000000000000000000000000000000000000000000000000000000000000000000000000000000000000000000000001b68747470733a2f2f6578616d706c652e636f6d2f626f622e706e670000000000",
          "blockHash": "0xcfea7063fd19498fd379c340585175590056129fecae3254d91a71c434f2120c",
          "blockNumber": "0x8dc548",
          "blockTimestamp": "0x68d7d73c",
          "transactionHash": "0x54ac7fa60ff10cecaac4fecb7cc897facd05bfe71ea0d759ae69d9d7a23dfc2a",
          "transactionIndex": "0x86",
          "logIndex": "0x73",
          "removed": false
        }
      ],
      "logsBloom": "0x04000000000000000000000000000000000000000000000000000000000000000000000000000000000000010000000000000000000000080000000000000000000000000100000000000000000000000000000000000000000000000000000000000000000000000000000000000000000000000000000000000000000000000000000000800000000000000000000000000400000000000000000000000000000000000000000000000100000000000000000000000000000000000000000000000000000001000000000000000000000000000000000000000000000000000000000000000000000000000000000000000000008000000000000000000000",
      "type": "0x2",
      "transactionHash": "0x54ac7fa60ff10cecaac4fecb7cc897facd05bfe71ea0d759ae69d9d7a23dfc2a",
      "transactionIndex": "0x86",
      "blockHash": "0xcfea7063fd19498fd379c340585175590056129fecae3254d91a71c434f2120c",
      "blockNumber": "0x8dc548",
      "gasUsed": "0x1ce4b",
      "effectiveGasPrice": "0xf4250",
      "from": "0x08d811a358850892029251ccc8a565a32fd2dcb8",
      "to": "0x783140003cff6c06b230937707eb5222186f0118",
      "contractAddress": null
    }
  ],
  "libraries": [],
  "pending": [],
  "returns": {},
  "timestamp": 1758975806,
  "chain": 11155111,
  "commit": "54cecf0"
}