{
  "transactions": [
    {
      "hash": "0x02b03a768bae1693d3f39dd7d5a00e7260653342e3ae04e08a10701171de7a8f",
      "transactionType": "CALL",
      "contractName": null,
      "contractAddress": "0x8814705e13e1040f47097f7193fc2083fa1997bc",
      "function": "registerArtist(address,string,string)",
      "arguments": [
        "0xC94d68094FA65E991dFfa0A941306E8460876169",
        "Bob",
        "https://example.com/bob.png"
      ],
      "transaction": {
        "from": "0x08d811a358850892029251ccc8a565a32fd2dcb8",
        "to": "0x8814705e13e1040f47097f7193fc2083fa1997bc",
        "gas": "0x27a8d",
        "value": "0x0",
        "input": "0x93bb5e6f000000000000000000000000c94d68094fa65e991dffa0a941306e8460876169000000000000000000000000000000000000000000000000000000000000006000000000000000000000000000000000000000000000000000000000000000a00000000000000000000000000000000000000000000000000000000000000003426f620000000000000000000000000000000000000000000000000000000000000000000000000000000000000000000000000000000000000000000000001b68747470733a2f2f6578616d706c652e636f6d2f626f622e706e670000000000",
        "nonce": "0xa9",
        "chainId": "0xaa36a7"
      },
      "additionalContracts": [],
      "isFixedGasLimit": false
    }
  ],
  "receipts": [
    {
      "status": "0x1",
      "cumulativeGasUsed": "0x943558",
      "logs": [
        {
          "address": "0x8814705e13e1040f47097f7193fc2083fa1997bc",
          "topics": [
            "0x3b8cc2a9ce5f30dcaf9dc4ecb003d17fad34e58387858af5ff33344d3a5dfc17",
            "0x000000000000000000000000c94d68094fa65e991dffa0a941306e8460876169"
          ],
          "data": "0x000000000000000000000000000000000000000000000000000000000000004000000000000000000000000000000000000000000000000000000000000000800000000000000000000000000000000000000000000000000000000000000003426f620000000000000000000000000000000000000000000000000000000000000000000000000000000000000000000000000000000000000000000000001b68747470733a2f2f6578616d706c652e636f6d2f626f622e706e670000000000",
          "blockHash": "0xdffdee1bfca2c49e2d8bdae31b7e153ed8ddc4e4e4c21025777f8576b50995df",
          "blockNumber": "0x8dcfed",
          "blockTimestamp": "0x68d85830",
          "transactionHash": "0x02b03a768bae1693d3f39dd7d5a00e7260653342e3ae04e08a10701171de7a8f",
          "transactionIndex": "0x50",
          "logIndex": "0xa2",
          "removed": false
        }
      ],
      "logsBloom": "0x00000000000000000000000000000000000200000000000000000000000000000000800000000000000000000000000000000000000000000000000000000000000000000000000010000000000000000000080000000000000000000000000000000000000000000000000000000000000000000000000000000000000000000000001000000000000000000000000000000000000000000000000000000000000000000000000000000000000000000000000000000000002000000000004000000000000000000000000000000000000000000000000000000000000000000000000000000000000000000000100000000000000100000000000000000000",
      "type": "0x2",
      "transactionHash": "0x02b03a768bae1693d3f39dd7d5a00e7260653342e3ae04e08a10701171de7a8f",
      "transactionIndex": "0x50",
      "blockHash": "0xdffdee1bfca2c49e2d8bdae31b7e153ed8ddc4e4e4c21025777f8576b50995df",
      "blockNumber": "0x8dcfed",
      "gasUsed": "0x1cb68",
      "effectiveGasPrice": "0xf4249",
      "from": "0x08d811a358850892029251ccc8a565a32fd2dcb8",
      "to": "0x8814705e13e1040f47097f7193fc2083fa1997bc",
      "contractAddress": null
    }
  ],
  "libraries": [],
  "pending": [],
  "returns": {},
  "timestamp": 1759008817,
  "chain": 11155111,
  "commit": "e9b8cc9"
}