{
  "transactions": [
    {
      "hash": "0xac28d812d77b66f6453e0bd02c158aafc678f4a06e6674cc2921c438610db3da",
      "transactionType": "CALL",
      "contractName": null,
      "contractAddress": "0x9b59d4c6e2517e6812a4eb9f586695c0c8710fa8",
      "function": "registerArtist(uint256,address,string,string)",
      "arguments": [
        "1",
        "0x08D811A358850892029251CcC8a565a32fd2dCB8",
        "Alice",
        "https://example.com/alice.png"
      ],
      "transaction": {
        "from": "0x08d811a358850892029251ccc8a565a32fd2dcb8",
        "to": "0x9b59d4c6e2517e6812a4eb9f586695c0c8710fa8",
        "gas": "0x2a482",
        "value": "0x0",
        "input": "0xcff6f344000000000000000000000000000000000000000000000000000000000000000100000000000000000000000008d811a358850892029251ccc8a565a32fd2dcb8000000000000000000000000000000000000000000000000000000000000008000000000000000000000000000000000000000000000000000000000000000c00000000000000000000000000000000000000000000000000000000000000005416c696365000000000000000000000000000000000000000000000000000000000000000000000000000000000000000000000000000000000000000000001d68747470733a2f2f6578616d706c652e636f6d2f616c6963652e706e67000000",
        "nonce": "0x80",
        "chainId": "0xaa36a7"
      },
      "additionalContracts": [],
      "isFixedGasLimit": false
    }
  ],
  "receipts": [
    {
      "status": "0x1",
      "cumulativeGasUsed": "0xbb38e2",
      "logs": [
        {
          "address": "0x9b59d4c6e2517e6812a4eb9f586695c0c8710fa8",
          "topics": [
            "0x4d5335f250ca609809ec654363d9e9df7071c2a1afedd5e2bf4f66dce7d7cada",
            "0x0000000000000000000000000000000000000000000000000000000000000001"
          ],
          "data": "0x00000000000000000000000008d811a358850892029251ccc8a565a32fd2dcb8000000000000000000000000000000000000000000000000000000000000006000000000000000000000000000000000000000000000000000000000000000a00000000000000000000000000000000000000000000000000000000000000005416c696365000000000000000000000000000000000000000000000000000000000000000000000000000000000000000000000000000000000000000000001d68747470733a2f2f6578616d706c652e636f6d2f616c6963652e706e67000000",
          "blockHash": "0x74c337b80286900e6b6b5b87ffdacfe8412a0c08cb707f05cd2e7f1b9280d430",
          "blockNumber": "0x8dc935",
          "blockTimestamp": "0x68d806dc",
          "transactionHash": "0xac28d812d77b66f6453e0bd02c158aafc678f4a06e6674cc2921c438610db3da",
          "transactionIndex": "0x97",
          "logIndex": "0x93",
          "removed": false
        }
      ],
      "logsBloom": "0x00000000000000000000000000000000000000000000000000000000000000000000000000000000000000000000000000000000000000080000000000040000000000000000000000000000000000000000000000040000000000000000000000000000000000000000000000000000000000000000000000000000000000000000000800800000000000000000000000000400000000000000000000000000000000000000000000000000000000000000000000000000000000000000000000000000000000080000000000000000000000000000000000000100000040000000000000000000000000000000000000000000000000000000000000000000",
      "type": "0x2",
      "transactionHash": "0xac28d812d77b66f6453e0bd02c158aafc678f4a06e6674cc2921c438610db3da",
      "transactionIndex": "0x97",
      "blockHash": "0x74c337b80286900e6b6b5b87ffdacfe8412a0c08cb707f05cd2e7f1b9280d430",
      "blockNumber": "0x8dc935",
      "gasUsed": "0x1ce92",
      "effectiveGasPrice": "0xf424b",
      "from": "0x08d811a358850892029251ccc8a565a32fd2dcb8",
      "to": "0x9b59d4c6e2517e6812a4eb9f586695c0c8710fa8",
      "contractAddress": null
    }
  ],
  "libraries": [],
  "pending": [],
  "returns": {},
  "timestamp": 1758987996,
  "chain": 11155111,
  "commit": "9722ff8"
}