{
  "transactions": [
    {
      "hash": "0x010cb027f9e21001c6907458775226774c8470a01f412f4574e85f8a674dd967",
      "transactionType": "CALL",
      "contractName": null,
      "contractAddress": "0x3b0a046e1d54cd64bb308ca6129fff066ba3718b",
      "function": "registerArtist(uint256,address,string,string)",
      "arguments": [
        "1",
        "0x08D811A358850892029251CcC8a565a32fd2dCB8",
        "Alice",
        "https://example.com/alice.png"
      ],
      "transaction": {
        "from": "0x08d811a358850892029251ccc8a565a32fd2dcb8",
        "to": "0x3b0a046e1d54cd64bb308ca6129fff066ba3718b",
        "gas": "0x2a460",
        "value": "0x0",
        "input": "0xcff6f344000000000000000000000000000000000000000000000000000000000000000100000000000000000000000008d811a358850892029251ccc8a565a32fd2dcb8000000000000000000000000000000000000000000000000000000000000008000000000000000000000000000000000000000000000000000000000000000c00000000000000000000000000000000000000000000000000000000000000005416c696365000000000000000000000000000000000000000000000000000000000000000000000000000000000000000000000000000000000000000000001d68747470733a2f2f6578616d706c652e636f6d2f616c6963652e706e67000000",
        "nonce": "0x38",
        "chainId": "0xaa36a7"
      },
      "additionalContracts": [],
      "isFixedGasLimit": false
    }
  ],
  "receipts": [
    {
      "status": "0x1",
      "cumulativeGasUsed": "0xd2814c",
      "logs": [
        {
          "address": "0x3b0a046e1d54cd64bb308ca6129fff066ba3718b",
          "topics": [
            "0x4d5335f250ca609809ec654363d9e9df7071c2a1afedd5e2bf4f66dce7d7cada",
            "0x0000000000000000000000000000000000000000000000000000000000000001"
          ],
          "data": "0x00000000000000000000000008d811a358850892029251ccc8a565a32fd2dcb8000000000000000000000000000000000000000000000000000000000000006000000000000000000000000000000000000000000000000000000000000000a00000000000000000000000000000000000000000000000000000000000000005416c696365000000000000000000000000000000000000000000000000000000000000000000000000000000000000000000000000000000000000000000001d68747470733a2f2f6578616d706c652e636f6d2f616c6963652e706e67000000",
          "blockHash": "0x28cc64cac4cfcda13a8b405ec8b8133c8da006b4b3abba178a5d47bcc406f75a",
          "blockNumber": "0x8dc3dc",
          "blockTimestamp": "0x68d7c608",
          "transactionHash": "0x010cb027f9e21001c6907458775226774c8470a01f412f4574e85f8a674dd967",
          "transactionIndex": "0x10d",
          "logIndex": "0x69",
          "removed": false
        }
      ],
      "logsBloom": "0x00000000000000000000000000000000000000000000000000000000000000000000000000000000000000000000000000000000000000080000000000040000000000000000000000000000000000000000000000040000000000000000000000000000000000000000000000000000000000000000000000000000000000000000000000800000000000000000000000000400000000000000000000000000000000000000000000000000000000000000000000000000000000000000000000040000000000000000000000000000000000000000000000000000000040000000000000000000000000000000000000000000000000000000000080004000",
      "type": "0x2",
      "transactionHash": "0x010cb027f9e21001c6907458775226774c8470a01f412f4574e85f8a674dd967",
      "transactionIndex": "0x10d",
      "blockHash": "0x28cc64cac4cfcda13a8b405ec8b8133c8da006b4b3abba178a5d47bcc406f75a",
      "blockNumber": "0x8dc3dc",
      "gasUsed": "0x1ce7b",
      "effectiveGasPrice": "0xf424a",
      "from": "0x08d811a358850892029251ccc8a565a32fd2dcb8",
      "to": "0x3b0a046e1d54cd64bb308ca6129fff066ba3718b",
      "contractAddress": null
    }
  ],
  "libraries": [],
  "pending": [],
  "returns": {},
  "timestamp": 1758971400,
  "chain": 11155111,
  "commit": "0c29bf6"
}