{
  "transactions": [
    {
      "hash": "0x3a47f43aacd07167622fa8e1da1f88df1ef7fbfbc2738947414350f861371b75",
      "transactionType": "CALL",
      "contractName": null,
      "contractAddress": "0x07dd0d19157c16b56da296ca4738c9f66ef21177",
      "function": "registerArtist(uint256,address,string,string)",
      "arguments": [
        "2",
        "0x08D811A358850892029251CcC8a565a32fd2dCB8",
        "Bob",
        "https://example.com/bob.png"
      ],
      "transaction": {
        "from": "0x08d811a358850892029251ccc8a565a32fd2dcb8",
        "to": "0x07dd0d19157c16b56da296ca4738c9f66ef21177",
        "gas": "0x2a43b",
        "value": "0x0",
        "input": "0xcff6f344000000000000000000000000000000000000000000000000000000000000000200000000000000000000000008d811a358850892029251ccc8a565a32fd2dcb8000000000000000000000000000000000000000000000000000000000000008000000000000000000000000000000000000000000000000000000000000000c00000000000000000000000000000000000000000000000000000000000000003426f620000000000000000000000000000000000000000000000000000000000000000000000000000000000000000000000000000000000000000000000001b68747470733a2f2f6578616d706c652e636f6d2f626f622e706e670000000000",
        "nonce": "0x8e",
        "chainId": "0xaa36a7"
      },
      "additionalContracts": [],
      "isFixedGasLimit": false
    }
  ],
  "receipts": [
    {
      "status": "0x1",
      "cumulativeGasUsed": "0x102cd96",
      "logs": [
        {
          "address": "0x07dd0d19157c16b56da296ca4738c9f66ef21177",
          "topics": [
            "0x4d5335f250ca609809ec654363d9e9df7071c2a1afedd5e2bf4f66dce7d7cada",
            "0x0000000000000000000000000000000000000000000000000000000000000002"
          ],
          "data": "0x00000000000000000000000008d811a358850892029251ccc8a565a32fd2dcb8000000000000000000000000000000000000000000000000000000000000006000000000000000000000000000000000000000000000000000000000000000a00000000000000000000000000000000000000000000000000000000000000003426f620000000000000000000000000000000000000000000000000000000000000000000000000000000000000000000000000000000000000000000000001b68747470733a2f2f6578616d706c652e636f6d2f626f622e706e670000000000",
          "blockHash": "0x6ad0b3497c3011720508dc2a991d44888f0a8f0a584f7a216c268b6f7e0d54f7",
          "blockNumber": "0x8dc9ca",
          "blockTimestamp": "0x68d80e08",
          "transactionHash": "0x3a47f43aacd07167622fa8e1da1f88df1ef7fbfbc2738947414350f861371b75",
          "transactionIndex": "0xae",
          "logIndex": "0xa5",
          "removed": false
        }
      ],
      "logsBloom": "0x04000000000000000000000000000000000000000000000000000000000000000000000000000000000000000000000000000000000000080000000000000000000000000000000000000000000000000000000000000000000008000000000000000000000000000000000000000000000000000000000000000000000000000000000000800000000000000000000000000400000200000000000000000000000000000000000000000100000000000000000000000000000000000000000000000000000000000000000000000000000000000000000000000000000000000000000000000000000000000000000000000000008000000000000000000100",
      "type": "0x2",
      "transactionHash": "0x3a47f43aacd07167622fa8e1da1f88df1ef7fbfbc2738947414350f861371b75",
      "transactionIndex": "0xae",
      "blockHash": "0x6ad0b3497c3011720508dc2a991d44888f0a8f0a584f7a216c268b6f7e0d54f7",
      "blockNumber": "0x8dc9ca",
      "gasUsed": "0x1ce62",
      "effectiveGasPrice": "0xf424b",
      "from": "0x08d811a358850892029251ccc8a565a32fd2dcb8",
      "to": "0x07dd0d19157c16b56da296ca4738c9f66ef21177",
      "contractAddress": null
    }
  ],
  "libraries": [],
  "pending": [],
  "returns": {},
  "timestamp": 1758989834,
  "chain": 11155111,
  "commit": "1073c01"
}