{
  "transactions": [
    {
      "hash": "0x1608b27c05b225efb7ea0b162820ef89e9b448947631602de6cf3d099f8aa81d",
      "transactionType": "CALL",
      "contractName": null,
      "contractAddress": "0x3b0a046e1d54cd64bb308ca6129fff066ba3718b",
      "function": "registerArtist(uint256,address,string,string)",
      "arguments": [
        "2",
        "0x08D811A358850892029251CcC8a565a32fd2dCB8",
        "Bob",
        "https://example.com/bob.png"
      ],
      "transaction": {
        "from": "0x08d811a358850892029251ccc8a565a32fd2dcb8",
        "to": "0x3b0a046e1d54cd64bb308ca6129fff066ba3718b",
        "gas": "0x2a41a",
        "value": "0x0",
        "input": "0xcff6f344000000000000000000000000000000000000000000000000000000000000000200000000000000000000000008d811a358850892029251ccc8a565a32fd2dcb8000000000000000000000000000000000000000000000000000000000000008000000000000000000000000000000000000000000000000000000000000000c00000000000000000000000000000000000000000000000000000000000000003426f620000000000000000000000000000000000000000000000000000000000000000000000000000000000000000000000000000000000000000000000001b68747470733a2f2f6578616d706c652e636f6d2f626f622e706e670000000000",
        "nonce": "0x3c",
        "chainId": "0xaa36a7"
      },
      "additionalContracts": [],
      "isFixedGasLimit": false
    }
  ],
  "receipts": [
    {
      "status": "0x1",
      "cumulativeGasUsed": "0xe95d4d",
      "logs": [
        {
          "address": "0x3b0a046e1d54cd64bb308ca6129fff066ba3718b",
          "topics": [
            "0x4d5335f250ca609809ec654363d9e9df7071c2a1afedd5e2bf4f66dce7d7cada",
            "0x0000000000000000000000000000000000000000000000000000000000000002"
          ],
          "data": "0x00000000000000000000000008d811a358850892029251ccc8a565a32fd2dcb8000000000000000000000000000000000000000000000000000000000000006000000000000000000000000000000000000000000000000000000000000000a00000000000000000000000000000000000000000000000000000000000000003426f620000000000000000000000000000000000000000000000000000000000000000000000000000000000000000000000000000000000000000000000001b68747470733a2f2f6578616d706c652e636f6d2f626f622e706e670000000000",
          "blockHash": "0x25dd805f30f808c6d059d4b69d7af856b0409c3cb383302923dc0876f39d3c3b",
          "blockNumber": "0x8dc50a",
          "blockTimestamp": "0x68d7d454",
          "transactionHash": "0x1608b27c05b225efb7ea0b162820ef89e9b448947631602de6cf3d099f8aa81d",
          "transactionIndex": "0x102",
          "logIndex": "0xb9",
          "removed": false
        }
      ],
      "logsBloom": "0x04000000000000000000000000000000000000000000000000000000000000000000000000000000000000000000000000000000000000080000000000000000000000000000000000000000000000000000000000000000000000000000000000000000000000000000000000000000000000000000000000000000000000000000000000800000000000000000000000000400000000000000000000000000000000000000000000000100000000000000000000000000000000000000000000040000000000000000000000000000000000000000000000000000000000000000000000000000000000000000000000000000008000000000000080004000",
      "type": "0x2",
      "transactionHash": "0x1608b27c05b225efb7ea0b162820ef89e9b448947631602de6cf3d099f8aa81d",
      "transactionIndex": "0x102",
      "blockHash": "0x25dd805f30f808c6d059d4b69d7af856b0409c3cb383302923dc0876f39d3c3b",
      "blockNumber": "0x8dc50a",
      "gasUsed": "0x1ce4b",
      "effectiveGasPrice": "0xf424d",
      "from": "0x08d811a358850892029251ccc8a565a32fd2dcb8",
      "to": "0x3b0a046e1d54cd64bb308ca6129fff066ba3718b",
      "contractAddress": null
    }
  ],
  "libraries": [],
  "pending": [],
  "returns": {},
  "timestamp": 1758975062,
  "chain": 11155111,
  "commit": "54cecf0"
}