{
  "transactions": [
    {
      "hash": "0x77a2550db3db455102dd73637b4b881bf876fb5c56c3e1ef97741f0f47e74100",
      "transactionType": "CALL",
      "contractName": null,
      "contractAddress": "0xc99c19d7dc7b765cfdd354d2c8d7c187431e142f",
      "function": "registerArtist(uint256,address,string,string)",
      "arguments": [
        "2",
        "0x08D811A358850892029251CcC8a565a32fd2dCB8",
        "Bob",
        "https://example.com/bob.png"
      ],
      "transaction": {
        "from": "0x08d811a358850892029251ccc8a565a32fd2dcb8",
        "to": "0xc99c19d7dc7b765cfdd354d2c8d7c187431e142f",
        "gas": "0x2a41a",
        "value": "0x0",
        "input": "0xcff6f344000000000000000000000000000000000000000000000000000000000000000200000000000000000000000008d811a358850892029251ccc8a565a32fd2dcb8000000000000000000000000000000000000000000000000000000000000008000000000000000000000000000000000000000000000000000000000000000c00000000000000000000000000000000000000000000000000000000000000003426f620000000000000000000000000000000000000000000000000000000000000000000000000000000000000000000000000000000000000000000000001b68747470733a2f2f6578616d706c652e636f6d2f626f622e706e670000000000",
        "nonce": "0x31",
        "chainId": "0xaa36a7"
      },
      "additionalContracts": [],
      "isFixedGasLimit": false
    }
  ],
  "receipts": [
    {
      "status": "0x1",
      "cumulativeGasUsed": "0x4857e8",
      "logs": [
        {
          "address": "0xc99c19d7dc7b765cfdd354d2c8d7c187431e142f",
          "topics": [
            "0x4d5335f250ca609809ec654363d9e9df7071c2a1afedd5e2bf4f66dce7d7cada",
            "0x0000000000000000000000000000000000000000000000000000000000000002"
          ],
          "data": "0x00000000000000000000000008d811a358850892029251ccc8a565a32fd2dcb8000000000000000000000000000000000000000000000000000000000000006000000000000000000000000000000000000000000000000000000000000000a00000000000000000000000000000000000000000000000000000000000000003426f620000000000000000000000000000000000000000000000000000000000000000000000000000000000000000000000000000000000000000000000001b68747470733a2f2f6578616d706c652e636f6d2f626f622e706e670000000000",
          "blockHash": "0x22a789d17a8f3e07b7f9303c3599db60a9b37e5faafc968024e8d0a949538887",
          "blockNumber": "0x8dc310",
          "blockTimestamp": "0x68d7bc60",
          "transactionHash": "0x77a2550db3db455102dd73637b4b881bf876fb5c56c3e1ef97741f0f47e74100",
          "transactionIndex": "0x36",
          "logIndex": "0x50",
          "removed": false
        }
      ],
      "logsBloom": "0x04000000008000000000000000000000002000000000000000000000000000000000000000000000000000000000000000000000000000080000000000000000000000000000000000000000000000000000000000000000000000000000000000000000000000000000000000000000000000000000000000000000000000000000000000800000000000000000000000000400000000000000000000000000000000000000000000000100000001000000000000000000000000000000000000000000000000000000000000000000000000000000000000000000000000000000000000000000000000000000000000000000008000000000000000000000",
      "type": "0x2",
      "transactionHash": "0x77a2550db3db455102dd73637b4b881bf876fb5c56c3e1ef97741f0f47e74100",
      "transactionIndex": "0x36",
      "blockHash": "0x22a789d17a8f3e07b7f9303c3599db60a9b37e5faafc968024e8d0a949538887",
      "blockNumber": "0x8dc310",
      "gasUsed": "0x1ce4b",
      "effectiveGasPrice": "0x100fe1",
      "from": "0x08d811a358850892029251ccc8a565a32fd2dcb8",
      "to": "0xc99c19d7dc7b765cfdd354d2c8d7c187431e142f",
      "contractAddress": null
    }
  ],
  "libraries": [],
  "pending": [],
  "returns": {},
  "timestamp": 1758968929,
  "chain": 11155111,
  "commit": "0c29bf6"
}