{
  "transactions": [
    {
      "hash": "0xab173e8dc2c10e517fac877d7c10115a8f7007ab3b2be09e42f988ed4de482ae",
      "transactionType": "CALL",
      "contractName": null,
      "contractAddress": "0x0da2a8c64ea6ad574474d34ad35cedabe0ec7ffe",
      "function": "registerArtist(uint256,address,string,string)",
      "arguments": [
        "4",
        "0x08D811A358850892029251CcC8a565a32fd2dCB8",
        "Charlie",
        "https://example.com/charlie.png"
      ],
      "transaction": {
        "from": "0x08d811a358850892029251ccc8a565a32fd2dcb8",
        "to": "0x0da2a8c64ea6ad574474d34ad35cedabe0ec7ffe",
        "gas": "0x2a4a6",
        "value": "0x0",
        "input": "0xcff6f344000000000000000000000000000000000000000000000000000000000000000400000000000000000000000008d811a358850892029251ccc8a565a32fd2dcb8000000000000000000000000000000000000000000000000000000000000008000000000000000000000000000000000000000000000000000000000000000c00000000000000000000000000000000000000000000000000000000000000007436861726c696500000000000000000000000000000000000000000000000000000000000000000000000000000000000000000000000000000000000000001f68747470733a2f2f6578616d706c652e636f6d2f636861726c69652e706e6700",
        "nonce": "0x26",
        "chainId": "0xaa36a7"
      },
      "additionalContracts": [],
      "isFixedGasLimit": false
    }
  ],
  "receipts": [
    {
      "status": "0x1",
      "cumulativeGasUsed": "0xa6a6b9",
      "logs": [
        {
          "address": "0x0da2a8c64ea6ad574474d34ad35cedabe0ec7ffe",
          "topics": [
            "0x4d5335f250ca609809ec654363d9e9df7071c2a1afedd5e2bf4f66dce7d7cada",
            "0x0000000000000000000000000000000000000000000000000000000000000004"
          ],
          "data": "0x00000000000000000000000008d811a358850892029251ccc8a565a32fd2dcb8000000000000000000000000000000000000000000000000000000000000006000000000000000000000000000000000000000000000000000000000000000a00000000000000000000000000000000000000000000000000000000000000007436861726c696500000000000000000000000000000000000000000000000000000000000000000000000000000000000000000000000000000000000000001f68747470733a2f2f6578616d706c652e636f6d2f636861726c69652e706e6700",
          "blockHash": "0x61ade0b77be19d0bd31bef02f05b51794c410901f99d732b208b7af679343599",
          "blockNumber": "0x8dc1cb",
          "blockTimestamp": "0x68d7ad0c",
          "transactionHash": "0xab173e8dc2c10e517fac877d7c10115a8f7007ab3b2be09e42f988ed4de482ae",
          "transactionIndex": "0x4e",
          "logIndex": "0x62",
          "removed": false
        }
      ],
      "logsBloom": "0x00000000000000000000000000000000000000000000000000000000000000000000000000000000000000000000000000000000000000080000000000000000000000000000000000000000000000000000000000080000000000000000000008000000000000000000000000000000000000000000000000000000000000000000000000800000000000000000000000000400000000000000000000000000000000000000000000000000000000000000000000000000002000000000000000000002000000000000000000000000000000008000000000000000000000000000000000000000000000000000000000000000000000000000000020000000",
      "type": "0x2",
      "transactionHash": "0xab173e8dc2c10e517fac877d7c10115a8f7007ab3b2be09e42f988ed4de482ae",
      "transactionIndex": "0x4e",
      "blockHash": "0x61ade0b77be19d0bd31bef02f05b51794c410901f99d732b208b7af679343599",
      "blockNumber": "0x8dc1cb",
      "gasUsed": "0x1ceab",
      "effectiveGasPrice": "0xf424c",
      "from": "0x08d811a358850892029251ccc8a565a32fd2dcb8",
      "to": "0x0da2a8c64ea6ad574474d34ad35cedabe0ec7ffe",
      "contractAddress": null
    }
  ],
  "libraries": [],
  "pending": [],
  "returns": {},
  "timestamp": 1758965005,
  "chain": 11155111,
  "commit": "93de99a"
}