{
  "transactions": [
    {
      "hash": "0xbae125a6fbea693a2a0f04fa47ff38091e08a3d9bc8cff94be69448aebc4360a",
      "transactionType": "CALL",
      "contractName": null,
      "contractAddress": "0xcac524bca292aaade2df8a05cc58f0a65b1b3bb9",
      "function": "approve(address,uint256)",
      "arguments": [
        "0x07dd0D19157C16b56da296cA4738C9F66eF21177",
        "2000000"
      ],
      "transaction": {
        "from": "0x08d811a358850892029251ccc8a565a32fd2dcb8",
        "to": "0xcac524bca292aaade2df8a05cc58f0a65b1b3bb9",
        "gas": "0xd922",
        "value": "0x0",
        "input": "0x095ea7b300000000000000000000000007dd0d19157c16b56da296ca4738c9f66ef2117700000000000000000000000000000000000000000000000000000000001e8480",
        "nonce": "0x91",
        "chainId": "0xaa36a7"
      },
      "additionalContracts": [],
      "isFixedGasLimit": false
    },
    {
      "hash": "0x322668b041760bdf658ca390c98efa1561c14182210f03c1176fdea8c29d41aa",
      "transactionType": "CALL",
      "contractName": null,
      "contractAddress": "0x07dd0d19157c16b56da296ca4738c9f66ef21177",
      "function": "allocateGift(uint256[],uint256[])",
      "arguments": [
        "[1, 2]",
        "[1000000, 1000000]"
      ],
      "transaction": {
        "from": "0x08d811a358850892029251ccc8a565a32fd2dcb8",
        "to": "0x07dd0d19157c16b56da296ca4738c9f66ef21177",
        "gas": "0x1ed4c",
        "value": "0x0",
        "input": "0xdf4031fc000000000000000000000000000000000000000000000000000000000000004000000000000000000000000000000000000000000000000000000000000000a0000000000000000000000000000000000000000000000000000000000000000200000000000000000000000000000000000000000000000000000000000000010000000000000000000000000000000000000000000000000000000000000002000000000000000000000000000000000000000000000000000000000000000200000000000000000000000000000000000000000000000000000000000f424000000000000000000000000000000000000000000000000000000000000f4240",
        "nonce": "0x92",
        "chainId": "0xaa36a7"
      },
      "additionalContracts": [],
      "isFixedGasLimit": false
    },
    {
      "hash": "0x8ad30d4523eb85e3622ad2d12c3a83e657f3bd79a4e1f29204d268f9249585f3",
      "transactionType": "CALL",
      "contractName": null,
      "contractAddress": "0x48ac19c42a3a658a4b262d64908d103aeac8e029",
      "function": "mint(uint256[],uint256,string)",
      "arguments": [
        "[1, 2]",
        "2000000",
        "Alice & Bob Gift"
      ],
      "transaction": {
        "from": "0x08d811a358850892029251ccc8a565a32fd2dcb8",
        "to": "0x48ac19c42a3a658a4b262d64908d103aeac8e029",
        "gas": "0x5dccc",
        "value": "0x0",
        "input": "0x0525a4ab000000000000000000000000000000000000000000000000000000000000006000000000000000000000000000000000000000000000000000000000001e848000000000000000000000000000000000000000000000000000000000000000c00000000000000000000000000000000000000000000000000000000000000002000000000000000000000000000000000000000000000000000000000000000100000000000000000000000000000000000000000000000000000000000000020000000000000000000000000000000000000000000000000000000000000010416c696365202620426f62204769667400000000000000000000000000000000",
        "nonce": "0x93",
        "chainId": "0xaa36a7"
      },
      "additionalContracts": [],
      "isFixedGasLimit": false
    }
  ],
  "receipts": [
    {
      "status": "0x1",
      "cumulativeGasUsed": "0x699d27",
      "logs": [
        {
          "address": "0xcac524bca292aaade2df8a05cc58f0a65b1b3bb9",
          "topics": [
            "0x8c5be1e5ebec7d5bd14f71427d1e84f3dd0314c0f7b2291e5b200ac8c7c3b925",
            "0x00000000000000000000000008d811a358850892029251ccc8a565a32fd2dcb8",
            "0x00000000000000000000000007dd0d19157c16b56da296ca4738c9f66ef21177"
          ],
          "data": "0x00000000000000000000000000000000000000000000000000000000001e8480",
          "blockHash": "0xdb2fc026ef62258c74e434854c2c568c9d025bf184afeec05e06f0f355738d97",
          "blockNumber": "0x8dc9d3",
          "blockTimestamp": "0x68d80e74",
          "transactionHash": "0xbae125a6fbea693a2a0f04fa47ff38091e08a3d9bc8cff94be69448aebc4360a",
          "transactionIndex": "0x7d",
          "logIndex": "0x53",
          "removed": false
        }
      ],
      "logsBloom": "0x00000000000000000100000000000000000000000000000000000000000000000000080000000000000000000000800000000000000000000000000000200000000000000000000000000000000000000000000001000000000001000000000000000000000000000000000000000000000000000000000000000000000000000000000000000000000000000000000000000000000000000010000000000000020000000000000000000000000040000000000000000000000000000000000000000000000000000000000000000000200000000000000000000000000000000011000000000000000000000000000000000000000000000000000000000000",
      "type": "0x2",
      "transactionHash": "0xbae125a6fbea693a2a0f04fa47ff38091e08a3d9bc8cff94be69448aebc4360a",
      "transactionIndex": "0x7d",
      "blockHash": "0xdb2fc026ef62258c74e434854c2c568c9d025bf184afeec05e06f0f355738d97",
      "blockNumber": "0x8dc9d3",
      "gasUsed": "0x9d34",
      "effectiveGasPrice": "0xf424b",
      "from": "0x08d811a358850892029251ccc8a565a32fd2dcb8",
      "to": "0xcac524bca292aaade2df8a05cc58f0a65b1b3bb9",
      "contractAddress": null
    },
    {
      "status": "0x1",
      "cumulativeGasUsed": "0x6b024b",
      "logs": [
        {
          "address": "0xcac524bca292aaade2df8a05cc58f0a65b1b3bb9",
          "topics": [
            "0xddf252ad1be2c89b69c2b068fc378daa952ba7f163c4a11628f55a4df523b3ef",
            "0x00000000000000000000000008d811a358850892029251ccc8a565a32fd2dcb8",
            "0x00000000000000000000000007dd0d19157c16b56da296ca4738c9f66ef21177"
          ],
          "data": "0x00000000000000000000000000000000000000000000000000000000001e8480",
          "blockHash": "0xdb2fc026ef62258c74e434854c2c568c9d025bf184afeec05e06f0f355738d97",
          "blockNumber": "0x8dc9d3",
          "blockTimestamp": "0x68d80e74",
          "transactionHash": "0x322668b041760bdf658ca390c98efa1561c14182210f03c1176fdea8c29d41aa",
          "transactionIndex": "0x7e",
          "logIndex": "0x54",
          "removed": false
        },
        {
          "address": "0x07dd0d19157c16b56da296ca4738c9f66ef21177",
          "topics": [
            "0x0b4a617748e45ef18cd49b034c4204f444e51c07cc664db59dc8c25ea49058eb",
            "0x00000000000000000000000008d811a358850892029251ccc8a565a32fd2dcb8"
          ],
          "data": "0x00000000000000000000000000000000000000000000000000000000001e8480000000000000000000000000000000000000000000000000000000000000006000000000000000000000000000000000000000000000000000000000000000c0000000000000000000000000000000000000000000000000000000000000000200000000000000000000000000000000000000000000000000000000000000010000000000000000000000000000000000000000000000000000000000000002000000000000000000000000000000000000000000000000000000000000000200000000000000000000000000000000000000000000000000000000000f424000000000000000000000000000000000000000000000000000000000000f4240",
          "blockHash": "0xdb2fc026ef62258c74e434854c2c568c9d025bf184afeec05e06f0f355738d97",
          "blockNumber": "0x8dc9d3",
          "blockTimestamp": "0x68d80e74",
          "transactionHash": "0x322668b041760bdf658ca390c98efa1561c14182210f03c1176fdea8c29d41aa",
          "transactionIndex": "0x7e",
          "logIndex": "0x55",
          "removed": false
        }
      ],
      "logsBloom": "0x00000000000000000100000000000000000000000000000000000000000000000000080000000000000000000000800000000000000000000000000000000000010000000000000000000008000000000000000001000000000009000000000000000000000000000000000000000000000000400000000000000010000000000000000000000000000000000000000000000000000200000010000000000000000000000000000000000000000040040000000000000000000000000000000000000002000000000000000000000000200000000000000000000000000000000001000000000000000000000000000000000000000000000000000000000100",
      "type": "0x2",
      "transactionHash": "0x322668b041760bdf658ca390c98efa1561c14182210f03c1176fdea8c29d41aa",
      "transactionIndex": "0x7e",
      "blockHash": "0xdb2fc026ef62258c74e434854c2c568c9d025bf184afeec05e06f0f355738d97",
      "blockNumber": "0x8dc9d3",
      "gasUsed": "0x16524",
      "effectiveGasPrice": "0xf424b",
      "from": "0x08d811a358850892029251ccc8a565a32fd2dcb8",
      "to": "0x07dd0d19157c16b56da296ca4738c9f66ef21177",
      "contractAddress": null
    },
    {
      "status": "0x1",
      "cumulativeGasUsed": "0x6f40d9",
      "logs": [
        {
          "address": "0x48ac19c42a3a658a4b262d64908d103aeac8e029",
          "topics": [
            "0xddf252ad1be2c89b69c2b068fc378daa952ba7f163c4a11628f55a4df523b3ef",
            "0x0000000000000000000000000000000000000000000000000000000000000000",
            "0x00000000000000000000000008d811a358850892029251ccc8a565a32fd2dcb8",
            "0x0000000000000000000000000000000000000000000000000000000000000001"
          ],
          "data": "0x",
          "blockHash": "0xdb2fc026ef62258c74e434854c2c568c9d025bf184afeec05e06f0f355738d97",
          "blockNumber": "0x8dc9d3",
          "blockTimestamp": "0x68d80e74",
          "transactionHash": "0x8ad30d4523eb85e3622ad2d12c3a83e657f3bd79a4e1f29204d268f9249585f3",
          "transactionIndex": "0x7f",
          "logIndex": "0x56",
          "removed": false
        },
        {
          "address": "0x48ac19c42a3a658a4b262d64908d103aeac8e029",
          "topics": [
            "0xf1fc75ee5568a62c47050c11ce69ace98674df4c34da17f71ae38b3ebd5f6ed2",
            "0x0000000000000000000000000000000000000000000000000000000000000001",
            "0x00000000000000000000000008d811a358850892029251ccc8a565a32fd2dcb8"
          ],
          "data": "0x000000000000000000000000000000000000000000000000000000000000008000000000000000000000000000000000000000000000000000000000000000e000000000000000000000000000000000000000000000000000000000001e84800000000000000000000000000000000000000000000000000000000000000140000000000000000000000000000000000000000000000000000000000000000200000000000000000000000000000000000000000000000000000000000000010000000000000000000000000000000000000000000000000000000000000002000000000000000000000000000000000000000000000000000000000000000200000000000000000000000000000000000000000000000000000000000f424000000000000000000000000000000000000000000000000000000000000f42400000000000000000000000000000000000000000000000000000000000000010416c696365202620426f62204769667400000000000000000000000000000000",
          "blockHash": "0xdb2fc026ef62258c74e434854c2c568c9d025bf184afeec05e06f0f355738d97",
          "blockNumber": "0x8dc9d3",
          "blockTimestamp": "0x68d80e74",
          "transactionHash": "0x8ad30d4523eb85e3622ad2d12c3a83e657f3bd79a4e1f29204d268f9249585f3",
          "transactionIndex": "0x7f",
          "logIndex": "0x57",
          "removed": false
        }
      ],
      "logsBloom": "0x00000000000000200100000000000000000000000000000000000000000000000000080000000100000000000000000200000000000000000000000000040000000000000000000000000008000000000000000001040000000000000000000000000000020000000000000000000800000000000000000000000010000000000000000000000000000000000000000000000000000000020000000000400000000000000000000000000000000000000000000000000000000000000000000000000002000000000000000000000000000000000000000002000000000060000000000000000000000000000000000000000000000000000000000000000000",
      "type": "0x2",
      "transactionHash": "0x8ad30d4523eb85e3622ad2d12c3a83e657f3bd79a4e1f29204d268f9249585f3",
      "transactionIndex": "0x7f",
      "blockHash": "0xdb2fc026ef62258c74e434854c2c568c9d025bf184afeec05e06f0f355738d97",
      "blockNumber": "0x8dc9d3",
      "gasUsed": "0x43e8e",
      "effectiveGasPrice": "0xf424b",
      "from": "0x08d811a358850892029251ccc8a565a32fd2dcb8",
      "to": "0x48ac19c42a3a658a4b262d64908d103aeac8e029",
      "contractAddress": null
    }
  ],
  "libraries": [],
  "pending": [],
  "returns": {},
  "timestamp": 1758989941,
  "chain": 11155111,
  "commit": "1073c01"
}