{
  "transactions": [
    {
      "hash": "0xe0c90f56ee427652cc079e7427bf2bb909abc255c6ad13ee5468f85d268ac40c",
      "transactionType": "CALL",
      "contractName": null,
      "contractAddress": "0xcac524bca292aaade2df8a05cc58f0a65b1b3bb9",
      "function": "approve(address,uint256)",
      "arguments": [
        "0x6Cd07A2951Bae7321d6150E24B08C772ECEd0C2c",
        "1000000"
      ],
      "transaction": {
        "from": "0x08d811a358850892029251ccc8a565a32fd2dcb8",
        "to": "0xcac524bca292aaade2df8a05cc58f0a65b1b3bb9",
        "gas": "0xd922",
        "value": "0x0",
        "input": "0x095ea7b30000000000000000000000006cd07a2951bae7321d6150e24b08c772eced0c2c00000000000000000000000000000000000000000000000000000000000f4240",
        "nonce": "0x9d",
        "chainId": "0xaa36a7"
      },
      "additionalContracts": [],
      "isFixedGasLimit": false
    },
    {
      "hash": "0x784974726553a44466ce47ef8648f5677bfae0daa5b4c17da96e8bf53f20c278",
      "transactionType": "CALL",
      "contractName": null,
      "contractAddress": "0x6cd07a2951bae7321d6150e24b08c772eced0c2c",
      "function": "allocateGift(address[],uint256[])",
      "arguments": [
        "[0x08D811A358850892029251CcC8a565a32fd2dCB8, 0xC94d68094FA65E991dFfa0A941306E8460876169]",
        "[500000, 500000]"
      ],
      "transaction": {
        "from": "0x08d811a358850892029251ccc8a565a32fd2dcb8",
        "to": "0x6cd07a2951bae7321d6150e24b08c772eced0c2c",
        "gas": "0x1fc4a",
        "value": "0x0",
        "input": "0xc78126b1000000000000000000000000000000000000000000000000000000000000004000000000000000000000000000000000000000000000000000000000000000a0000000000000000000000000000000000000000000000000000000000000000200000000000000000000000008d811a358850892029251ccc8a565a32fd2dcb8000000000000000000000000c94d68094fa65e991dffa0a941306e84608761690000000000000000000000000000000000000000000000000000000000000002000000000000000000000000000000000000000000000000000000000007a120000000000000000000000000000000000000000000000000000000000007a120",
        "nonce": "0x9e",
        "chainId": "0xaa36a7"
      },
      "additionalContracts": [],
      "isFixedGasLimit": false
    },
    {
      "hash": "0x6d8f9f7eb00714b59ab56dcd42ee5aae1eee6a120986c85c4f6e34327bdf3232",
      "transactionType": "CALL",
      "contractName": null,
      "contractAddress": "0xcca72677e8fdcc205e2d23a977a63e9660867932",
      "function": "mint(address[],uint256,string)",
      "arguments": [
        "[0x08D811A358850892029251CcC8a565a32fd2dCB8, 0xC94d68094FA65E991dFfa0A941306E8460876169]",
        "1000000",
        "Alice & Bob Gift"
      ],
      "transaction": {
        "from": "0x08d811a358850892029251ccc8a565a32fd2dcb8",
        "to": "0xcca72677e8fdcc205e2d23a977a63e9660867932",
        "gas": "0x5e608",
        "value": "0x0",
        "input": "0x64237753000000000000000000000000000000000000000000000000000000000000006000000000000000000000000000000000000000000000000000000000000f424000000000000000000000000000000000000000000000000000000000000000c0000000000000000000000000000000000000000000000000000000000000000200000000000000000000000008d811a358850892029251ccc8a565a32fd2dcb8000000000000000000000000c94d68094fa65e991dffa0a941306e84608761690000000000000000000000000000000000000000000000000000000000000010416c696365202620426f62204769667400000000000000000000000000000000",
        "nonce": "0x9f",
        "chainId": "0xaa36a7"
      },
      "additionalContracts": [],
      "isFixedGasLimit": false
    }
  ],
  "receipts": [
    {
      "status": "0x1",
      "cumulativeGasUsed": "0xcfd331",
      "logs": [
        {
          "address": "0xcac524bca292aaade2df8a05cc58f0a65b1b3bb9",
          "topics": [
            "0x8c5be1e5ebec7d5bd14f71427d1e84f3dd0314c0f7b2291e5b200ac8c7c3b925",
            "0x00000000000000000000000008d811a358850892029251ccc8a565a32fd2dcb8",
            "0x0000000000000000000000006cd07a2951bae7321d6150e24b08c772eced0c2c"
          ],
          "data": "0x00000000000000000000000000000000000000000000000000000000000f4240",
          "blockHash": "0x1b604b094d4671881a58a6102707891a0f21198ee792e580511f65b3be297535",
          "blockNumber": "0x8dce40",
          "blockTimestamp": "0x68d843e4",
          "transactionHash": "0xe0c90f56ee427652cc079e7427bf2bb909abc255c6ad13ee5468f85d268ac40c",
          "transactionIndex": "0x51",
          "logIndex": "0xad",
          "removed": false
        }
      ],
      "logsBloom": "0x00000000000000000100010000000000000000000000000000000000000000000000080000000000000000000000800000000000000000000000000000200000000000000000080000000000000040000000000001000000000000000000000000000000000000000000000000000000000000000000000000000000000000000000000000000000000000000000000000000000000000000000000000000000020000000000000000000000000040000000000000000000000000000000000000000000000000000000000000000000200000000000000000000000000000000010000000000000000000000000000000000000000000000000000000000000",
      "type": "0x2",
      "transactionHash": "0xe0c90f56ee427652cc079e7427bf2bb909abc255c6ad13ee5468f85d268ac40c",
      "transactionIndex": "0x51",
      "blockHash": "0x1b604b094d4671881a58a6102707891a0f21198ee792e580511f65b3be297535",
      "blockNumber": "0x8dce40",
      "gasUsed": "0x9d34",
      "effectiveGasPrice": "0x10059d",
      "from": "0x08d811a358850892029251ccc8a565a32fd2dcb8",
      "to": "0xcac524bca292aaade2df8a05cc58f0a65b1b3bb9",
      "contractAddress": null
    },
    {
      "status": "0x1",
      "cumulativeGasUsed": "0xd14330",
      "logs": [
        {
          "address": "0xcac524bca292aaade2df8a05cc58f0a65b1b3bb9",
          "topics": [
            "0xddf252ad1be2c89b69c2b068fc378daa952ba7f163c4a11628f55a4df523b3ef",
            "0x00000000000000000000000008d811a358850892029251ccc8a565a32fd2dcb8",
            "0x0000000000000000000000006cd07a2951bae7321d6150e24b08c772eced0c2c"
          ],
          "data": "0x00000000000000000000000000000000000000000000000000000000000f4240",
          "blockHash": "0x1b604b094d4671881a58a6102707891a0f21198ee792e580511f65b3be297535",
          "blockNumber": "0x8dce40",
          "blockTimestamp": "0x68d843e4",
          "transactionHash": "0x784974726553a44466ce47ef8648f5677bfae0daa5b4c17da96e8bf53f20c278",
          "transactionIndex": "0x52",
          "logIndex": "0xae",
          "removed": false
        },
        {
          "address": "0x6cd07a2951bae7321d6150e24b08c772eced0c2c",
          "topics": [
            "0xa6be99dfe53d18eb0545b3611f2794e61ce7e5d7a023d683ab43e16b1951edb2",
            "0x00000000000000000000000008d811a358850892029251ccc8a565a32fd2dcb8"
          ],
          "data": "0x00000000000000000000000000000000000000000000000000000000000f4240000000000000000000000000000000000000000000000000000000000000006000000000000000000000000000000000000000000000000000000000000000c0000000000000000000000000000000000000000000000000000000000000000200000000000000000000000008d811a358850892029251ccc8a565a32fd2dcb8000000000000000000000000c94d68094fa65e991dffa0a941306e84608761690000000000000000000000000000000000000000000000000000000000000002000000000000000000000000000000000000000000000000000000000007a120000000000000000000000000000000000000000000000000000000000007a120",
          "blockHash": "0x1b604b094d4671881a58a6102707891a0f21198ee792e580511f65b3be297535",
          "blockNumber": "0x8dce40",
          "blockTimestamp": "0x68d843e4",
          "transactionHash": "0x784974726553a44466ce47ef8648f5677bfae0daa5b4c17da96e8bf53f20c278",
          "transactionIndex": "0x52",
          "logIndex": "0xaf",
          "removed": false
        }
      ],
      "logsBloom": "0x00000000000400000100010000000000000000000000000000000000000000000000080000000000000000000000800000000200000000004000000000000000000000000000080000000008000040000000000001000000000000000000000000000000000000000000000000000000000000000000000000000010000000000000000000000000000000000000000000000000000000000000000000000000000000000000000000000000000040000000000000000200000000400000000000000002000000000000000000000000200000000000000000000000000000000000000000000000000000000000010000000000000000000000000000000000",
      "type": "0x2",
      "transactionHash": "0x784974726553a44466ce47ef8648f5677bfae0daa5b4c17da96e8bf53f20c278",
      "transactionIndex": "0x52",
      "blockHash": "0x1b604b094d4671881a58a6102707891a0f21198ee792e580511f65b3be297535",
      "blockNumber": "0x8dce40",
      "gasUsed": "0x16fff",
      "effectiveGasPrice": "0x10059d",
      "from": "0x08d811a358850892029251ccc8a565a32fd2dcb8",
      "to": "0x6cd07a2951bae7321d6150e24b08c772eced0c2c",
      "contractAddress": null
    },
    {
      "status": "0x1",
      "cumulativeGasUsed": "0xd5886d",
      "logs": [
        {
          "address": "0xcca72677e8fdcc205e2d23a977a63e9660867932",
          "topics": [
            "0xddf252ad1be2c89b69c2b068fc378daa952ba7f163c4a11628f55a4df523b3ef",
            "0x0000000000000000000000000000000000000000000000000000000000000000",
            "0x00000000000000000000000008d811a358850892029251ccc8a565a32fd2dcb8",
            "0x0000000000000000000000000000000000000000000000000000000000000001"
          ],
          "data": "0x",
          "blockHash": "0x1b604b094d4671881a58a6102707891a0f21198ee792e580511f65b3be297535",
          "blockNumber": "0x8dce40",
          "blockTimestamp": "0x68d843e4",
          "transactionHash": "0x6d8f9f7eb00714b59ab56dcd42ee5aae1eee6a120986c85c4f6e34327bdf3232",
          "transactionIndex": "0x53",
          "logIndex": "0xb0",
          "removed": false
        },
        {
          "address": "0xcca72677e8fdcc205e2d23a977a63e9660867932",
          "topics": [
            "0xdd63ea50b8763fea86ab69a5ef1770062cf23f8e8931ebb41322e2cbe474dfa8",
            "0x0000000000000000000000000000000000000000000000000000000000000001",
            "0x00000000000000000000000008d811a358850892029251ccc8a565a32fd2dcb8"
          ],
          "data": "0x000000000000000000000000000000000000000000000000000000000000008000000000000000000000000000000000000000000000000000000000000000e000000000000000000000000000000000000000000000000000000000000f42400000000000000000000000000000000000000000000000000000000000000140000000000000000000000000000000000000000000000000000000000000000200000000000000000000000008d811a358850892029251ccc8a565a32fd2dcb8000000000000000000000000c94d68094fa65e991dffa0a941306e84608761690000000000000000000000000000000000000000000000000000000000000002000000000000000000000000000000000000000000000000000000000007a120000000000000000000000000000000000000000000000000000000000007a1200000000000000000000000000000000000000000000000000000000000000010416c696365202620426f62204769667400000000000000000000000000000000",
          "blockHash": "0x1b604b094d4671881a58a6102707891a0f21198ee792e580511f65b3be297535",
          "blockNumber": "0x8dce40",
          "blockTimestamp": "0x68d843e4",
          "transactionHash": "0x6d8f9f7eb00714b59ab56dcd42ee5aae1eee6a120986c85c4f6e34327bdf3232",
          "transactionIndex": "0x53",
          "logIndex": "0xb1",
          "removed": false
        }
      ],
      "logsBloom": "0x00000100000000000100000000000000000000000000000000000000000000000000080000000000000000000000000000000000000000000000000000040000000000000000040010000008000000000000000001040000000000000000000000000000020000000000000000000800000000000000000000000010000000000000000000000000000000000000000000000000000000000100000000000000000000000000000000000000000000000000000000004000000000000000000000000002000000000000000000000000000000000000000000000000000060000000000000000000000000004000000000000000000000000000000000000000",
      "type": "0x2",
      "transactionHash": "0x6d8f9f7eb00714b59ab56dcd42ee5aae1eee6a120986c85c4f6e34327bdf3232",
      "transactionIndex": "0x53",
      "blockHash": "0x1b604b094d4671881a58a6102707891a0f21198ee792e580511f65b3be297535",
      "blockNumber": "0x8dce40",
      "gasUsed": "0x4453d",
      "effectiveGasPrice": "0x10059d",
      "from": "0x08d811a358850892029251ccc8a565a32fd2dcb8",
      "to": "0xcca72677e8fdcc205e2d23a977a63e9660867932",
      "contractAddress": null
    }
  ],
  "libraries": [],
  "pending": [],
  "returns": {},
  "timestamp": 1759003621,
  "chain": 11155111,
  "commit": "4d6069e"
}