{
  "transactions": [
    {
      "hash": "0x17b6f6c9cbdfb8ccddf598b46538faecb65599da46bbf12b6037692e984b3b15",
      "transactionType": "CALL",
      "contractName": null,
      "contractAddress": "0xcac524bca292aaade2df8a05cc58f0a65b1b3bb9",
      "function": "approve(address,uint256)",
      "arguments": [
        "0x99a6D8F5673DF9D0642e28B16321dCdAc0CD4296",
        "1000001"
      ],
      "transaction": {
        "from": "0x08d811a358850892029251ccc8a565a32fd2dcb8",
        "to": "0xcac524bca292aaade2df8a05cc58f0a65b1b3bb9",
        "gas": "0xd922",
        "value": "0x0",
        "input": "0x095ea7b300000000000000000000000099a6d8f5673df9d0642e28b16321dcdac0cd429600000000000000000000000000000000000000000000000000000000000f4241",
        "nonce": "0x61",
        "chainId": "0xaa36a7"
      },
      "additionalContracts": [],
      "isFixedGasLimit": false
    },
    {
      "hash": "0x3328fdc47f0207e83389f3b0ea85e41a032a0aeb3c165f44619dd852f442866c",
      "transactionType": "CALL",
      "contractName": null,
      "contractAddress": "0x99a6d8f5673df9d0642e28b16321dcdac0cd4296",
      "function": "allocateDonation(uint256[],uint256[])",
      "arguments": [
        "[1, 2]",
        "[500001, 500000]"
      ],
      "transaction": {
        "from": "0x08d811a358850892029251ccc8a565a32fd2dcb8",
        "to": "0x99a6d8f5673df9d0642e28b16321dcdac0cd4296",
        "gas": "0x19498",
        "value": "0x0",
        "input": "0x4a444e57000000000000000000000000000000000000000000000000000000000000004000000000000000000000000000000000000000000000000000000000000000a00000000000000000000000000000000000000000000000000000000000000002000000000000000000000000000000000000000000000000000000000000000100000000000000000000000000000000000000000000000000000000000000020000000000000000000000000000000000000000000000000000000000000002000000000000000000000000000000000000000000000000000000000007a121000000000000000000000000000000000000000000000000000000000007a120",
        "nonce": "0x62",
        "chainId": "0xaa36a7"
      },
      "additionalContracts": [],
      "isFixedGasLimit": false
    },
    {
      "hash": "0xdd779ae7acacc18e1f352a6b738767b0291a4832e4ad43344bc80f1caee72a44",
      "transactionType": "CALL",
      "contractName": null,
      "contractAddress": "0x67212b4c2f2f3e2b15e9bf7f7e63c089a6c0de99",
      "function": "mint(uint256[],uint256,string)",
      "arguments": [
        "[1, 2]",
        "1000001",
        "Alice & Bob Gift (1.0 PYUSD)"
      ],
      "transaction": {
        "from": "0x08d811a358850892029251ccc8a565a32fd2dcb8",
        "to": "0x67212b4c2f2f3e2b15e9bf7f7e63c089a6c0de99",
        "gas": "0x52500",
        "value": "0x0",
        "input": "0x0525a4ab000000000000000000000000000000000000000000000000000000000000006000000000000000000000000000000000000000000000000000000000000f424100000000000000000000000000000000000000000000000000000000000000c0000000000000000000000000000000000000000000000000000000000000000200000000000000000000000000000000000000000000000000000000000000010000000000000000000000000000000000000000000000000000000000000002000000000000000000000000000000000000000000000000000000000000001c416c696365202620426f6220476966742028312e302050595553442900000000",
        "nonce": "0x63",
        "chainId": "0xaa36a7"
      },
      "additionalContracts": [],
      "isFixedGasLimit": false
    }
  ],
  "receipts": [
    {
      "status": "0x1",
      "cumulativeGasUsed": "0x1023f30",
      "logs": [
        {
          "address": "0xcac524bca292aaade2df8a05cc58f0a65b1b3bb9",
          "topics": [
            "0x8c5be1e5ebec7d5bd14f71427d1e84f3dd0314c0f7b2291e5b200ac8c7c3b925",
            "0x00000000000000000000000008d811a358850892029251ccc8a565a32fd2dcb8",
            "0x00000000000000000000000099a6d8f5673df9d0642e28b16321dcdac0cd4296"
          ],
          "data": "0x00000000000000000000000000000000000000000000000000000000000f4241",
          "blockHash": "0xea47dc0d1016ba0706e14df98bedd54a3a032760ddb8112df965e89c2c229f4e",
          "blockNumber": "0x8dc767",
          "blockTimestamp": "0x68d7f11c",
          "transactionHash": "0x17b6f6c9cbdfb8ccddf598b46538faecb65599da46bbf12b6037692e984b3b15",
          "transactionIndex": "0xa4",
          "logIndex": "0xb2",
          "removed": false
        }
      ],
      "logsBloom": "0x00000000000000000100000000000000001000000000000000000000000000000000080040000000000000000000800000000000000000000000000000200000000000000000000000000000000000000000000001000000000000000000000000000000000000000000000000000000000000000000000000000000000000000000000000000000000000000000000000000000000000000000000000000000020000000000000000000000000040000000000000000000000000000000000000000000000000000000000000000000200000000000000000000000000000000010000004000000000000000000000000000000000000000000000000000000",
      "type": "0x2",
      "transactionHash": "0x17b6f6c9cbdfb8ccddf598b46538faecb65599da46bbf12b6037692e984b3b15",
      "transactionIndex": "0xa4",
      "blockHash": "0xea47dc0d1016ba0706e14df98bedd54a3a032760ddb8112df965e89c2c229f4e",
      "blockNumber": "0x8dc767",
      "gasUsed": "0x9d34",
      "effectiveGasPrice": "0xf4249",
      "from": "0x08d811a358850892029251ccc8a565a32fd2dcb8",
      "to": "0xcac524bca292aaade2df8a05cc58f0a65b1b3bb9",
      "contractAddress": null
    },
    {
      "status": "0x1",
      "cumulativeGasUsed": "0x103641c",
      "logs": [
        {
          "address": "0xcac524bca292aaade2df8a05cc58f0a65b1b3bb9",
          "topics": [
            "0xddf252ad1be2c89b69c2b068fc378daa952ba7f163c4a11628f55a4df523b3ef",
            "0x00000000000000000000000008d811a358850892029251ccc8a565a32fd2dcb8",
            "0x00000000000000000000000099a6d8f5673df9d0642e28b16321dcdac0cd4296"
          ],
          "data": "0x00000000000000000000000000000000000000000000000000000000000f4241",
          "blockHash": "0xea47dc0d1016ba0706e14df98bedd54a3a032760ddb8112df965e89c2c229f4e",
          "blockNumber": "0x8dc767",
          "blockTimestamp": "0x68d7f11c",
          "transactionHash": "0x3328fdc47f0207e83389f3b0ea85e41a032a0aeb3c165f44619dd852f442866c",
          "transactionIndex": "0xa5",
          "logIndex": "0xb3",
          "removed": false
        },
        {
          "address": "0x99a6d8f5673df9d0642e28b16321dcdac0cd4296",
          "topics": [
            "0x56d8b0175ac50851747e588707ec43b521ab960e41f6c520744499c33c20026d",
            "0x00000000000000000000000008d811a358850892029251ccc8a565a32fd2dcb8"
          ],
          "data": "0x00000000000000000000000000000000000000000000000000000000000f4241000000000000000000000000000000000000000000000000000000000000006000000000000000000000000000000000000000000000000000000000000000c00000000000000000000000000000000000000000000000000000000000000002000000000000000000000000000000000000000000000000000000000000000100000000000000000000000000000000000000000000000000000000000000020000000000000000000000000000000000000000000000000000000000000002000000000000000000000000000000000000000000000000000000000007a121000000000000000000000000000000000000000000000000000000000007a120",
          "blockHash": "0xea47dc0d1016ba0706e14df98bedd54a3a032760ddb8112df965e89c2c229f4e",
          "blockNumber": "0x8dc767",
          "blockTimestamp": "0x68d7f11c",
          "transactionHash": "0x3328fdc47f0207e83389f3b0ea85e41a032a0aeb3c165f44619dd852f442866c",
          "transactionIndex": "0xa5",
          "logIndex": "0xb4",
          "removed": false
        }
      ],
      "logsBloom": "0x00000000000000000100000000000000001000000000000000000000000000000000080040000000000000000000800000000000010000000000000000000000000000000000000000000008000000000000000001000000000000000000008000000000000000000000000000000000000000000000020000000010000000000000000000000000000000000000000000000000400000040000000000000000000000000000000000000000000040000000000000000000000000000000000000000002000000000000000000000000200000000000000000000000000000000000000004000000000000000000000000000000000000000000020000000000",
      "type": "0x2",
      "transactionHash": "0x3328fdc47f0207e83389f3b0ea85e41a032a0aeb3c165f44619dd852f442866c",
      "transactionIndex": "0xa5",
      "blockHash": "0xea47dc0d1016ba0706e14df98bedd54a3a032760ddb8112df965e89c2c229f4e",
      "blockNumber": "0x8dc767",
      "gasUsed": "0x124ec",
      "effectiveGasPrice": "0xf4249",
      "from": "0x08d811a358850892029251ccc8a565a32fd2dcb8",
      "to": "0x99a6d8f5673df9d0642e28b16321dcdac0cd4296",
      "contractAddress": null
    },
    {
      "status": "0x1",
      "cumulativeGasUsed": "0x1071d99",
      "logs": [
        {
          "address": "0x67212b4c2f2f3e2b15e9bf7f7e63c089a6c0de99",
          "topics": [
            "0xddf252ad1be2c89b69c2b068fc378daa952ba7f163c4a11628f55a4df523b3ef",
            "0x0000000000000000000000000000000000000000000000000000000000000000",
            "0x00000000000000000000000008d811a358850892029251ccc8a565a32fd2dcb8",
            "0x0000000000000000000000000000000000000000000000000000000000000002"
          ],
          "data": "0x",
          "blockHash": "0xea47dc0d1016ba0706e14df98bedd54a3a032760ddb8112df965e89c2c229f4e",
          "blockNumber": "0x8dc767",
          "blockTimestamp": "0x68d7f11c",
          "transactionHash": "0xdd779ae7acacc18e1f352a6b738767b0291a4832e4ad43344bc80f1caee72a44",
          "transactionIndex": "0xa6",
          "logIndex": "0xb5",
          "removed": false
        },
        {
          "address": "0x67212b4c2f2f3e2b15e9bf7f7e63c089a6c0de99",
          "topics": [
            "0xf1fc75ee5568a62c47050c11ce69ace98674df4c34da17f71ae38b3ebd5f6ed2",
            "0x0000000000000000000000000000000000000000000000000000000000000002",
            "0x00000000000000000000000008d811a358850892029251ccc8a565a32fd2dcb8"
          ],
          "data": "0x000000000000000000000000000000000000000000000000000000000000008000000000000000000000000000000000000000000000000000000000000000e000000000000000000000000000000000000000000000000000000000000f424100000000000000000000000000000000000000000000000000000000000001400000000000000000000000000000000000000000000000000000000000000002000000000000000000000000000000000000000000000000000000000000000100000000000000000000000000000000000000000000000000000000000000020000000000000000000000000000000000000000000000000000000000000002000000000000000000000000000000000000000000000000000000000007a121000000000000000000000000000000000000000000000000000000000007a120000000000000000000000000000000000000000000000000000000000000001c416c696365202620426f6220476966742028312e302050595553442900000000",
          "blockHash": "0xea47dc0d1016ba0706e14df98bedd54a3a032760ddb8112df965e89c2c229f4e",
          "blockNumber": "0x8dc767",
          "blockTimestamp": "0x68d7f11c",
          "transactionHash": "0xdd779ae7acacc18e1f352a6b738767b0291a4832e4ad43344bc80f1caee72a44",
          "transactionIndex": "0xa6",
          "logIndex": "0xb6",
          "removed": false
        }
      ],
      "logsBloom": "0x04000000000000200100000000000000000000000000000000000000000000000000080000000100000000000000000000000000000000000000000000000000000000000000000000000008000000000000000001000000000000000000000000000000020000000000000002000800000000000000000000000010000000000000000000000000000000000000000000000000000000020000000000000000000000000000000000000100000000000000000000000000000000000000000000000002000000000000000000000000000000000000000000000000000021000000000008000000000000000000000000000000008000000000000000000000",
      "type": "0x2",
      "transactionHash": "0xdd779ae7acacc18e1f352a6b738767b0291a4832e4ad43344bc80f1caee72a44",
      "transactionIndex": "0xa6",
      "blockHash": "0xea47dc0d1016ba0706e14df98bedd54a3a032760ddb8112df965e89c2c229f4e",
      "blockNumber": "0x8dc767",
      "gasUsed": "0x3b97d",
      "effectiveGasPrice": "0xf4249",
      "from": "0x08d811a358850892029251ccc8a565a32fd2dcb8",
      "to": "0x67212b4c2f2f3e2b15e9bf7f7e63c089a6c0de99",
      "contractAddress": null
    }
  ],
  "libraries": [],
  "pending": [],
  "returns": {},
  "timestamp": 1758982429,
  "chain": 11155111,
  "commit": "7561c8e"
}