{
  "transactions": [
    {
      "hash": "0x4eab60638e446de767cd73d493e9d739b35ae55bf5e316eee00300110571b642",
      "transactionType": "CALL",
      "contractName": null,
      "contractAddress": "0xcac524bca292aaade2df8a05cc58f0a65b1b3bb9",
      "function": "approve(address,uint256)",
      "arguments": [
        "0x99a6D8F5673DF9D0642e28B16321dCdAc0CD4296",
        "1000000"
      ],
      "transaction": {
        "from": "0x08d811a358850892029251ccc8a565a32fd2dcb8",
        "to": "0xcac524bca292aaade2df8a05cc58f0a65b1b3bb9",
        "gas": "0x14481",
        "value": "0x0",
        "input": "0x095ea7b300000000000000000000000099a6d8f5673df9d0642e28b16321dcdac0cd429600000000000000000000000000000000000000000000000000000000000f4240",
        "nonce": "0x5d",
        "chainId": "0xaa36a7"
      },
      "additionalContracts": [],
      "isFixedGasLimit": false
    },
    {
      "hash": "0x49afb91bc34892ff23e141d4fb869b0eca73cdec45cf6b02854de4a940eb35d2",
      "transactionType": "CALL",
      "contractName": null,
      "contractAddress": "0x99a6d8f5673df9d0642e28b16321dcdac0cd4296",
      "function": "allocateDonation(uint256[],uint256[])",
      "arguments": [
        "[1, 2]",
        "[500000, 500000]"
      ],
      "transaction": {
        "from": "0x08d811a358850892029251ccc8a565a32fd2dcb8",
        "to": "0x99a6d8f5673df9d0642e28b16321dcdac0cd4296",
        "gas": "0x2a963",
        "value": "0x0",
        "input": "0x4a444e57000000000000000000000000000000000000000000000000000000000000004000000000000000000000000000000000000000000000000000000000000000a00000000000000000000000000000000000000000000000000000000000000002000000000000000000000000000000000000000000000000000000000000000100000000000000000000000000000000000000000000000000000000000000020000000000000000000000000000000000000000000000000000000000000002000000000000000000000000000000000000000000000000000000000007a120000000000000000000000000000000000000000000000000000000000007a120",
        "nonce": "0x5e",
        "chainId": "0xaa36a7"
      },
      "additionalContracts": [],
      "isFixedGasLimit": false
    },
    {
      "hash": "0xb3965d1715afe63236038224375449d38f680716c8d970654263db51300302c3",
      "transactionType": "CALL",
      "contractName": null,
      "contractAddress": "0x67212b4c2f2f3e2b15e9bf7f7e63c089a6c0de99",
      "function": "mint(uint256[],uint256,string)",
      "arguments": [
        "[1, 2]",
        "1000000",
        "Alice & Bob Gift (1.0 PYUSD)"
      ],
      "transaction": {
        "from": "0x08d811a358850892029251ccc8a565a32fd2dcb8",
        "to": "0x67212b4c2f2f3e2b15e9bf7f7e63c089a6c0de99",
        "gas": "0x5dd93",
        "value": "0x0",
        "input": "0x0525a4ab000000000000000000000000000000000000000000000000000000000000006000000000000000000000000000000000000000000000000000000000000f424000000000000000000000000000000000000000000000000000000000000000c0000000000000000000000000000000000000000000000000000000000000000200000000000000000000000000000000000000000000000000000000000000010000000000000000000000000000000000000000000000000000000000000002000000000000000000000000000000000000000000000000000000000000001c416c696365202620426f6220476966742028312e302050595553442900000000",
        "nonce": "0x5f",
        "chainId": "0xaa36a7"
      },
      "additionalContracts": [],
      "isFixedGasLimit": false
    }
  ],
  "receipts": [
    {
      "status": "0x1",
      "cumulativeGasUsed": "0x14e15b5",
      "logs": [
        {
          "address": "0xcac524bca292aaade2df8a05cc58f0a65b1b3bb9",
          "topics": [
            "0x8c5be1e5ebec7d5bd14f71427d1e84f3dd0314c0f7b2291e5b200ac8c7c3b925",
            "0x00000000000000000000000008d811a358850892029251ccc8a565a32fd2dcb8",
            "0x00000000000000000000000099a6d8f5673df9d0642e28b16321dcdac0cd4296"
          ],
          "data": "0x00000000000000000000000000000000000000000000000000000000000f4240",
          "blockHash": "0xd775137f864abec50cf5362c4e89e5dff0cf06fcc8090c25396c7c6f8bdb9152",
          "blockNumber": "0x8dc75b",
          "blockTimestamp": "0x68d7f08c",
          "transactionHash": "0x4eab60638e446de767cd73d493e9d739b35ae55bf5e316eee00300110571b642",
          "transactionIndex": "0x121",
          "logIndex": "0xe4",
          "removed": false
        }
      ],
      "logsBloom": "0x00000000000000000100000000000000001000000000000000000000000000000000080040000000000000000000800000000000000000000000000000200000000000000000000000000000000000000000000001000000000000000000000000000000000000000000000000000000000000000000000000000000000000000000000000000000000000000000000000000000000000000000000000000000020000000000000000000000000040000000000000000000000000000000000000000000000000000000000000000000200000000000000000000000000000000010000004000000000000000000000000000000000000000000000000000000",
      "type": "0x2",
      "transactionHash": "0x4eab60638e446de767cd73d493e9d739b35ae55bf5e316eee00300110571b642",
      "transactionIndex": "0x121",
      "blockHash": "0xd775137f864abec50cf5362c4e89e5dff0cf06fcc8090c25396c7c6f8bdb9152",
      "blockNumber": "0x8dc75b",
      "gasUsed": "0xeaf0",
      "effectiveGasPrice": "0xf4249",
      "from": "0x08d811a358850892029251ccc8a565a32fd2dcb8",
      "to": "0xcac524bca292aaade2df8a05cc58f0a65b1b3bb9",
      "contractAddress": null
    },
    {
      "status": "0x1",
      "cumulativeGasUsed": "0x1500305",
      "logs": [
        {
          "address": "0xcac524bca292aaade2df8a05cc58f0a65b1b3bb9",
          "topics": [
            "0xddf252ad1be2c89b69c2b068fc378daa952ba7f163c4a11628f55a4df523b3ef",
            "0x00000000000000000000000008d811a358850892029251ccc8a565a32fd2dcb8",
            "0x00000000000000000000000099a6d8f5673df9d0642e28b16321dcdac0cd4296"
          ],
          "data": "0x00000000000000000000000000000000000000000000000000000000000f4240",
          "blockHash": "0xd775137f864abec50cf5362c4e89e5dff0cf06fcc8090c25396c7c6f8bdb9152",
          "blockNumber": "0x8dc75b",
          "blockTimestamp": "0x68d7f08c",
          "transactionHash": "0x49afb91bc34892ff23e141d4fb869b0eca73cdec45cf6b02854de4a940eb35d2",
          "transactionIndex": "0x122",
          "logIndex": "0xe5",
          "removed": false
        },
        {
          "address": "0x99a6d8f5673df9d0642e28b16321dcdac0cd4296",
          "topics": [
            "0x56d8b0175ac50851747e588707ec43b521ab960e41f6c520744499c33c20026d",
            "0x00000000000000000000000008d811a358850892029251ccc8a565a32fd2dcb8"
          ],
          "data": "0x00000000000000000000000000000000000000000000000000000000000f4240000000000000000000000000000000000000000000000000000000000000006000000000000000000000000000000000000000000000000000000000000000c00000000000000000000000000000000000000000000000000000000000000002000000000000000000000000000000000000000000000000000000000000000100000000000000000000000000000000000000000000000000000000000000020000000000000000000000000000000000000000000000000000000000000002000000000000000000000000000000000000000000000000000000000007a120000000000000000000000000000000000000000000000000000000000007a120",
          "blockHash": "0xd775137f864abec50cf5362c4e89e5dff0cf06fcc8090c25396c7c6f8bdb9152",
          "blockNumber": "0x8dc75b",
          "blockTimestamp": "0x68d7f08c",
          "transactionHash": "0x49afb91bc34892ff23e141d4fb869b0eca73cdec45cf6b02854de4a940eb35d2",
          "transactionIndex": "0x122",
          "logIndex": "0xe6",
          "removed": false
        }
      ],
      "logsBloom": "0x00000000000000000100000000000000001000000000000000000000000000000000080040000000000000000000800000000000010000000000000000000000000000000000000000000008000000000000000001000000000000000000008000000000000000000000000000000000000000000000020000000010000000000000000000000000000000000000000000000000400000040000000000000000000000000000000000000000000040000000000000000000000000000000000000000002000000000000000000000000200000000000000000000000000000000000000004000000000000000000000000000000000000000000020000000000",
      "type": "0x2",
      "transactionHash": "0x49afb91bc34892ff23e141d4fb869b0eca73cdec45cf6b02854de4a940eb35d2",
      "transactionIndex": "0x122",
      "blockHash": "0xd775137f864abec50cf5362c4e89e5dff0cf06fcc8090c25396c7c6f8bdb9152",
      "blockNumber": "0x8dc75b",
      "gasUsed": "0x1ed50",
      "effectiveGasPrice": "0xf4249",
      "from": "0x08d811a358850892029251ccc8a565a32fd2dcb8",
      "to": "0x99a6d8f5673df9d0642e28b16321dcdac0cd4296",
      "contractAddress": null
    },
    {
      "status": "0x1",
      "cumulativeGasUsed": "0x1544223",
      "logs": [
        {
          "address": "0x67212b4c2f2f3e2b15e9bf7f7e63c089a6c0de99",
          "topics": [
            "0xddf252ad1be2c89b69c2b068fc378daa952ba7f163c4a11628f55a4df523b3ef",
            "0x0000000000000000000000000000000000000000000000000000000000000000",
            "0x00000000000000000000000008d811a358850892029251ccc8a565a32fd2dcb8",
            "0x0000000000000000000000000000000000000000000000000000000000000001"
          ],
          "data": "0x",
          "blockHash": "0xd775137f864abec50cf5362c4e89e5dff0cf06fcc8090c25396c7c6f8bdb9152",
          "blockNumber": "0x8dc75b",
          "blockTimestamp": "0x68d7f08c",
          "transactionHash": "0xb3965d1715afe63236038224375449d38f680716c8d970654263db51300302c3",
          "transactionIndex": "0x123",
          "logIndex": "0xe7",
          "removed": false
        },
        {
          "address": "0x67212b4c2f2f3e2b15e9bf7f7e63c089a6c0de99",
          "topics": [
            "0xf1fc75ee5568a62c47050c11ce69ace98674df4c34da17f71ae38b3ebd5f6ed2",
            "0x0000000000000000000000000000000000000000000000000000000000000001",
            "0x00000000000000000000000008d811a358850892029251ccc8a565a32fd2dcb8"
          ],
          "data": "0x000000000000000000000000000000000000000000000000000000000000008000000000000000000000000000000000000000000000000000000000000000e000000000000000000000000000000000000000000000000000000000000f424000000000000000000000000000000000000000000000000000000000000001400000000000000000000000000000000000000000000000000000000000000002000000000000000000000000000000000000000000000000000000000000000100000000000000000000000000000000000000000000000000000000000000020000000000000000000000000000000000000000000000000000000000000002000000000000000000000000000000000000000000000000000000000007a120000000000000000000000000000000000000000000000000000000000007a120000000000000000000000000000000000000000000000000000000000000001c416c696365202620426f6220476966742028312e302050595553442900000000",
          "blockHash": "0xd775137f864abec50cf5362c4e89e5dff0cf06fcc8090c25396c7c6f8bdb9152",
          "blockNumber": "0x8dc75b",
          "blockTimestamp": "0x68d7f08c",
          "transactionHash": "0xb3965d1715afe63236038224375449d38f680716c8d970654263db51300302c3",
          "transactionIndex": "0x123",
          "logIndex": "0xe8",
          "removed": false
        }
      ],
      "logsBloom": "0x00000000000000200100000000000000000000000000000000000000000000000000080000000100000000000000000000000000000000000000000000040000000000000000000000000008000000000000000001040000000000000000000000000000020000000000000002000800000000000000000000000010000000000000000000000000000000000000000000000000000000020000000000000000000000000000000000000000000000000000000000000000000000000000000000000002000000000000000000000000000000000000000000000000000061000000000008000000000000000000000000000000000000000000000000000000",
      "type": "0x2",
      "transactionHash": "0xb3965d1715afe63236038224375449d38f680716c8d970654263db51300302c3",
      "transactionIndex": "0x123",
      "blockHash": "0xd775137f864abec50cf5362c4e89e5dff0cf06fcc8090c25396c7c6f8bdb9152",
      "blockNumber": "0x8dc75b",
      "gasUsed": "0x43f1e",
      "effectiveGasPrice": "0xf4249",
      "from": "0x08d811a358850892029251ccc8a565a32fd2dcb8",
      "to": "0x67212b4c2f2f3e2b15e9bf7f7e63c089a6c0de99",
      "contractAddress": null
    }
  ],
  "libraries": [],
  "pending": [],
  "returns": {},
  "timestamp": 1758982285,
  "chain": 11155111,
  "commit": "7561c8e"
}