{
  "transactions": [
    {
      "hash": "0x952846c3b3e2d7705182aa4c584b28c97b33d6b4dc952038942668721e1738d1",
      "transactionType": "CALL",
      "contractName": null,
      "contractAddress": "0xcac524bca292aaade2df8a05cc58f0a65b1b3bb9",
      "function": "approve(address,uint256)",
      "arguments": [
        "0x66ff1C4395228F6da5785841776960C9d31c7284",
        "1000000"
      ],
      "transaction": {
        "from": "0x08d811a358850892029251ccc8a565a32fd2dcb8",
        "to": "0xcac524bca292aaade2df8a05cc58f0a65b1b3bb9",
        "gas": "0xd922",
        "value": "0x0",
        "input": "0x095ea7b300000000000000000000000066ff1c4395228f6da5785841776960c9d31c728400000000000000000000000000000000000000000000000000000000000f4240",
        "nonce": "0x54",
        "chainId": "0xaa36a7"
      },
      "additionalContracts": [],
      "isFixedGasLimit": false
    },
    {
      "hash": "0xb6298c892d44d2da14da218298359d4871ac4070bf2cd2309b3981f253a7a4fd",
      "transactionType": "CALL",
      "contractName": null,
      "contractAddress": "0x66ff1c4395228f6da5785841776960c9d31c7284",
      "function": "allocateDonation(uint256[],uint256[])",
      "arguments": [
        "[1, 2]",
        "[500000, 500000]"
      ],
      "transaction": {
        "from": "0x08d811a358850892029251ccc8a565a32fd2dcb8",
        "to": "0x66ff1c4395228f6da5785841776960c9d31c7284",
        "gas": "0x2d1a9",
        "value": "0x0",
        "input": "0x4a444e57000000000000000000000000000000000000000000000000000000000000004000000000000000000000000000000000000000000000000000000000000000a00000000000000000000000000000000000000000000000000000000000000002000000000000000000000000000000000000000000000000000000000000000100000000000000000000000000000000000000000000000000000000000000020000000000000000000000000000000000000000000000000000000000000002000000000000000000000000000000000000000000000000000000000007a120000000000000000000000000000000000000000000000000000000000007a120",
        "nonce": "0x55",
        "chainId": "0xaa36a7"
      },
      "additionalContracts": [],
      "isFixedGasLimit": false
    },
    {
      "hash": "0x45032992ff1ae4d7f254ed08b289c62a110a8ffb541b3944fe88e5570d11088f",
      "transactionType": "CALL",
      "contractName": null,
      "contractAddress": "0x0b6eef56823a19bd13b9f60cefd6156fd7574ade",
      "function": "mint(uint256[],uint256[],uint256,string)",
      "arguments": [
        "[1, 2]",
        "[500000, 500000]",
        "1000000",
        "Alice & Bob Gift"
      ],
      "transaction": {
        "from": "0x08d811a358850892029251ccc8a565a32fd2dcb8",
        "to": "0x0b6eef56823a19bd13b9f60cefd6156fd7574ade",
        "gas": "0x5db8a",
        "value": "0x0",
        "input": "0xf84d9be0000000000000000000000000000000000000000000000000000000000000008000000000000000000000000000000000000000000000000000000000000000e000000000000000000000000000000000000000000000000000000000000f424000000000000000000000000000000000000000000000000000000000000001400000000000000000000000000000000000000000000000000000000000000002000000000000000000000000000000000000000000000000000000000000000100000000000000000000000000000000000000000000000000000000000000020000000000000000000000000000000000000000000000000000000000000002000000000000000000000000000000000000000000000000000000000007a120000000000000000000000000000000000000000000000000000000000007a1200000000000000000000000000000000000000000000000000000000000000010416c696365202620426f62204769667400000000000000000000000000000000",
        "nonce": "0x56",
        "chainId": "0xaa36a7"
      },
      "additionalContracts": [],
      "isFixedGasLimit": false
    }
  ],
  "receipts": [
    {
      "status": "0x1",
      "cumulativeGasUsed": "0x169cfb2",
      "logs": [
        {
          "address": "0xcac524bca292aaade2df8a05cc58f0a65b1b3bb9",
          "topics": [
            "0x8c5be1e5ebec7d5bd14f71427d1e84f3dd0314c0f7b2291e5b200ac8c7c3b925",
            "0x00000000000000000000000008d811a358850892029251ccc8a565a32fd2dcb8",
            "0x00000000000000000000000066ff1c4395228f6da5785841776960c9d31c7284"
          ],
          "data": "0x00000000000000000000000000000000000000000000000000000000000f4240",
          "blockHash": "0xeef9325c0f20ad0cfa732166f2d02b21d5932f9e0aec0dd2c4f88501905484a3",
          "blockNumber": "0x8dc681",
          "blockTimestamp": "0x68d7e648",
          "transactionHash": "0x952846c3b3e2d7705182aa4c584b28c97b33d6b4dc952038942668721e1738d1",
          "transactionIndex": "0x9a",
          "logIndex": "0xf9",
          "removed": false
        }
      ],
      "logsBloom": "0x00000000000000000100000000000000000000000000000000000000000000000000080000000000000000000000800000000000000000000000000000200000000000000000000000000000000000000000000001000000000000000000000000000000000000000000000000000000000000000000020400000000000000000000000000000000000000000000000000000000000000000000000000080000020000000000000000000000000040000000000000000000000000000000000000000000000000000000000000000000200000000000000000000000000000000010000000000000000000000000000000000000000000000000000000000000",
      "type": "0x2",
      "transactionHash": "0x952846c3b3e2d7705182aa4c584b28c97b33d6b4dc952038942668721e1738d1",
      "transactionIndex": "0x9a",
      "blockHash": "0xeef9325c0f20ad0cfa732166f2d02b21d5932f9e0aec0dd2c4f88501905484a3",
      "blockNumber": "0x8dc681",
      "gasUsed": "0x9d34",
      "effectiveGasPrice": "0xf424b",
      "from": "0x08d811a358850892029251ccc8a565a32fd2dcb8",
      "to": "0xcac524bca292aaade2df8a05cc58f0a65b1b3bb9",
      "contractAddress": null
    },
    {
      "status": "0x1",
      "cumulativeGasUsed": "0x16bbd24",
      "logs": [
        {
          "address": "0xcac524bca292aaade2df8a05cc58f0a65b1b3bb9",
          "topics": [
            "0xddf252ad1be2c89b69c2b068fc378daa952ba7f163c4a11628f55a4df523b3ef",
            "0x00000000000000000000000008d811a358850892029251ccc8a565a32fd2dcb8",
            "0x00000000000000000000000066ff1c4395228f6da5785841776960c9d31c7284"
          ],
          "data": "0x00000000000000000000000000000000000000000000000000000000000f4240",
          "blockHash": "0xeef9325c0f20ad0cfa732166f2d02b21d5932f9e0aec0dd2c4f88501905484a3",
          "blockNumber": "0x8dc681",
          "blockTimestamp": "0x68d7e648",
          "transactionHash": "0xb6298c892d44d2da14da218298359d4871ac4070bf2cd2309b3981f253a7a4fd",
          "transactionIndex": "0x9b",
          "logIndex": "0xfa",
          "removed": false
        },
        {
          "address": "0x66ff1c4395228f6da5785841776960c9d31c7284",
          "topics": [
            "0x56d8b0175ac50851747e588707ec43b521ab960e41f6c520744499c33c20026d",
            "0x00000000000000000000000008d811a358850892029251ccc8a565a32fd2dcb8"
          ],
          "data": "0x00000000000000000000000000000000000000000000000000000000000f4240000000000000000000000000000000000000000000000000000000000000006000000000000000000000000000000000000000000000000000000000000000c00000000000000000000000000000000000000000000000000000000000000002000000000000000000000000000000000000000000000000000000000000000100000000000000000000000000000000000000000000000000000000000000020000000000000000000000000000000000000000000000000000000000000002000000000000000000000000000000000000000000000000000000000007a120000000000000000000000000000000000000000000000000000000000007a120",
          "blockHash": "0xeef9325c0f20ad0cfa732166f2d02b21d5932f9e0aec0dd2c4f88501905484a3",
          "blockNumber": "0x8dc681",
          "blockTimestamp": "0x68d7e648",
          "transactionHash": "0xb6298c892d44d2da14da218298359d4871ac4070bf2cd2309b3981f253a7a4fd",
          "transactionIndex": "0x9b",
          "logIndex": "0xfb",
          "removed": false
        }
      ],
      "logsBloom": "0x00000000000000000100000000000000000000000000000000000000000000000000080080000000000000000000800000000000000000000000000000000000000000000000000000000008000000000000000001000000000000000000008000000000000000000000400000000000000000000000020400000010000000000000000000000000000000000000000000000000400000000000000000080000000000000000000000000000000040000000000000000000000000000000000000000002000000000000000000000000200000000000080000000000000000000000000000000000000000000000000000000000000000000000020000000000",
      "type": "0x2",
      "transactionHash": "0xb6298c892d44d2da14da218298359d4871ac4070bf2cd2309b3981f253a7a4fd",
      "transactionIndex": "0x9b",
      "blockHash": "0xeef9325c0f20ad0cfa732166f2d02b21d5932f9e0aec0dd2c4f88501905484a3",
      "blockNumber": "0x8dc681",
      "gasUsed": "0x1ed72",
      "effectiveGasPrice": "0xf424b",
      "from": "0x08d811a358850892029251ccc8a565a32fd2dcb8",
      "to": "0x66ff1c4395228f6da5785841776960c9d31c7284",
      "contractAddress": null
    },
    {
      "status": "0x1",
      "cumulativeGasUsed": "0x16ffac8",
      "logs": [
        {
          "address": "0x0b6eef56823a19bd13b9f60cefd6156fd7574ade",
          "topics": [
            "0xddf252ad1be2c89b69c2b068fc378daa952ba7f163c4a11628f55a4df523b3ef",
            "0x0000000000000000000000000000000000000000000000000000000000000000",
            "0x00000000000000000000000008d811a358850892029251ccc8a565a32fd2dcb8",
            "0x0000000000000000000000000000000000000000000000000000000000000001"
          ],
          "data": "0x",
          "blockHash": "0xeef9325c0f20ad0cfa732166f2d02b21d5932f9e0aec0dd2c4f88501905484a3",
          "blockNumber": "0x8dc681",
          "blockTimestamp": "0x68d7e648",
          "transactionHash": "0x45032992ff1ae4d7f254ed08b289c62a110a8ffb541b3944fe88e5570d11088f",
          "transactionIndex": "0x9c",
          "logIndex": "0xfc",
          "removed": false
        },
        {
          "address": "0x0b6eef56823a19bd13b9f60cefd6156fd7574ade",
          "topics": [
            "0xf1fc75ee5568a62c47050c11ce69ace98674df4c34da17f71ae38b3ebd5f6ed2",
            "0x0000000000000000000000000000000000000000000000000000000000000001",
            "0x00000000000000000000000008d811a358850892029251ccc8a565a32fd2dcb8"
          ],
          "data": "0x000000000000000000000000000000000000000000000000000000000000008000000000000000000000000000000000000000000000000000000000000000e000000000000000000000000000000000000000000000000000000000000f424000000000000000000000000000000000000000000000000000000000000001400000000000000000000000000000000000000000000000000000000000000002000000000000000000000000000000000000000000000000000000000000000100000000000000000000000000000000000000000000000000000000000000020000000000000000000000000000000000000000000000000000000000000002000000000000000000000000000000000000000000000000000000000007a120000000000000000000000000000000000000000000000000000000000007a1200000000000000000000000000000000000000000000000000000000000000010416c696365202620426f62204769667400000000000000000000000000000000",
          "blockHash": "0xeef9325c0f20ad0cfa732166f2d02b21d5932f9e0aec0dd2c4f88501905484a3",
          "blockNumber": "0x8dc681",
          "blockTimestamp": "0x68d7e648",
          "transactionHash": "0x45032992ff1ae4d7f254ed08b289c62a110a8ffb541b3944fe88e5570d11088f",
          "transactionIndex": "0x9c",
          "logIndex": "0xfd",
          "removed": false
        }
      ],
      "logsBloom": "0x00000000000000200100000000000000000000000000000000000000000000000000080002000100000000000000000000000000000000000000000000040000000000000000000000000008000000000000000001040000000000000000000000000000020000000000800000000800000000000080000000000010000000000000000000000000000000000000000000000000000000020000000000000000000000000000000000000000000000000000000000000000000000000000000000000002000000000000000000000000000000000000000000000000000060000000000000000000000000000000000000000000000000000000000000000000",
      "type": "0x2",
      "transactionHash": "0x45032992ff1ae4d7f254ed08b289c62a110a8ffb541b3944fe88e5570d11088f",
      "transactionIndex": "0x9c",
      "blockHash": "0xeef9325c0f20ad0cfa732166f2d02b21d5932f9e0aec0dd2c4f88501905484a3",
      "blockNumber": "0x8dc681",
      "gasUsed": "0x43da4",
      "effectiveGasPrice": "0xf424b",
      "from": "0x08d811a358850892029251ccc8a565a32fd2dcb8",
      "to": "0x0b6eef56823a19bd13b9f60cefd6156fd7574ade",
      "contractAddress": null
    }
  ],
  "libraries": [],
  "pending": [],
  "returns": {},
  "timestamp": 1758979657,
  "chain": 11155111,
  "commit": "829118b"
}