{
  "transactions": [
    {
      "hash": "0x7a19e34076fe300799b20ad1f824d4b43e2760c898ad5571ae263a4b8cf37bc2",
      "transactionType": "CALL",
      "contractName": null,
      "contractAddress": "0xcac524bca292aaade2df8a05cc58f0a65b1b3bb9",
      "function": "approve(address,uint256)",
      "arguments": [
        "0x783140003cFF6C06B230937707eB5222186F0118",
        "10000000"
      ],
      "transaction": {
        "from": "0x08d811a358850892029251ccc8a565a32fd2dcb8",
        "to": "0xcac524bca292aaade2df8a05cc58f0a65b1b3bb9",
        "gas": "0xd911",
        "value": "0x0",
        "input": "0x095ea7b3000000000000000000000000783140003cff6c06b230937707eb5222186f01180000000000000000000000000000000000000000000000000000000000989680",
        "nonce": "0x47",
        "chainId": "0xaa36a7"
      },
      "additionalContracts": [],
      "isFixedGasLimit": false
    },
    {
      "hash": "0x68b78f3a98e170e09bd4784c072a7e0eb0da26488eb2774a922ffddbc615f184",
      "transactionType": "CALL",
      "contractName": null,
      "contractAddress": "0x783140003cff6c06b230937707eb5222186f0118",
      "function": "allocateDonation(uint256[],uint256[])",
      "arguments": [
        "[1, 2]",
        "[5000000, 5000000]"
      ],
      "transaction": {
        "from": "0x08d811a358850892029251ccc8a565a32fd2dcb8",
        "to": "0x783140003cff6c06b230937707eb5222186f0118",
        "gas": "0x2a9d9",
        "value": "0x0",
        "input": "0x4a444e57000000000000000000000000000000000000000000000000000000000000004000000000000000000000000000000000000000000000000000000000000000a0000000000000000000000000000000000000000000000000000000000000000200000000000000000000000000000000000000000000000000000000000000010000000000000000000000000000000000000000000000000000000000000002000000000000000000000000000000000000000000000000000000000000000200000000000000000000000000000000000000000000000000000000004c4b4000000000000000000000000000000000000000000000000000000000004c4b40",
        "nonce": "0x48",
        "chainId": "0xaa36a7"
      },
      "additionalContracts": [],
      "isFixedGasLimit": false
    },
    {
      "hash": "0xe6d3565b4fac4c41cb6e43ec576cb6d5c969496adc18a4bc9eed8201e3f7c81d",
      "transactionType": "CALL",
      "contractName": null,
      "contractAddress": "0xf12e687e89c5d91b0a8aa7c4bfe532bb4a7c5299",
      "function": "mint(uint256[],uint256[],uint256,string)",
      "arguments": [
        "[1, 2]",
        "[5000000, 5000000]",
        "10000000",
        "Alice & Bob Gift"
      ],
      "transaction": {
        "from": "0x08d811a358850892029251ccc8a565a32fd2dcb8",
        "to": "0xf12e687e89c5d91b0a8aa7c4bfe532bb4a7c5299",
        "gas": "0x63399",
        "value": "0x0",
        "input": "0xf84d9be0000000000000000000000000000000000000000000000000000000000000008000000000000000000000000000000000000000000000000000000000000000e000000000000000000000000000000000000000000000000000000000009896800000000000000000000000000000000000000000000000000000000000000140000000000000000000000000000000000000000000000000000000000000000200000000000000000000000000000000000000000000000000000000000000010000000000000000000000000000000000000000000000000000000000000002000000000000000000000000000000000000000000000000000000000000000200000000000000000000000000000000000000000000000000000000004c4b4000000000000000000000000000000000000000000000000000000000004c4b400000000000000000000000000000000000000000000000000000000000000010416c696365202620426f62204769667400000000000000000000000000000000",
        "nonce": "0x49",
        "chainId": "0xaa36a7"
      },
      "additionalContracts": [],
      "isFixedGasLimit": false
    }
  ],
  "receipts": [
    {
      "status": "0x1",
      "cumulativeGasUsed": "0xa7b3f4",
      "logs": [
        {
          "address": "0xcac524bca292aaade2df8a05cc58f0a65b1b3bb9",
          "topics": [
            "0x8c5be1e5ebec7d5bd14f71427d1e84f3dd0314c0f7b2291e5b200ac8c7c3b925",
            "0x00000000000000000000000008d811a358850892029251ccc8a565a32fd2dcb8",
            "0x000000000000000000000000783140003cff6c06b230937707eb5222186f0118"
          ],
          "data": "0x0000000000000000000000000000000000000000000000000000000000989680",
          "blockHash": "0xdb54c5a5c9b7154a74b044af3c0b32d380ef13743c1d822db8484200876cec97",
          "blockNumber": "0x8dc550",
          "blockTimestamp": "0x68d7d79c",
          "transactionHash": "0x7a19e34076fe300799b20ad1f824d4b43e2760c898ad5571ae263a4b8cf37bc2",
          "transactionIndex": "0x10e",
          "logIndex": "0x75",
          "removed": false
        }
      ],
      "logsBloom": "0x00000000000000000100000000000000000000000000000000000000000000000000080000000000000000000000800000000000000000000000000000200000000000000000000000000000000000000000000201000000000000000000000000004000000000000000000000000000000000000000000000000000000000000000000000000000000000000000000000000000000000000020000000000000020000000000000000000000000040000000000000000000000000000000000000000000000000000000000000000000200000000000000000000000000000000010000000000000000000000000000000000000000000000000000000000000",
      "type": "0x2",
      "transactionHash": "0x7a19e34076fe300799b20ad1f824d4b43e2760c898ad5571ae263a4b8cf37bc2",
      "transactionIndex": "0x10e",
      "blockHash": "0xdb54c5a5c9b7154a74b044af3c0b32d380ef13743c1d822db8484200876cec97",
      "blockNumber": "0x8dc550",
      "gasUsed": "0x9d28",
      "effectiveGasPrice": "0xf4250",
      "from": "0x08d811a358850892029251ccc8a565a32fd2dcb8",
      "to": "0xcac524bca292aaade2df8a05cc58f0a65b1b3bb9",
      "contractAddress": null
    },
    {
      "status": "0x1",
      "cumulativeGasUsed": "0xa9a19a",
      "logs": [
        {
          "address": "0xcac524bca292aaade2df8a05cc58f0a65b1b3bb9",
          "topics": [
            "0xddf252ad1be2c89b69c2b068fc378daa952ba7f163c4a11628f55a4df523b3ef",
            "0x00000000000000000000000008d811a358850892029251ccc8a565a32fd2dcb8",
            "0x000000000000000000000000783140003cff6c06b230937707eb5222186f0118"
          ],
          "data": "0x0000000000000000000000000000000000000000000000000000000000989680",
          "blockHash": "0xdb54c5a5c9b7154a74b044af3c0b32d380ef13743c1d822db8484200876cec97",
          "blockNumber": "0x8dc550",
          "blockTimestamp": "0x68d7d79c",
          "transactionHash": "0x68b78f3a98e170e09bd4784c072a7e0eb0da26488eb2774a922ffddbc615f184",
          "transactionIndex": "0x10f",
          "logIndex": "0x76",
          "removed": false
        },
        {
          "address": "0x783140003cff6c06b230937707eb5222186f0118",
          "topics": [
            "0x56d8b0175ac50851747e588707ec43b521ab960e41f6c520744499c33c20026d",
            "0x00000000000000000000000008d811a358850892029251ccc8a565a32fd2dcb8"
          ],
          "data": "0x0000000000000000000000000000000000000000000000000000000000989680000000000000000000000000000000000000000000000000000000000000006000000000000000000000000000000000000000000000000000000000000000c0000000000000000000000000000000000000000000000000000000000000000200000000000000000000000000000000000000000000000000000000000000010000000000000000000000000000000000000000000000000000000000000002000000000000000000000000000000000000000000000000000000000000000200000000000000000000000000000000000000000000000000000000004c4b4000000000000000000000000000000000000000000000000000000000004c4b40",
          "blockHash": "0xdb54c5a5c9b7154a74b044af3c0b32d380ef13743c1d822db8484200876cec97",
          "blockNumber": "0x8dc550",
          "blockTimestamp": "0x68d7d79c",
          "transactionHash": "0x68b78f3a98e170e09bd4784c072a7e0eb0da26488eb2774a922ffddbc615f184",
          "transactionIndex": "0x10f",
          "logIndex": "0x77",
          "removed": false
        }
      ],
      "logsBloom": "0x00000000000000000100000000000000000000000000000000000000000000000000080000000000000000010000800000000000000000000000000000000000000000000100000000000008000000000000000201000000000000000000008000004000000000000000000000000000000000000000000000000010000000000000000000000000000000000000000000000000400000000020000000000000000000000000000000000000000040000000000000000000000000000000000000000002000001000000000000000000200000000000000000000000000000000000000000000000000000000000000000000000000000000000020000000000",
      "type": "0x2",
      "transactionHash": "0x68b78f3a98e170e09bd4784c072a7e0eb0da26488eb2774a922ffddbc615f184",
      "transactionIndex": "0x10f",
      "blockHash": "0xdb54c5a5c9b7154a74b044af3c0b32d380ef13743c1d822db8484200876cec97",
      "blockNumber": "0x8dc550",
      "gasUsed": "0x1eda6",
      "effectiveGasPrice": "0xf4250",
      "from": "0x08d811a358850892029251ccc8a565a32fd2dcb8",
      "to": "0x783140003cff6c06b230937707eb5222186f0118",
      "contractAddress": null
    },
    {
      "status": "0x1",
      "cumulativeGasUsed": "0xaddf24",
      "logs": [
        {
          "address": "0xf12e687e89c5d91b0a8aa7c4bfe532bb4a7c5299",
          "topics": [
            "0xddf252ad1be2c89b69c2b068fc378daa952ba7f163c4a11628f55a4df523b3ef",
            "0x0000000000000000000000000000000000000000000000000000000000000000",
            "0x00000000000000000000000008d811a358850892029251ccc8a565a32fd2dcb8",
            "0x0000000000000000000000000000000000000000000000000000000000000001"
          ],
          "data": "0x",
          "blockHash": "0xdb54c5a5c9b7154a74b044af3c0b32d380ef13743c1d822db8484200876cec97",
          "blockNumber": "0x8dc550",
          "blockTimestamp": "0x68d7d79c",
          "transactionHash": "0xe6d3565b4fac4c41cb6e43ec576cb6d5c969496adc18a4bc9eed8201e3f7c81d",
          "transactionIndex": "0x110",
          "logIndex": "0x78",
          "removed": false
        },
        {
          "address": "0xf12e687e89c5d91b0a8aa7c4bfe532bb4a7c5299",
          "topics": [
            "0xf1fc75ee5568a62c47050c11ce69ace98674df4c34da17f71ae38b3ebd5f6ed2",
            "0x0000000000000000000000000000000000000000000000000000000000000001",
            "0x00000000000000000000000008d811a358850892029251ccc8a565a32fd2dcb8"
          ],
          "data": "0x000000000000000000000000000000000000000000000000000000000000008000000000000000000000000000000000000000000000000000000000000000e000000000000000000000000000000000000000000000000000000000009896800000000000000000000000000000000000000000000000000000000000000140000000000000000000000000000000000000000000000000000000000000000200000000000000000000000000000000000000000000000000000000000000010000000000000000000000000000000000000000000000000000000000000002000000000000000000000000000000000000000000000000000000000000000200000000000000000000000000000000000000000000000000000000004c4b4000000000000000000000000000000000000000000000000000000000004c4b400000000000000000000000000000000000000000000000000000000000000010416c696365202620426f62204769667400000000000000000000000000000000",
          "blockHash": "0xdb54c5a5c9b7154a74b044af3c0b32d380ef13743c1d822db8484200876cec97",
          "blockNumber": "0x8dc550",
          "blockTimestamp": "0x68d7d79c",
          "transactionHash": "0xe6d3565b4fac4c41cb6e43ec576cb6d5c969496adc18a4bc9eed8201e3f7c81d",
          "transactionIndex": "0x110",
          "logIndex": "0x79",
          "removed": false
        }
      ],
      "logsBloom": "0x00000000000000200100000000000000000000000000000000000000000000000000080000000100000000000000000000000000000000000000000000040000000000000000000000000008000000000000000001040000000000000000000000000000020000000000000000000800000000000000000000000010800000000000000000000000000000000000000000000000000000020000000000000000000000000000000800000000000000000000000000000000000004000000000000000002000000000000000000000000000000000000000000000000000060000000000000000000000000000000000000000000000000000000000000000000",
      "type": "0x2",
      "transactionHash": "0xe6d3565b4fac4c41cb6e43ec576cb6d5c969496adc18a4bc9eed8201e3f7c81d",
      "transactionIndex": "0x110",
      "blockHash": "0xdb54c5a5c9b7154a74b044af3c0b32d380ef13743c1d822db8484200876cec97",
      "blockNumber": "0x8dc550",
      "gasUsed": "0x43d8a",
      "effectiveGasPrice": "0xf4250",
      "from": "0x08d811a358850892029251ccc8a565a32fd2dcb8",
      "to": "0xf12e687e89c5d91b0a8aa7c4bfe532bb4a7c5299",
      "contractAddress": null
    }
  ],
  "libraries": [],
  "pending": [],
  "returns": {},
  "timestamp": 1758975901,
  "chain": 11155111,
  "commit": "54cecf0"
}