{
  "transactions": [
    {
      "hash": "0x65682e0a9d665df205ea184a7af1205e5d83ee5c2b953dddb0afe5acdbb62ecc",
      "transactionType": "CALL",
      "contractName": null,
      "contractAddress": "0xcac524bca292aaade2df8a05cc58f0a65b1b3bb9",
      "function": "approve(address,uint256)",
      "arguments": [
        "0x3b0A046E1d54cD64Bb308cA6129fFF066ba3718B",
        "10000000"
      ],
      "transaction": {
        "from": "0x08d811a358850892029251ccc8a565a32fd2dcb8",
        "to": "0xcac524bca292aaade2df8a05cc58f0a65b1b3bb9",
        "gas": "0xd922",
        "value": "0x0",
        "input": "0x095ea7b30000000000000000000000003b0a046e1d54cd64bb308ca6129fff066ba3718b0000000000000000000000000000000000000000000000000000000000989680",
        "nonce": "0x3e",
        "chainId": "0xaa36a7"
      },
      "additionalContracts": [],
      "isFixedGasLimit": false
    },
    {
      "hash": "0x1d371f65486c9c96e0b9ded26471d092706fe30cab6e00825eae5665862464f2",
      "transactionType": "CALL",
      "contractName": null,
      "contractAddress": "0x3b0a046e1d54cd64bb308ca6129fff066ba3718b",
      "function": "mint(uint256,uint256)",
      "arguments": [
        "1",
        "5000000"
      ],
      "transaction": {
        "from": "0x08d811a358850892029251ccc8a565a32fd2dcb8",
        "to": "0x3b0a046e1d54cd64bb308ca6129fff066ba3718b",
        "gas": "0x31b61",
        "value": "0x0",
        "input": "0x1b2ef1ca000000000000000000000000000000000000000000000000000000000000000100000000000000000000000000000000000000000000000000000000004c4b40",
        "nonce": "0x3f",
        "chainId": "0xaa36a7"
      },
      "additionalContracts": [],
      "isFixedGasLimit": false
    },
    {
      "hash": "0xe082bd84e649a0473aa5c39b8de37ea93e6975b18d73e97f9c7720062c5563d1",
      "transactionType": "CALL",
      "contractName": null,
      "contractAddress": "0x3b0a046e1d54cd64bb308ca6129fff066ba3718b",
      "function": "mint(uint256,uint256)",
      "arguments": [
        "2",
        "5000000"
      ],
      "transaction": {
        "from": "0x08d811a358850892029251ccc8a565a32fd2dcb8",
        "to": "0x3b0a046e1d54cd64bb308ca6129fff066ba3718b",
        "gas": "0x35dbf",
        "value": "0x0",
        "input": "0x1b2ef1ca000000000000000000000000000000000000000000000000000000000000000200000000000000000000000000000000000000000000000000000000004c4b40",
        "nonce": "0x40",
        "chainId": "0xaa36a7"
      },
      "additionalContracts": [],
      "isFixedGasLimit": false
    },
    {
      "hash": "0x0266bd518ca2a9f4d069764fcf8ee03c941f85a8357abe90754ac28c495ae904",
      "transactionType": "CALL",
      "contractName": null,
      "contractAddress": "0x4d7695d77f3371e565f1f148fe7e9fde04c581e9",
      "function": "mint(uint256[],uint256[],uint256,string)",
      "arguments": [
        "[1, 2]",
        "[5000000, 5000000]",
        "10000000",
        "Alice & Bob Gift"
      ],
      "transaction": {
        "from": "0x08d811a358850892029251ccc8a565a32fd2dcb8",
        "to": "0x4d7695d77f3371e565f1f148fe7e9fde04c581e9",
        "gas": "0x63399",
        "value": "0x0",
        "input": "0xf84d9be0000000000000000000000000000000000000000000000000000000000000008000000000000000000000000000000000000000000000000000000000000000e000000000000000000000000000000000000000000000000000000000009896800000000000000000000000000000000000000000000000000000000000000140000000000000000000000000000000000000000000000000000000000000000200000000000000000000000000000000000000000000000000000000000000010000000000000000000000000000000000000000000000000000000000000002000000000000000000000000000000000000000000000000000000000000000200000000000000000000000000000000000000000000000000000000004c4b4000000000000000000000000000000000000000000000000000000000004c4b400000000000000000000000000000000000000000000000000000000000000010416c696365202620426f62204769667400000000000000000000000000000000",
        "nonce": "0x41",
        "chainId": "0xaa36a7"
      },
      "additionalContracts": [],
      "isFixedGasLimit": false
    }
  ],
  "receipts": [
    {
      "status": "0x1",
      "cumulativeGasUsed": "0xe6cfea",
      "logs": [
        {
          "address": "0xcac524bca292aaade2df8a05cc58f0a65b1b3bb9",
          "topics": [
            "0x8c5be1e5ebec7d5bd14f71427d1e84f3dd0314c0f7b2291e5b200ac8c7c3b925",
            "0x00000000000000000000000008d811a358850892029251ccc8a565a32fd2dcb8",
            "0x0000000000000000000000003b0a046e1d54cd64bb308ca6129fff066ba3718b"
          ],
          "data": "0x0000000000000000000000000000000000000000000000000000000000989680",
          "blockHash": "0xf3c4491d81e848771a9f613ce46856e9facb32c4cabfc7b5fa9036f8baba0360",
          "blockNumber": "0x8dc514",
          "blockTimestamp": "0x68d7d4cc",
          "transactionHash": "0x65682e0a9d665df205ea184a7af1205e5d83ee5c2b953dddb0afe5acdbb62ecc",
          "transactionIndex": "0x7a",
          "logIndex": "0xb5",
          "removed": false
        }
      ],
      "logsBloom": "0x00000000000000000100000000000000000000000000000000000000000000000000080000000000000000000000800000000000000000000000000000200000000000000000000000000000000000000000000001000000000000000000000000000000000000000000000000000000000000000000000000000000000000000000000000000000000000000000000000000000000000000000000000000000020000000002000020000000000040000000000000020000000000000000000000000000000000000000000000000000200000000000000000000000000000000010000000000000000000000000000000000000000000000000000000000000",
      "type": "0x2",
      "transactionHash": "0x65682e0a9d665df205ea184a7af1205e5d83ee5c2b953dddb0afe5acdbb62ecc",
      "transactionIndex": "0x7a",
      "blockHash": "0xf3c4491d81e848771a9f613ce46856e9facb32c4cabfc7b5fa9036f8baba0360",
      "blockNumber": "0x8dc514",
      "gasUsed": "0x9d34",
      "effectiveGasPrice": "0xf424d",
      "from": "0x08d811a358850892029251ccc8a565a32fd2dcb8",
      "to": "0xcac524bca292aaade2df8a05cc58f0a65b1b3bb9",
      "contractAddress": null
    },
    {
      "status": "0x1",
      "cumulativeGasUsed": "0xe90fc2",
      "logs": [
        {
          "address": "0xcac524bca292aaade2df8a05cc58f0a65b1b3bb9",
          "topics": [
            "0xddf252ad1be2c89b69c2b068fc378daa952ba7f163c4a11628f55a4df523b3ef",
            "0x00000000000000000000000008d811a358850892029251ccc8a565a32fd2dcb8",
            "0x0000000000000000000000003b0a046e1d54cd64bb308ca6129fff066ba3718b"
          ],
          "data": "0x00000000000000000000000000000000000000000000000000000000004c4b40",
          "blockHash": "0xf3c4491d81e848771a9f613ce46856e9facb32c4cabfc7b5fa9036f8baba0360",
          "blockNumber": "0x8dc514",
          "blockTimestamp": "0x68d7d4cc",
          "transactionHash": "0x1d371f65486c9c96e0b9ded26471d092706fe30cab6e00825eae5665862464f2",
          "transactionIndex": "0x7b",
          "logIndex": "0xb6",
          "removed": false
        },
        {
          "address": "0x3b0a046e1d54cd64bb308ca6129fff066ba3718b",
          "topics": [
            "0xddf252ad1be2c89b69c2b068fc378daa952ba7f163c4a11628f55a4df523b3ef",
            "0x0000000000000000000000000000000000000000000000000000000000000000",
            "0x00000000000000000000000008d811a358850892029251ccc8a565a32fd2dcb8",
            "0x0000000000000000000000000000000000000000000000000000000000000002"
          ],
          "data": "0x",
          "blockHash": "0xf3c4491d81e848771a9f613ce46856e9facb32c4cabfc7b5fa9036f8baba0360",
          "blockNumber": "0x8dc514",
          "blockTimestamp": "0x68d7d4cc",
          "transactionHash": "0x1d371f65486c9c96e0b9ded26471d092706fe30cab6e00825eae5665862464f2",
          "transactionIndex": "0x7b",
          "logIndex": "0xb7",
          "removed": false
        },
        {
          "address": "0x3b0a046e1d54cd64bb308ca6129fff066ba3718b",
          "topics": [
            "0x06c324612b9d5e1aebefcd07638fb80fff25c45dad8895cf135722a73327f4fa",
            "0x0000000000000000000000000000000000000000000000000000000000000002",
            "0x00000000000000000000000008d811a358850892029251ccc8a565a32fd2dcb8",
            "0x0000000000000000000000000000000000000000000000000000000000000001"
          ],
          "data": "0x00000000000000000000000000000000000000000000000000000000004c4b40",
          "blockHash": "0xf3c4491d81e848771a9f613ce46856e9facb32c4cabfc7b5fa9036f8baba0360",
          "blockNumber": "0x8dc514",
          "blockTimestamp": "0x68d7d4cc",
          "transactionHash": "0x1d371f65486c9c96e0b9ded26471d092706fe30cab6e00825eae5665862464f2",
          "transactionIndex": "0x7b",
          "logIndex": "0xb8",
          "removed": false
        }
      ],
      "logsBloom": "0x04000000000000000100000000000000000000000001400000000000000000000000080000000000000000000000800000000000000000000000000000040000000000000000000000000008000000000000000001040000000000000000000000000000020000000000000000000800000000000000000000000010000000000000000000000000000000000000000000000000000000000000000000000000000000000002000020000100000040000000000000020000000000000010000000040002000000000000000000000000200000000000000000000000000060000000000000000000000000000000000000000000008000000000000080004000",
      "type": "0x2",
      "transactionHash": "0x1d371f65486c9c96e0b9ded26471d092706fe30cab6e00825eae5665862464f2",
      "transactionIndex": "0x7b",
      "blockHash": "0xf3c4491d81e848771a9f613ce46856e9facb32c4cabfc7b5fa9036f8baba0360",
      "blockNumber": "0x8dc514",
      "gasUsed": "0x23fd8",
      "effectiveGasPrice": "0xf424d",
      "from": "0x08d811a358850892029251ccc8a565a32fd2dcb8",
      "to": "0x3b0a046e1d54cd64bb308ca6129fff066ba3718b",
      "contractAddress": null
    },
    {
      "status": "0x1",
      "cumulativeGasUsed": "0xeb7fa6",
      "logs": [
        {
          "address": "0xcac524bca292aaade2df8a05cc58f0a65b1b3bb9",
          "topics": [
            "0xddf252ad1be2c89b69c2b068fc378daa952ba7f163c4a11628f55a4df523b3ef",
            "0x00000000000000000000000008d811a358850892029251ccc8a565a32fd2dcb8",
            "0x0000000000000000000000003b0a046e1d54cd64bb308ca6129fff066ba3718b"
          ],
          "data": "0x00000000000000000000000000000000000000000000000000000000004c4b40",
          "blockHash": "0xf3c4491d81e848771a9f613ce46856e9facb32c4cabfc7b5fa9036f8baba0360",
          "blockNumber": "0x8dc514",
          "blockTimestamp": "0x68d7d4cc",
          "transactionHash": "0xe082bd84e649a0473aa5c39b8de37ea93e6975b18d73e97f9c7720062c5563d1",
          "transactionIndex": "0x7c",
          "logIndex": "0xb9",
          "removed": false
        },
        {
          "address": "0x3b0a046e1d54cd64bb308ca6129fff066ba3718b",
          "topics": [
            "0xddf252ad1be2c89b69c2b068fc378daa952ba7f163c4a11628f55a4df523b3ef",
            "0x0000000000000000000000000000000000000000000000000000000000000000",
            "0x00000000000000000000000008d811a358850892029251ccc8a565a32fd2dcb8",
            "0x0000000000000000000000000000000000000000000000000000000000000003"
          ],
          "data": "0x",
          "blockHash": "0xf3c4491d81e848771a9f613ce46856e9facb32c4cabfc7b5fa9036f8baba0360",
          "blockNumber": "0x8dc514",
          "blockTimestamp": "0x68d7d4cc",
          "transactionHash": "0xe082bd84e649a0473aa5c39b8de37ea93e6975b18d73e97f9c7720062c5563d1",
          "transactionIndex": "0x7c",
          "logIndex": "0xba",
          "removed": false
        },
        {
          "address": "0x3b0a046e1d54cd64bb308ca6129fff066ba3718b",
          "topics": [
            "0x06c324612b9d5e1aebefcd07638fb80fff25c45dad8895cf135722a73327f4fa",
            "0x0000000000000000000000000000000000000000000000000000000000000003",
            "0x00000000000000000000000008d811a358850892029251ccc8a565a32fd2dcb8",
            "0x0000000000000000000000000000000000000000000000000000000000000002"
          ],
          "data": "0x00000000000000000000000000000000000000000000000000000000004c4b40",
          "blockHash": "0xf3c4491d81e848771a9f613ce46856e9facb32c4cabfc7b5fa9036f8baba0360",
          "blockNumber": "0x8dc514",
          "blockTimestamp": "0x68d7d4cc",
          "transactionHash": "0xe082bd84e649a0473aa5c39b8de37ea93e6975b18d73e97f9c7720062c5563d1",
          "transactionIndex": "0x7c",
          "logIndex": "0xbb",
          "removed": false
        }
      ],
      "logsBloom": "0x04000000000000000100000000000000000000000001400000000000000000000000080000000000000000000000800000000000020000000000000000000000000000000000000000000008000000000000000001000000000000000000000000000000020000000000000000000800000000000000000000000010000000000000000000000000000000000000000000000000000000000000000000000000000000000002000020000100000040000000000000820000000000000010400000040002000000000000000000000000200000000000000000000000000020000000000000000000000000000000000000000000008000000000000080004000",
      "type": "0x2",
      "transactionHash": "0xe082bd84e649a0473aa5c39b8de37ea93e6975b18d73e97f9c7720062c5563d1",
      "transactionIndex": "0x7c",
      "blockHash": "0xf3c4491d81e848771a9f613ce46856e9facb32c4cabfc7b5fa9036f8baba0360",
      "blockNumber": "0x8dc514",
      "gasUsed": "0x26fe4",
      "effectiveGasPrice": "0xf424d",
      "from": "0x08d811a358850892029251ccc8a565a32fd2dcb8",
      "to": "0x3b0a046e1d54cd64bb308ca6129fff066ba3718b",
      "contractAddress": null
    },
    {
      "status": "0x1",
      "cumulativeGasUsed": "0xefbd30",
      "logs": [
        {
          "address": "0x4d7695d77f3371e565f1f148fe7e9fde04c581e9",
          "topics": [
            "0xddf252ad1be2c89b69c2b068fc378daa952ba7f163c4a11628f55a4df523b3ef",
            "0x0000000000000000000000000000000000000000000000000000000000000000",
            "0x00000000000000000000000008d811a358850892029251ccc8a565a32fd2dcb8",
            "0x0000000000000000000000000000000000000000000000000000000000000001"
          ],
          "data": "0x",
          "blockHash": "0xf3c4491d81e848771a9f613ce46856e9facb32c4cabfc7b5fa9036f8baba0360",
          "blockNumber": "0x8dc514",
          "blockTimestamp": "0x68d7d4cc",
          "transactionHash": "0x0266bd518ca2a9f4d069764fcf8ee03c941f85a8357abe90754ac28c495ae904",
          "transactionIndex": "0x7d",
          "logIndex": "0xbc",
          "removed": false
        },
        {
          "address": "0x4d7695d77f3371e565f1f148fe7e9fde04c581e9",
          "topics": [
            "0xf1fc75ee5568a62c47050c11ce69ace98674df4c34da17f71ae38b3ebd5f6ed2",
            "0x0000000000000000000000000000000000000000000000000000000000000001",
            "0x00000000000000000000000008d811a358850892029251ccc8a565a32fd2dcb8"
          ],
          "data": "0x000000000000000000000000000000000000000000000000000000000000008000000000000000000000000000000000000000000000000000000000000000e000000000000000000000000000000000000000000000000000000000009896800000000000000000000000000000000000000000000000000000000000000140000000000000000000000000000000000000000000000000000000000000000200000000000000000000000000000000000000000000000000000000000000010000000000000000000000000000000000000000000000000000000000000002000000000000000000000000000000000000000000000000000000000000000200000000000000000000000000000000000000000000000000000000004c4b4000000000000000000000000000000000000000000000000000000000004c4b400000000000000000000000000000000000000000000000000000000000000010416c696365202620426f62204769667400000000000000000000000000000000",
          "blockHash": "0xf3c4491d81e848771a9f613ce46856e9facb32c4cabfc7b5fa9036f8baba0360",
          "blockNumber": "0x8dc514",
          "blockTimestamp": "0x68d7d4cc",
          "transactionHash": "0x0266bd518ca2a9f4d069764fcf8ee03c941f85a8357abe90754ac28c495ae904",
          "transactionIndex": "0x7d",
          "logIndex": "0xbd",
          "removed": false
        }
      ],
      "logsBloom": "0x00000000000000200100000000000000000000000000000000000000000000000000080000000101000000000000000000000000000000000000000000040000000000000000000000000008000000000000000001040000000000000000000000000000020000000000000000000800000000000000000000000010000000001000000000000000000000000000000000000000000000020000000000000000000000000000000000000000000000000000000000000000000000000000000000000042000000000000000000000000000000000000000000000000000060000000000000000000000000000000000000000000000000000000000000000000",
      "type": "0x2",
      "transactionHash": "0x0266bd518ca2a9f4d069764fcf8ee03c941f85a8357abe90754ac28c495ae904",
      "transactionIndex": "0x7d",
      "blockHash": "0xf3c4491d81e848771a9f613ce46856e9facb32c4cabfc7b5fa9036f8baba0360",
      "blockNumber": "0x8dc514",
      "gasUsed": "0x43d8a",
      "effectiveGasPrice": "0xf424d",
      "from": "0x08d811a358850892029251ccc8a565a32fd2dcb8",
      "to": "0x4d7695d77f3371e565f1f148fe7e9fde04c581e9",
      "contractAddress": null
    }
  ],
  "libraries": [],
  "pending": [],
  "returns": {},
  "timestamp": 1758975182,
  "chain": 11155111,
  "commit": "54cecf0"
}