{
  "transactions": [
    {
      "hash": "0x830fb679f3fe9da35c6b89096ef29dffcc63b0042ca46eee8ef4bb5ece13245f",
      "transactionType": "CALL",
      "contractName": null,
      "contractAddress": "0xcac524bca292aaade2df8a05cc58f0a65b1b3bb9",
      "function": "approve(address,uint256)",
      "arguments": [
        "0x9B59d4c6E2517E6812a4Eb9f586695C0C8710fa8",
        "1000001"
      ],
      "transaction": {
        "from": "0x08d811a358850892029251ccc8a565a32fd2dcb8",
        "to": "0xcac524bca292aaade2df8a05cc58f0a65b1b3bb9",
        "gas": "0xe83e",
        "value": "0x0",
        "input": "0x095ea7b30000000000000000000000009b59d4c6e2517e6812a4eb9f586695c0c8710fa800000000000000000000000000000000000000000000000000000000000f4241",
        "nonce": "0x86",
        "chainId": "0xaa36a7"
      },
      "additionalContracts": [],
      "isFixedGasLimit": false
    },
    {
      "hash": "0x4489c3cb1917c9aadac2b27a0b72a08b44e044a605aecee166165d02580efb99",
      "transactionType": "CALL",
      "contractName": null,
      "contractAddress": "0x9b59d4c6e2517e6812a4eb9f586695c0c8710fa8",
      "function": "allocateGift(uint256[],uint256[])",
      "arguments": [
        "[1, 2]",
        "[500001, 500000]"
      ],
      "transaction": {
        "from": "0x08d811a358850892029251ccc8a565a32fd2dcb8",
        "to": "0x9b59d4c6e2517e6812a4eb9f586695c0c8710fa8",
        "gas": "0x1ed4c",
        "value": "0x0",
        "input": "0xdf4031fc000000000000000000000000000000000000000000000000000000000000004000000000000000000000000000000000000000000000000000000000000000a00000000000000000000000000000000000000000000000000000000000000002000000000000000000000000000000000000000000000000000000000000000100000000000000000000000000000000000000000000000000000000000000020000000000000000000000000000000000000000000000000000000000000002000000000000000000000000000000000000000000000000000000000007a121000000000000000000000000000000000000000000000000000000000007a120",
        "nonce": "0x87",
        "chainId": "0xaa36a7"
      },
      "additionalContracts": [],
      "isFixedGasLimit": false
    },
    {
      "hash": "0xca799076eb316891e0a2a6ca800635eda897bbae22362f24f86c723ea1f7d635",
      "transactionType": "CALL",
      "contractName": null,
      "contractAddress": "0xa6f277640efc258a96a20d0c88265d57fa202623",
      "function": "mint(uint256[],uint256,string)",
      "arguments": [
        "[1, 2]",
        "1000001",
        "Alice & Bob Gift"
      ],
      "transaction": {
        "from": "0x08d811a358850892029251ccc8a565a32fd2dcb8",
        "to": "0xa6f277640efc258a96a20d0c88265d57fa202623",
        "gas": "0x5dcc0",
        "value": "0x0",
        "input": "0x0525a4ab000000000000000000000000000000000000000000000000000000000000006000000000000000000000000000000000000000000000000000000000000f424100000000000000000000000000000000000000000000000000000000000000c00000000000000000000000000000000000000000000000000000000000000002000000000000000000000000000000000000000000000000000000000000000100000000000000000000000000000000000000000000000000000000000000020000000000000000000000000000000000000000000000000000000000000010416c696365202620426f62204769667400000000000000000000000000000000",
        "nonce": "0x88",
        "chainId": "0xaa36a7"
      },
      "additionalContracts": [],
      "isFixedGasLimit": false
    }
  ],
  "receipts": [
    {
      "status": "0x1",
      "cumulativeGasUsed": "0xbdd516",
      "logs": [
        {
          "address": "0xcac524bca292aaade2df8a05cc58f0a65b1b3bb9",
          "topics": [
            "0x8c5be1e5ebec7d5bd14f71427d1e84f3dd0314c0f7b2291e5b200ac8c7c3b925",
            "0x00000000000000000000000008d811a358850892029251ccc8a565a32fd2dcb8",
            "0x0000000000000000000000009b59d4c6e2517e6812a4eb9f586695c0c8710fa8"
          ],
          "data": "0x00000000000000000000000000000000000000000000000000000000000f4241",
          "blockHash": "0xff09e9b9a4714e84b4008f3028fab94c3d6579610b95b21dad1c8bbe610f979b",
          "blockNumber": "0x8dc946",
          "blockTimestamp": "0x68d807b4",
          "transactionHash": "0x830fb679f3fe9da35c6b89096ef29dffcc63b0042ca46eee8ef4bb5ece13245f",
          "transactionIndex": "0xe6",
          "logIndex": "0x81",
          "removed": false
        }
      ],
      "logsBloom": "0x00000000000000000100000000000000000000000200000000000000000000000000080000000000000000000000800000000000000000000000000000200000000000000000000000000000000000000000000001000000000000000000000000000000000000000000000001000000000000000000000000000000000000000000000000000000000000000000000000000000000000000000000000000000020000000000000000000000000040000000000000000000000001000000000000000000000000000000000000000000200000000000000000000000000000000010000000000000000000000000000000000000000000000000000000000000",
      "type": "0x2",
      "transactionHash": "0x830fb679f3fe9da35c6b89096ef29dffcc63b0042ca46eee8ef4bb5ece13245f",
      "transactionIndex": "0xe6",
      "blockHash": "0xff09e9b9a4714e84b4008f3028fab94c3d6579610b95b21dad1c8bbe610f979b",
      "blockNumber": "0x8dc946",
      "gasUsed": "0xa824",
      "effectiveGasPrice": "0xf424b",
      "from": "0x08d811a358850892029251ccc8a565a32fd2dcb8",
      "to": "0xcac524bca292aaade2df8a05cc58f0a65b1b3bb9",
      "contractAddress": null
    },
    {
      "status": "0x1",
      "cumulativeGasUsed": "0xbf3a3a",
      "logs": [
        {
          "address": "0xcac524bca292aaade2df8a05cc58f0a65b1b3bb9",
          "topics": [
            "0xddf252ad1be2c89b69c2b068fc378daa952ba7f163c4a11628f55a4df523b3ef",
            "0x00000000000000000000000008d811a358850892029251ccc8a565a32fd2dcb8",
            "0x0000000000000000000000009b59d4c6e2517e6812a4eb9f586695c0c8710fa8"
          ],
          "data": "0x00000000000000000000000000000000000000000000000000000000000f4241",
          "blockHash": "0xff09e9b9a4714e84b4008f3028fab94c3d6579610b95b21dad1c8bbe610f979b",
          "blockNumber": "0x8dc946",
          "blockTimestamp": "0x68d807b4",
          "transactionHash": "0x4489c3cb1917c9aadac2b27a0b72a08b44e044a605aecee166165d02580efb99",
          "transactionIndex": "0xe7",
          "logIndex": "0x82",
          "removed": false
        },
        {
          "address": "0x9b59d4c6e2517e6812a4eb9f586695c0c8710fa8",
          "topics": [
            "0x0b4a617748e45ef18cd49b034c4204f444e51c07cc664db59dc8c25ea49058eb",
            "0x00000000000000000000000008d811a358850892029251ccc8a565a32fd2dcb8"
          ],
          "data": "0x00000000000000000000000000000000000000000000000000000000000f4241000000000000000000000000000000000000000000000000000000000000006000000000000000000000000000000000000000000000000000000000000000c00000000000000000000000000000000000000000000000000000000000000002000000000000000000000000000000000000000000000000000000000000000100000000000000000000000000000000000000000000000000000000000000020000000000000000000000000000000000000000000000000000000000000002000000000000000000000000000000000000000000000000000000000007a121000000000000000000000000000000000000000000000000000000000007a120",
          "blockHash": "0xff09e9b9a4714e84b4008f3028fab94c3d6579610b95b21dad1c8bbe610f979b",
          "blockNumber": "0x8dc946",
          "blockTimestamp": "0x68d807b4",
          "transactionHash": "0x4489c3cb1917c9aadac2b27a0b72a08b44e044a605aecee166165d02580efb99",
          "transactionIndex": "0xe7",
          "logIndex": "0x83",
          "removed": false
        }
      ],
      "logsBloom": "0x00000000000000000100000000000000000000000200000000000000000000000000080000000000000000000000800000000000000000000000000000000000010000000000000000000008000000000000000001000000000000000000000000000000000000000000000001000000000000400000000000000010000000000000000800000000000000000000000000000000000000000000000000000000000000000000000000000000000040040000000000000000000001000000000000000002000000080000000000000000200000000000000000000100000000000000000000000000000000000000000000000000000000000000000000000000",
      "type": "0x2",
      "transactionHash": "0x4489c3cb1917c9aadac2b27a0b72a08b44e044a605aecee166165d02580efb99",
      "transactionIndex": "0xe7",
      "blockHash": "0xff09e9b9a4714e84b4008f3028fab94c3d6579610b95b21dad1c8bbe610f979b",
      "blockNumber": "0x8dc946",
      "gasUsed": "0x16524",
      "effectiveGasPrice": "0xf424b",
      "from": "0x08d811a358850892029251ccc8a565a32fd2dcb8",
      "to": "0x9b59d4c6e2517e6812a4eb9f586695c0c8710fa8",
      "contractAddress": null
    },
    {
      "status": "0x1",
      "cumulativeGasUsed": "0xc378bf",
      "logs": [
        {
          "address": "0xa6f277640efc258a96a20d0c88265d57fa202623",
          "topics": [
            "0xddf252ad1be2c89b69c2b068fc378daa952ba7f163c4a11628f55a4df523b3ef",
            "0x0000000000000000000000000000000000000000000000000000000000000000",
            "0x00000000000000000000000008d811a358850892029251ccc8a565a32fd2dcb8",
            "0x0000000000000000000000000000000000000000000000000000000000000001"
          ],
          "data": "0x",
          "blockHash": "0xff09e9b9a4714e84b4008f3028fab94c3d6579610b95b21dad1c8bbe610f979b",
          "blockNumber": "0x8dc946",
          "blockTimestamp": "0x68d807b4",
          "transactionHash": "0xca799076eb316891e0a2a6ca800635eda897bbae22362f24f86c723ea1f7d635",
          "transactionIndex": "0xe8",
          "logIndex": "0x84",
          "removed": false
        },
        {
          "address": "0xa6f277640efc258a96a20d0c88265d57fa202623",
          "topics": [
            "0xf1fc75ee5568a62c47050c11ce69ace98674df4c34da17f71ae38b3ebd5f6ed2",
            "0x0000000000000000000000000000000000000000000000000000000000000001",
            "0x00000000000000000000000008d811a358850892029251ccc8a565a32fd2dcb8"
          ],
          "data": "0x000000000000000000000000000000000000000000000000000000000000008000000000000000000000000000000000000000000000000000000000000000e000000000000000000000000000000000000000000000000000000000000f424100000000000000000000000000000000000000000000000000000000000001400000000000000000000000000000000000000000000000000000000000000002000000000000000000000000000000000000000000000000000000000000000100000000000000000000000000000000000000000000000000000000000000020000000000000000000000000000000000000000000000000000000000000002000000000000000000000000000000000000000000000000000000000007a121000000000000000000000000000000000000000000000000000000000007a1200000000000000000000000000000000000000000000000000000000000000010416c696365202620426f62204769667400000000000000000000000000000000",
          "blockHash": "0xff09e9b9a4714e84b4008f3028fab94c3d6579610b95b21dad1c8bbe610f979b",
          "blockNumber": "0x8dc946",
          "blockTimestamp": "0x68d807b4",
          "transactionHash": "0xca799076eb316891e0a2a6ca800635eda897bbae22362f24f86c723ea1f7d635",
          "transactionIndex": "0xe8",
          "logIndex": "0x85",
          "removed": false
        }
      ],
      "logsBloom": "0x00000000000000200100000000000000000000000000000000000000000000000000080000000100000000000000000000000000000000000000000000040000000000000000000000000008000000000000000001040000000000000000000000000000020000000000000000000800000000000000000000000010000000000000000000000000000000000000000000000000000000020000000000000000000000000000000000000000000000000008000000000000000000080000000000000002000000000000000002000000000000000000000000000000000060000000000000000000000000000000000000000000000000000000000000000000",
      "type": "0x2",
      "transactionHash": "0xca799076eb316891e0a2a6ca800635eda897bbae22362f24f86c723ea1f7d635",
      "transactionIndex": "0xe8",
      "blockHash": "0xff09e9b9a4714e84b4008f3028fab94c3d6579610b95b21dad1c8bbe610f979b",
      "blockNumber": "0x8dc946",
      "gasUsed": "0x43e85",
      "effectiveGasPrice": "0xf424b",
      "from": "0x08d811a358850892029251ccc8a565a32fd2dcb8",
      "to": "0xa6f277640efc258a96a20d0c88265d57fa202623",
      "contractAddress": null
    }
  ],
  "libraries": [],
  "pending": [],
  "returns": {},
  "timestamp": 1758988214,
  "chain": 11155111,
  "commit": "9722ff8"
}