{
  "transactions": [
    {
      "hash": "0xc24aa75367c276d484043c7fc825338bf170c5d861351cc4e72632cd054df58e",
      "transactionType": "CALL",
      "contractName": null,
      "contractAddress": "0xcac524bca292aaade2df8a05cc58f0a65b1b3bb9",
      "function": "approve(address,uint256)",
      "arguments": [
        "0x99a6D8F5673DF9D0642e28B16321dCdAc0CD4296",
        "1000001"
      ],
      "transaction": {
        "from": "0x08d811a358850892029251ccc8a565a32fd2dcb8",
        "to": "0xcac524bca292aaade2df8a05cc58f0a65b1b3bb9",
        "gas": "0xd922",
        "value": "0x0",
        "input": "0x095ea7b300000000000000000000000099a6d8f5673df9d0642e28b16321dcdac0cd429600000000000000000000000000000000000000000000000000000000000f4241",
        "nonce": "0x68",
        "chainId": "0xaa36a7"
      },
      "additionalContracts": [],
      "isFixedGasLimit": false
    },
    {
      "hash": "0x99284c69e678391f6c0f484fbada63fabd24b9586f6a75de6a88d8ab9b805902",
      "transactionType": "CALL",
      "contractName": null,
      "contractAddress": "0x99a6d8f5673df9d0642e28b16321dcdac0cd4296",
      "function": "allocateDonation(uint256[],uint256[])",
      "arguments": [
        "[1, 2]",
        "[500001, 500000]"
      ],
      "transaction": {
        "from": "0x08d811a358850892029251ccc8a565a32fd2dcb8",
        "to": "0x99a6d8f5673df9d0642e28b16321dcdac0cd4296",
        "gas": "0x1f0db",
        "value": "0x0",
        "input": "0x4a444e57000000000000000000000000000000000000000000000000000000000000004000000000000000000000000000000000000000000000000000000000000000a00000000000000000000000000000000000000000000000000000000000000002000000000000000000000000000000000000000000000000000000000000000100000000000000000000000000000000000000000000000000000000000000020000000000000000000000000000000000000000000000000000000000000002000000000000000000000000000000000000000000000000000000000007a121000000000000000000000000000000000000000000000000000000000007a120",
        "nonce": "0x69",
        "chainId": "0xaa36a7"
      },
      "additionalContracts": [],
      "isFixedGasLimit": false
    },
    {
      "hash": "0xff1996f6607ef85aa54f7587d2791f96a1e8eb59b7676f48068dbc7111797f6e",
      "transactionType": "CALL",
      "contractName": null,
      "contractAddress": "0x67212b4c2f2f3e2b15e9bf7f7e63c089a6c0de99",
      "function": "mint(uint256[],uint256,string)",
      "arguments": [
        "[1, 2]",
        "1000001",
        "Alice & Bob Gift"
      ],
      "transaction": {
        "from": "0x08d811a358850892029251ccc8a565a32fd2dcb8",
        "to": "0x67212b4c2f2f3e2b15e9bf7f7e63c089a6c0de99",
        "gas": "0x52439",
        "value": "0x0",
        "input": "0x0525a4ab000000000000000000000000000000000000000000000000000000000000006000000000000000000000000000000000000000000000000000000000000f424100000000000000000000000000000000000000000000000000000000000000c00000000000000000000000000000000000000000000000000000000000000002000000000000000000000000000000000000000000000000000000000000000100000000000000000000000000000000000000000000000000000000000000020000000000000000000000000000000000000000000000000000000000000010416c696365202620426f62204769667400000000000000000000000000000000",
        "nonce": "0x6a",
        "chainId": "0xaa36a7"
      },
      "additionalContracts": [],
      "isFixedGasLimit": false
    }
  ],
  "receipts": [
    {
      "status": "0x1",
      "cumulativeGasUsed": "0xdb19ad",
      "logs": [
        {
          "address": "0xcac524bca292aaade2df8a05cc58f0a65b1b3bb9",
          "topics": [
            "0x8c5be1e5ebec7d5bd14f71427d1e84f3dd0314c0f7b2291e5b200ac8c7c3b925",
            "0x00000000000000000000000008d811a358850892029251ccc8a565a32fd2dcb8",
            "0x00000000000000000000000099a6d8f5673df9d0642e28b16321dcdac0cd4296"
          ],
          "data": "0x00000000000000000000000000000000000000000000000000000000000f4241",
          "blockHash": "0x660f4db4e3849c32d92be026308dcc636774b6affb2f20e8dde014279b8b9e34",
          "blockNumber": "0x8dc798",
          "blockTimestamp": "0x68d7f368",
          "transactionHash": "0xc24aa75367c276d484043c7fc825338bf170c5d861351cc4e72632cd054df58e",
          "transactionIndex": "0xda",
          "logIndex": "0x96",
          "removed": false
        }
      ],
      "logsBloom": "0x00000000000000000100000000000000001000000000000000000000000000000000080040000000000000000000800000000000000000000000000000200000000000000000000000000000000000000000000001000000000000000000000000000000000000000000000000000000000000000000000000000000000000000000000000000000000000000000000000000000000000000000000000000000020000000000000000000000000040000000000000000000000000000000000000000000000000000000000000000000200000000000000000000000000000000010000004000000000000000000000000000000000000000000000000000000",
      "type": "0x2",
      "transactionHash": "0xc24aa75367c276d484043c7fc825338bf170c5d861351cc4e72632cd054df58e",
      "transactionIndex": "0xda",
      "blockHash": "0x660f4db4e3849c32d92be026308dcc636774b6affb2f20e8dde014279b8b9e34",
      "blockNumber": "0x8dc798",
      "gasUsed": "0x9d34",
      "effectiveGasPrice": "0xfa3f1",
      "from": "0x08d811a358850892029251ccc8a565a32fd2dcb8",
      "to": "0xcac524bca292aaade2df8a05cc58f0a65b1b3bb9",
      "contractAddress": null
    },
    {
      "status": "0x1",
      "cumulativeGasUsed": "0xdc8165",
      "logs": [
        {
          "address": "0xcac524bca292aaade2df8a05cc58f0a65b1b3bb9",
          "topics": [
            "0xddf252ad1be2c89b69c2b068fc378daa952ba7f163c4a11628f55a4df523b3ef",
            "0x00000000000000000000000008d811a358850892029251ccc8a565a32fd2dcb8",
            "0x00000000000000000000000099a6d8f5673df9d0642e28b16321dcdac0cd4296"
          ],
          "data": "0x00000000000000000000000000000000000000000000000000000000000f4241",
          "blockHash": "0x660f4db4e3849c32d92be026308dcc636774b6affb2f20e8dde014279b8b9e34",
          "blockNumber": "0x8dc798",
          "blockTimestamp": "0x68d7f368",
          "transactionHash": "0x99284c69e678391f6c0f484fbada63fabd24b9586f6a75de6a88d8ab9b805902",
          "transactionIndex": "0xdb",
          "logIndex": "0x97",
          "removed": false
        },
        {
          "address": "0x99a6d8f5673df9d0642e28b16321dcdac0cd4296",
          "topics": [
            "0x56d8b0175ac50851747e588707ec43b521ab960e41f6c520744499c33c20026d",
            "0x00000000000000000000000008d811a358850892029251ccc8a565a32fd2dcb8"
          ],
          "data": "0x00000000000000000000000000000000000000000000000000000000000f4241000000000000000000000000000000000000000000000000000000000000006000000000000000000000000000000000000000000000000000000000000000c00000000000000000000000000000000000000000000000000000000000000002000000000000000000000000000000000000000000000000000000000000000100000000000000000000000000000000000000000000000000000000000000020000000000000000000000000000000000000000000000000000000000000002000000000000000000000000000000000000000000000000000000000007a121000000000000000000000000000000000000000000000000000000000007a120",
          "blockHash": "0x660f4db4e3849c32d92be026308dcc636774b6affb2f20e8dde014279b8b9e34",
          "blockNumber": "0x8dc798",
          "blockTimestamp": "0x68d7f368",
          "transactionHash": "0x99284c69e678391f6c0f484fbada63fabd24b9586f6a75de6a88d8ab9b805902",
          "transactionIndex": "0xdb",
          "logIndex": "0x98",
          "removed": false
        }
      ],
      "logsBloom": "0x00000000000000000100000000000000001000000000000000000000000000000000080040000000000000000000800000000000010000000000000000000000000000000000000000000008000000000000000001000000000000000000008000000000000000000000000000000000000000000000020000000010000000000000000000000000000000000000000000000000400000040000000000000000000000000000000000000000000040000000000000000000000000000000000000000002000000000000000000000000200000000000000000000000000000000000000004000000000000000000000000000000000000000000020000000000",
      "type": "0x2",
      "transactionHash": "0x99284c69e678391f6c0f484fbada63fabd24b9586f6a75de6a88d8ab9b805902",
      "transactionIndex": "0xdb",
      "blockHash": "0x660f4db4e3849c32d92be026308dcc636774b6affb2f20e8dde014279b8b9e34",
      "blockNumber": "0x8dc798",
      "gasUsed": "0x167b8",
      "effectiveGasPrice": "0xfa3f1",
      "from": "0x08d811a358850892029251ccc8a565a32fd2dcb8",
      "to": "0x99a6d8f5673df9d0642e28b16321dcdac0cd4296",
      "contractAddress": null
    },
    {
      "status": "0x1",
      "cumulativeGasUsed": "0xe03a52",
      "logs": [
        {
          "address": "0x67212b4c2f2f3e2b15e9bf7f7e63c089a6c0de99",
          "topics": [
            "0xddf252ad1be2c89b69c2b068fc378daa952ba7f163c4a11628f55a4df523b3ef",
            "0x0000000000000000000000000000000000000000000000000000000000000000",
            "0x00000000000000000000000008d811a358850892029251ccc8a565a32fd2dcb8",
            "0x0000000000000000000000000000000000000000000000000000000000000003"
          ],
          "data": "0x",
          "blockHash": "0x660f4db4e3849c32d92be026308dcc636774b6affb2f20e8dde014279b8b9e34",
          "blockNumber": "0x8dc798",
          "blockTimestamp": "0x68d7f368",
          "transactionHash": "0xff1996f6607ef85aa54f7587d2791f96a1e8eb59b7676f48068dbc7111797f6e",
          "transactionIndex": "0xdc",
          "logIndex": "0x99",
          "removed": false
        },
        {
          "address": "0x67212b4c2f2f3e2b15e9bf7f7e63c089a6c0de99",
          "topics": [
            "0xf1fc75ee5568a62c47050c11ce69ace98674df4c34da17f71ae38b3ebd5f6ed2",
            "0x0000000000000000000000000000000000000000000000000000000000000003",
            "0x00000000000000000000000008d811a358850892029251ccc8a565a32fd2dcb8"
          ],
          "data": "0x000000000000000000000000000000000000000000000000000000000000008000000000000000000000000000000000000000000000000000000000000000e000000000000000000000000000000000000000000000000000000000000f424100000000000000000000000000000000000000000000000000000000000001400000000000000000000000000000000000000000000000000000000000000002000000000000000000000000000000000000000000000000000000000000000100000000000000000000000000000000000000000000000000000000000000020000000000000000000000000000000000000000000000000000000000000002000000000000000000000000000000000000000000000000000000000007a121000000000000000000000000000000000000000000000000000000000007a1200000000000000000000000000000000000000000000000000000000000000010416c696365202620426f62204769667400000000000000000000000000000000",
          "blockHash": "0x660f4db4e3849c32d92be026308dcc636774b6affb2f20e8dde014279b8b9e34",
          "blockNumber": "0x8dc798",
          "blockTimestamp": "0x68d7f368",
          "transactionHash": "0xff1996f6607ef85aa54f7587d2791f96a1e8eb59b7676f48068dbc7111797f6e",
          "transactionIndex": "0xdc",
          "logIndex": "0x9a",
          "removed": false
        }
      ],
      "logsBloom": "0x00000000000000200100000000000000000000000000000000000000000000000000080000000100000000000000000000000000020000000000000000000000000000000000000000000008000000000000000001000000000000000000000000000000020000000000000002000800000000000000000000000010000000000000000000000000000000000000000000000000000000020000000000000000000000000000000000000000000000000000000000800000000000000000400000000002000000000000000000000000000000000000000000000000000021000000000008000000000000000000000000000000000000000000000000000000",
      "type": "0x2",
      "transactionHash": "0xff1996f6607ef85aa54f7587d2791f96a1e8eb59b7676f48068dbc7111797f6e",
      "transactionIndex": "0xdc",
      "blockHash": "0x660f4db4e3849c32d92be026308dcc636774b6affb2f20e8dde014279b8b9e34",
      "blockNumber": "0x8dc798",
      "gasUsed": "0x3b8ed",
      "effectiveGasPrice": "0xfa3f1",
      "from": "0x08d811a358850892029251ccc8a565a32fd2dcb8",
      "to": "0x67212b4c2f2f3e2b15e9bf7f7e63c089a6c0de99",
      "contractAddress": null
    }
  ],
  "libraries": [],
  "pending": [],
  "returns": {},
  "timestamp": 1758983017,
  "chain": 11155111,
  "commit": "3d18ca5"
}