{
  "transactions": [
    {
      "hash": "0xfcc2857774ddbc84911c3ee15888f0ea2287e7d17df61b520af75b89eb943743",
      "transactionType": "CALL",
      "contractName": null,
      "contractAddress": "0xcac524bca292aaade2df8a05cc58f0a65b1b3bb9",
      "function": "approve(address,uint256)",
      "arguments": [
        "0x99a6D8F5673DF9D0642e28B16321dCdAc0CD4296",
        "1000001"
      ],
      "transaction": {
        "from": "0x08d811a358850892029251ccc8a565a32fd2dcb8",
        "to": "0xcac524bca292aaade2df8a05cc58f0a65b1b3bb9",
        "gas": "0x14481",
        "value": "0x0",
        "input": "0x095ea7b300000000000000000000000099a6d8f5673df9d0642e28b16321dcdac0cd429600000000000000000000000000000000000000000000000000000000000f4241",
        "nonce": "0x6b",
        "chainId": "0xaa36a7"
      },
      "additionalContracts": [],
      "isFixedGasLimit": false
    },
    {
      "hash": "0xb33451c4ef6e9a0154d6de2902eb534178149d0b994d30d77ec7940e1437dc11",
      "transactionType": "CALL",
      "contractName": null,
      "contractAddress": "0x99a6d8f5673df9d0642e28b16321dcdac0cd4296",
      "function": "allocateDonation(uint256[],uint256[])",
      "arguments": [
        "[1, 2]",
        "[500001, 500000]"
      ],
      "transaction": {
        "from": "0x08d811a358850892029251ccc8a565a32fd2dcb8",
        "to": "0x99a6d8f5673df9d0642e28b16321dcdac0cd4296",
        "gas": "0x19498",
        "value": "0x0",
        "input": "0x4a444e57000000000000000000000000000000000000000000000000000000000000004000000000000000000000000000000000000000000000000000000000000000a00000000000000000000000000000000000000000000000000000000000000002000000000000000000000000000000000000000000000000000000000000000100000000000000000000000000000000000000000000000000000000000000020000000000000000000000000000000000000000000000000000000000000002000000000000000000000000000000000000000000000000000000000007a121000000000000000000000000000000000000000000000000000000000007a120",
        "nonce": "0x6c",
        "chainId": "0xaa36a7"
      },
      "additionalContracts": [],
      "isFixedGasLimit": false
    },
    {
      "hash": "0xca3fe4d0f6bd50f20df572bef9b0fe67f1a06b6f4da44409280db975dcd1783d",
      "transactionType": "CALL",
      "contractName": null,
      "contractAddress": "0x67212b4c2f2f3e2b15e9bf7f7e63c089a6c0de99",
      "function": "mint(uint256[],uint256,string)",
      "arguments": [
        "[1, 2]",
        "1000001",
        "Alice & Bob Gift"
      ],
      "transaction": {
        "from": "0x08d811a358850892029251ccc8a565a32fd2dcb8",
        "to": "0x67212b4c2f2f3e2b15e9bf7f7e63c089a6c0de99",
        "gas": "0x52439",
        "value": "0x0",
        "input": "0x0525a4ab000000000000000000000000000000000000000000000000000000000000006000000000000000000000000000000000000000000000000000000000000f424100000000000000000000000000000000000000000000000000000000000000c00000000000000000000000000000000000000000000000000000000000000002000000000000000000000000000000000000000000000000000000000000000100000000000000000000000000000000000000000000000000000000000000020000000000000000000000000000000000000000000000000000000000000010416c696365202620426f62204769667400000000000000000000000000000000",
        "nonce": "0x6d",
        "chainId": "0xaa36a7"
      },
      "additionalContracts": [],
      "isFixedGasLimit": false
    }
  ],
  "receipts": [
    {
      "status": "0x1",
      "cumulativeGasUsed": "0xf907c1",
      "logs": [
        {
          "address": "0xcac524bca292aaade2df8a05cc58f0a65b1b3bb9",
          "topics": [
            "0x8c5be1e5ebec7d5bd14f71427d1e84f3dd0314c0f7b2291e5b200ac8c7c3b925",
            "0x00000000000000000000000008d811a358850892029251ccc8a565a32fd2dcb8",
            "0x00000000000000000000000099a6d8f5673df9d0642e28b16321dcdac0cd4296"
          ],
          "data": "0x00000000000000000000000000000000000000000000000000000000000f4241",
          "blockHash": "0x36aef05a91d189320d0173e4b7955cead7dfde13b0e17ac26da6d7a3c3774154",
          "blockNumber": "0x8dc79f",
          "blockTimestamp": "0x68d7f3bc",
          "transactionHash": "0xfcc2857774ddbc84911c3ee15888f0ea2287e7d17df61b520af75b89eb943743",
          "transactionIndex": "0x3d",
          "logIndex": "0x61",
          "removed": false
        }
      ],
      "logsBloom": "0x00000000000000000100000000000000001000000000000000000000000000000000080040000000000000000000800000000000000000000000000000200000000000000000000000000000000000000000000001000000000000000000000000000000000000000000000000000000000000000000000000000000000000000000000000000000000000000000000000000000000000000000000000000000020000000000000000000000000040000000000000000000000000000000000000000000000000000000000000000000200000000000000000000000000000000010000004000000000000000000000000000000000000000000000000000000",
      "type": "0x2",
      "transactionHash": "0xfcc2857774ddbc84911c3ee15888f0ea2287e7d17df61b520af75b89eb943743",
      "transactionIndex": "0x3d",
      "blockHash": "0x36aef05a91d189320d0173e4b7955cead7dfde13b0e17ac26da6d7a3c3774154",
      "blockNumber": "0x8dc79f",
      "gasUsed": "0xeaf0",
      "effectiveGasPrice": "0xfa3f1",
      "from": "0x08d811a358850892029251ccc8a565a32fd2dcb8",
      "to": "0xcac524bca292aaade2df8a05cc58f0a65b1b3bb9",
      "contractAddress": null
    },
    {
      "status": "0x1",
      "cumulativeGasUsed": "0xfa2cad",
      "logs": [
        {
          "address": "0xcac524bca292aaade2df8a05cc58f0a65b1b3bb9",
          "topics": [
            "0xddf252ad1be2c89b69c2b068fc378daa952ba7f163c4a11628f55a4df523b3ef",
            "0x00000000000000000000000008d811a358850892029251ccc8a565a32fd2dcb8",
            "0x00000000000000000000000099a6d8f5673df9d0642e28b16321dcdac0cd4296"
          ],
          "data": "0x00000000000000000000000000000000000000000000000000000000000f4241",
          "blockHash": "0x36aef05a91d189320d0173e4b7955cead7dfde13b0e17ac26da6d7a3c3774154",
          "blockNumber": "0x8dc79f",
          "blockTimestamp": "0x68d7f3bc",
          "transactionHash": "0xb33451c4ef6e9a0154d6de2902eb534178149d0b994d30d77ec7940e1437dc11",
          "transactionIndex": "0x3e",
          "logIndex": "0x62",
          "removed": false
        },
        {
          "address": "0x99a6d8f5673df9d0642e28b16321dcdac0cd4296",
          "topics": [
            "0x56d8b0175ac50851747e588707ec43b521ab960e41f6c520744499c33c20026d",
            "0x00000000000000000000000008d811a358850892029251ccc8a565a32fd2dcb8"
          ],
          "data": "0x00000000000000000000000000000000000000000000000000000000000f4241000000000000000000000000000000000000000000000000000000000000006000000000000000000000000000000000000000000000000000000000000000c00000000000000000000000000000000000000000000000000000000000000002000000000000000000000000000000000000000000000000000000000000000100000000000000000000000000000000000000000000000000000000000000020000000000000000000000000000000000000000000000000000000000000002000000000000000000000000000000000000000000000000000000000007a121000000000000000000000000000000000000000000000000000000000007a120",
          "blockHash": "0x36aef05a91d189320d0173e4b7955cead7dfde13b0e17ac26da6d7a3c3774154",
          "blockNumber": "0x8dc79f",
          "blockTimestamp": "0x68d7f3bc",
          "transactionHash": "0xb33451c4ef6e9a0154d6de2902eb534178149d0b994d30d77ec7940e1437dc11",
          "transactionIndex": "0x3e",
          "logIndex": "0x63",
          "removed": false
        }
      ],
      "logsBloom": "0x00000000000000000100000000000000001000000000000000000000000000000000080040000000000000000000800000000000010000000000000000000000000000000000000000000008000000000000000001000000000000000000008000000000000000000000000000000000000000000000020000000010000000000000000000000000000000000000000000000000400000040000000000000000000000000000000000000000000040000000000000000000000000000000000000000002000000000000000000000000200000000000000000000000000000000000000004000000000000000000000000000000000000000000020000000000",
      "type": "0x2",
      "transactionHash": "0xb33451c4ef6e9a0154d6de2902eb534178149d0b994d30d77ec7940e1437dc11",
      "transactionIndex": "0x3e",
      "blockHash": "0x36aef05a91d189320d0173e4b7955cead7dfde13b0e17ac26da6d7a3c3774154",
      "blockNumber": "0x8dc79f",
      "gasUsed": "0x124ec",
      "effectiveGasPrice": "0xfa3f1",
      "from": "0x08d811a358850892029251ccc8a565a32fd2dcb8",
      "to": "0x99a6d8f5673df9d0642e28b16321dcdac0cd4296",
      "contractAddress": null
    },
    {
      "status": "0x1",
      "cumulativeGasUsed": "0xfde59a",
      "logs": [
        {
          "address": "0x67212b4c2f2f3e2b15e9bf7f7e63c089a6c0de99",
          "topics": [
            "0xddf252ad1be2c89b69c2b068fc378daa952ba7f163c4a11628f55a4df523b3ef",
            "0x0000000000000000000000000000000000000000000000000000000000000000",
            "0x00000000000000000000000008d811a358850892029251ccc8a565a32fd2dcb8",
            "0x0000000000000000000000000000000000000000000000000000000000000004"
          ],
          "data": "0x",
          "blockHash": "0x36aef05a91d189320d0173e4b7955cead7dfde13b0e17ac26da6d7a3c3774154",
          "blockNumber": "0x8dc79f",
          "blockTimestamp": "0x68d7f3bc",
          "transactionHash": "0xca3fe4d0f6bd50f20df572bef9b0fe67f1a06b6f4da44409280db975dcd1783d",
          "transactionIndex": "0x3f",
          "logIndex": "0x64",
          "removed": false
        },
        {
          "address": "0x67212b4c2f2f3e2b15e9bf7f7e63c089a6c0de99",
          "topics": [
            "0xf1fc75ee5568a62c47050c11ce69ace98674df4c34da17f71ae38b3ebd5f6ed2",
            "0x0000000000000000000000000000000000000000000000000000000000000004",
            "0x00000000000000000000000008d811a358850892029251ccc8a565a32fd2dcb8"
          ],
          "data": "0x000000000000000000000000000000000000000000000000000000000000008000000000000000000000000000000000000000000000000000000000000000e000000000000000000000000000000000000000000000000000000000000f424100000000000000000000000000000000000000000000000000000000000001400000000000000000000000000000000000000000000000000000000000000002000000000000000000000000000000000000000000000000000000000000000100000000000000000000000000000000000000000000000000000000000000020000000000000000000000000000000000000000000000000000000000000002000000000000000000000000000000000000000000000000000000000007a121000000000000000000000000000000000000000000000000000000000007a1200000000000000000000000000000000000000000000000000000000000000010416c696365202620426f62204769667400000000000000000000000000000000",
          "blockHash": "0x36aef05a91d189320d0173e4b7955cead7dfde13b0e17ac26da6d7a3c3774154",
          "blockNumber": "0x8dc79f",
          "blockTimestamp": "0x68d7f3bc",
          "transactionHash": "0xca3fe4d0f6bd50f20df572bef9b0fe67f1a06b6f4da44409280db975dcd1783d",
          "transactionIndex": "0x3f",
          "logIndex": "0x65",
          "removed": false
        }
      ],
      "logsBloom": "0x00000000000000200100000000000000000000000000000000000000000000000000080000000100000000000000000000000000000000000000000000000000000000000000000000000008000000000000000001000000000000000000000008000000020000000000000002000800000000000000000000000010000000000000000000000000000000000000000000000000000000020000000000000000000000000000000000000000000000000000000000000000002000000000000000000002000000000000000000000000000000008000000000000000000021000000000008000000000000000000000000000000000000000000000000000000",
      "type": "0x2",
      "transactionHash": "0xca3fe4d0f6bd50f20df572bef9b0fe67f1a06b6f4da44409280db975dcd1783d",
      "transactionIndex": "0x3f",
      "blockHash": "0x36aef05a91d189320d0173e4b7955cead7dfde13b0e17ac26da6d7a3c3774154",
      "blockNumber": "0x8dc79f",
      "gasUsed": "0x3b8ed",
      "effectiveGasPrice": "0xfa3f1",
      "from": "0x08d811a358850892029251ccc8a565a32fd2dcb8",
      "to": "0x67212b4c2f2f3e2b15e9bf7f7e63c089a6c0de99",
      "contractAddress": null
    }
  ],
  "libraries": [],
  "pending": [],
  "returns": {},
  "timestamp": 1758983100,
  "chain": 11155111,
  "commit": "3d18ca5"
}