{
  "transactions": [
    {
      "hash": "0x3a355766132fed2092e3ff694082339817a1deec4c95eee53af60a20e6e8eaa3",
      "transactionType": "CALL",
      "contractName": null,
      "contractAddress": "0xcac524bca292aaade2df8a05cc58f0a65b1b3bb9",
      "function": "approve(address,uint256)",
      "arguments": [
        "0x5f48389f0833e7D7787F5244db7F097877b77EEE",
        "1000000"
      ],
      "transaction": {
        "from": "0x08d811a358850892029251ccc8a565a32fd2dcb8",
        "to": "0xcac524bca292aaade2df8a05cc58f0a65b1b3bb9",
        "gas": "0x14481",
        "value": "0x0",
        "input": "0x095ea7b30000000000000000000000005f48389f0833e7d7787f5244db7f097877b77eee00000000000000000000000000000000000000000000000000000000000f4240",
        "nonce": "0x7b",
        "chainId": "0xaa36a7"
      },
      "additionalContracts": [],
      "isFixedGasLimit": false
    },
    {
      "hash": "0x9220225f525b2e649f754eaf17de23a9bb145a4cecf62c1568fdb0c38484d749",
      "transactionType": "CALL",
      "contractName": null,
      "contractAddress": "0x5f48389f0833e7d7787f5244db7f097877b77eee",
      "function": "allocateDonation(uint256[],uint256[])",
      "arguments": [
        "[1, 2]",
        "[500000, 500000]"
      ],
      "transaction": {
        "from": "0x08d811a358850892029251ccc8a565a32fd2dcb8",
        "to": "0x5f48389f0833e7d7787f5244db7f097877b77eee",
        "gas": "0x1ed6d",
        "value": "0x0",
        "input": "0x4a444e57000000000000000000000000000000000000000000000000000000000000004000000000000000000000000000000000000000000000000000000000000000a00000000000000000000000000000000000000000000000000000000000000002000000000000000000000000000000000000000000000000000000000000000100000000000000000000000000000000000000000000000000000000000000020000000000000000000000000000000000000000000000000000000000000002000000000000000000000000000000000000000000000000000000000007a120000000000000000000000000000000000000000000000000000000000007a120",
        "nonce": "0x7c",
        "chainId": "0xaa36a7"
      },
      "additionalContracts": [],
      "isFixedGasLimit": false
    },
    {
      "hash": "0x9ed2fe3c41587b8098d00df3215617191d7d5e27e13d5f6b8a81aced12c7fcd2",
      "transactionType": "CALL",
      "contractName": null,
      "contractAddress": "0xa495c1e3e4f8cd3a8238a3bd6ed068b63ae48aa7",
      "function": "mint(uint256[],uint256,string)",
      "arguments": [
        "[1, 2]",
        "1000000",
        "Alice & Bob Gift"
      ],
      "transaction": {
        "from": "0x08d811a358850892029251ccc8a565a32fd2dcb8",
        "to": "0xa495c1e3e4f8cd3a8238a3bd6ed068b63ae48aa7",
        "gas": "0x5dccc",
        "value": "0x0",
        "input": "0x0525a4ab000000000000000000000000000000000000000000000000000000000000006000000000000000000000000000000000000000000000000000000000000f424000000000000000000000000000000000000000000000000000000000000000c00000000000000000000000000000000000000000000000000000000000000002000000000000000000000000000000000000000000000000000000000000000100000000000000000000000000000000000000000000000000000000000000020000000000000000000000000000000000000000000000000000000000000010416c696365202620426f62204769667400000000000000000000000000000000",
        "nonce": "0x7d",
        "chainId": "0xaa36a7"
      },
      "additionalContracts": [],
      "isFixedGasLimit": false
    }
  ],
  "receipts": [
    {
      "status": "0x1",
      "cumulativeGasUsed": "0xa8229e",
      "logs": [
        {
          "address": "0xcac524bca292aaade2df8a05cc58f0a65b1b3bb9",
          "topics": [
            "0x8c5be1e5ebec7d5bd14f71427d1e84f3dd0314c0f7b2291e5b200ac8c7c3b925",
            "0x00000000000000000000000008d811a358850892029251ccc8a565a32fd2dcb8",
            "0x0000000000000000000000005f48389f0833e7d7787f5244db7f097877b77eee"
          ],
          "data": "0x00000000000000000000000000000000000000000000000000000000000f4240",
          "blockHash": "0x8bc21839f99323ec04634de12ec3916a8307c1c98c3b467d98760b17759b4b95",
          "blockNumber": "0x8dc876",
          "blockTimestamp": "0x68d7fde8",
          "transactionHash": "0x3a355766132fed2092e3ff694082339817a1deec4c95eee53af60a20e6e8eaa3",
          "transactionIndex": "0xa0",
          "logIndex": "0x75",
          "removed": false
        }
      ],
      "logsBloom": "0x00030000000000000100000000000000000000000000000000000000000000000000080000000000000000000000800000000000000000000000000000200000000000000000000000000000000000000000000001000000000000000000000000000000000000000000000000000000000000000000000000000000000000000000000000000000000000000000000000000000000000000000000000000000020000000000000000000000000040000000000000000000000000000000000000000000000000000000000000000000200000000000000000008000000000000010000000000000000000000000000000000000000000000000000000000000",
      "type": "0x2",
      "transactionHash": "0x3a355766132fed2092e3ff694082339817a1deec4c95eee53af60a20e6e8eaa3",
      "transactionIndex": "0xa0",
      "blockHash": "0x8bc21839f99323ec04634de12ec3916a8307c1c98c3b467d98760b17759b4b95",
      "blockNumber": "0x8dc876",
      "gasUsed": "0xeaf0",
      "effectiveGasPrice": "0xf424a",
      "from": "0x08d811a358850892029251ccc8a565a32fd2dcb8",
      "to": "0xcac524bca292aaade2df8a05cc58f0a65b1b3bb9",
      "contractAddress": null
    },
    {
      "status": "0x1",
      "cumulativeGasUsed": "0xa987da",
      "logs": [
        {
          "address": "0xcac524bca292aaade2df8a05cc58f0a65b1b3bb9",
          "topics": [
            "0xddf252ad1be2c89b69c2b068fc378daa952ba7f163c4a11628f55a4df523b3ef",
            "0x00000000000000000000000008d811a358850892029251ccc8a565a32fd2dcb8",
            "0x0000000000000000000000005f48389f0833e7d7787f5244db7f097877b77eee"
          ],
          "data": "0x00000000000000000000000000000000000000000000000000000000000f4240",
          "blockHash": "0x8bc21839f99323ec04634de12ec3916a8307c1c98c3b467d98760b17759b4b95",
          "blockNumber": "0x8dc876",
          "blockTimestamp": "0x68d7fde8",
          "transactionHash": "0x9220225f525b2e649f754eaf17de23a9bb145a4cecf62c1568fdb0c38484d749",
          "transactionIndex": "0xa1",
          "logIndex": "0x76",
          "removed": false
        },
        {
          "address": "0x5f48389f0833e7d7787f5244db7f097877b77eee",
          "topics": [
            "0x56d8b0175ac50851747e588707ec43b521ab960e41f6c520744499c33c20026d",
            "0x00000000000000000000000008d811a358850892029251ccc8a565a32fd2dcb8"
          ],
          "data": "0x00000000000000000000000000000000000000000000000000000000000f4240000000000000000000000000000000000000000000000000000000000000006000000000000000000000000000000000000000000000000000000000000000c00000000000000000000000000000000000000000000000000000000000000002000000000000000000000000000000000000000000000000000000000000000100000000000000000000000000000000000000000000000000000000000000020000000000000000000000000000000000000000000000000000000000000002000000000000000000000000000000000000000000000000000000000007a120000000000000000000000000000000000000000000000000000000000007a120",
          "blockHash": "0x8bc21839f99323ec04634de12ec3916a8307c1c98c3b467d98760b17759b4b95",
          "blockNumber": "0x8dc876",
          "blockTimestamp": "0x68d7fde8",
          "transactionHash": "0x9220225f525b2e649f754eaf17de23a9bb145a4cecf62c1568fdb0c38484d749",
          "transactionIndex": "0xa1",
          "logIndex": "0x77",
          "removed": false
        }
      ],
      "logsBloom": "0x00030000000000000100000000000000000000100000000000000000000000000000080000000000000000000000800000000000000000000000000000000000000000000000000000000008000000000000000001000000000000000000008000000000000000000000000000000000000000000000000000000010000000000000000000000000000000000000000000000000400000000000000000000000000000000000000000000000000040000000000000000000000000000000000000000002000000000000000002000000200000000000000000008000000000000000000000000000000000000000000000000000000000000000020004000000",
      "type": "0x2",
      "transactionHash": "0x9220225f525b2e649f754eaf17de23a9bb145a4cecf62c1568fdb0c38484d749",
      "transactionIndex": "0xa1",
      "blockHash": "0x8bc21839f99323ec04634de12ec3916a8307c1c98c3b467d98760b17759b4b95",
      "blockNumber": "0x8dc876",
      "gasUsed": "0x1653c",
      "effectiveGasPrice": "0xf424a",
      "from": "0x08d811a358850892029251ccc8a565a32fd2dcb8",
      "to": "0x5f48389f0833e7d7787f5244db7f097877b77eee",
      "contractAddress": null
    },
    {
      "status": "0x1",
      "cumulativeGasUsed": "0xadc668",
      "logs": [
        {
          "address": "0xa495c1e3e4f8cd3a8238a3bd6ed068b63ae48aa7",
          "topics": [
            "0xddf252ad1be2c89b69c2b068fc378daa952ba7f163c4a11628f55a4df523b3ef",
            "0x0000000000000000000000000000000000000000000000000000000000000000",
            "0x00000000000000000000000008d811a358850892029251ccc8a565a32fd2dcb8",
            "0x0000000000000000000000000000000000000000000000000000000000000001"
          ],
          "data": "0x",
          "blockHash": "0x8bc21839f99323ec04634de12ec3916a8307c1c98c3b467d98760b17759b4b95",
          "blockNumber": "0x8dc876",
          "blockTimestamp": "0x68d7fde8",
          "transactionHash": "0x9ed2fe3c41587b8098d00df3215617191d7d5e27e13d5f6b8a81aced12c7fcd2",
          "transactionIndex": "0xa2",
          "logIndex": "0x78",
          "removed": false
        },
        {
          "address": "0xa495c1e3e4f8cd3a8238a3bd6ed068b63ae48aa7",
          "topics": [
            "0xf1fc75ee5568a62c47050c11ce69ace98674df4c34da17f71ae38b3ebd5f6ed2",
            "0x0000000000000000000000000000000000000000000000000000000000000001",
            "0x00000000000000000000000008d811a358850892029251ccc8a565a32fd2dcb8"
          ],
          "data": "0x000000000000000000000000000000000000000000000000000000000000008000000000000000000000000000000000000000000000000000000000000000e000000000000000000000000000000000000000000000000000000000000f424000000000000000000000000000000000000000000000000000000000000001400000000000000000000000000000000000000000000000000000000000000002000000000000000000000000000000000000000000000000000000000000000100000000000000000000000000000000000000000000000000000000000000020000000000000000000000000000000000000000000000000000000000000002000000000000000000000000000000000000000000000000000000000007a120000000000000000000000000000000000000000000000000000000000007a1200000000000000000000000000000000000000000000000000000000000000010416c696365202620426f62204769667400000000000000000000000000000000",
          "blockHash": "0x8bc21839f99323ec04634de12ec3916a8307c1c98c3b467d98760b17759b4b95",
          "blockNumber": "0x8dc876",
          "blockTimestamp": "0x68d7fde8",
          "transactionHash": "0x9ed2fe3c41587b8098d00df3215617191d7d5e27e13d5f6b8a81aced12c7fcd2",
          "transactionIndex": "0xa2",
          "logIndex": "0x79",
          "removed": false
        }
      ],
      "logsBloom": "0x00000000000000200100002000000000000000000000000000000000000000000000080000000100000000000000000000000000000000000000000000040000000000000000000000000008000000000000000001040000000000000000000000000000020000000000000000000800000800000000000000000010000000000000000040000000000000000000000000000000000000020000000000000000000000000000000000000000000000000000000000000000000000000000000000000002000000000000000000000000000000000000000000000000000060000000000000000000000000000000000000000000000000000000000000000000",
      "type": "0x2",
      "transactionHash": "0x9ed2fe3c41587b8098d00df3215617191d7d5e27e13d5f6b8a81aced12c7fcd2",
      "transactionIndex": "0xa2",
      "blockHash": "0x8bc21839f99323ec04634de12ec3916a8307c1c98c3b467d98760b17759b4b95",
      "blockNumber": "0x8dc876",
      "gasUsed": "0x43e8e",
      "effectiveGasPrice": "0xf424a",
      "from": "0x08d811a358850892029251ccc8a565a32fd2dcb8",
      "to": "0xa495c1e3e4f8cd3a8238a3bd6ed068b63ae48aa7",
      "contractAddress": null
    }
  ],
  "libraries": [],
  "pending": [],
  "returns": {},
  "timestamp": 1758985706,
  "chain": 11155111,
  "commit": "cba4639"
}