{
  "transactions": [
    {
      "hash": "0x33848b14f650cfecab513b289aff61d26d7ed68df325ee0a10f806f2e07cd46f",
      "transactionType": "CALL",
      "contractName": null,
      "contractAddress": "0xcac524bca292aaade2df8a05cc58f0a65b1b3bb9",
      "function": "approve(address,uint256)",
      "arguments": [
        "0x99a6D8F5673DF9D0642e28B16321dCdAc0CD4296",
        "1000000"
      ],
      "transaction": {
        "from": "0x08d811a358850892029251ccc8a565a32fd2dcb8",
        "to": "0xcac524bca292aaade2df8a05cc58f0a65b1b3bb9",
        "gas": "0xd922",
        "value": "0x0",
        "input": "0x095ea7b300000000000000000000000099a6d8f5673df9d0642e28b16321dcdac0cd429600000000000000000000000000000000000000000000000000000000000f4240",
        "nonce": "0x72",
        "chainId": "0xaa36a7"
      },
      "additionalContracts": [],
      "isFixedGasLimit": false
    },
    {
      "hash": "0x6dbf1972d9769a212e44ce8d994c0ca24f330f2b251dc81adf88de91bdff8869",
      "transactionType": "CALL",
      "contractName": null,
      "contractAddress": "0x99a6d8f5673df9d0642e28b16321dcdac0cd4296",
      "function": "allocateDonation(uint256[],uint256[])",
      "arguments": [
        "[1, 2]",
        "[500000, 500000]"
      ],
      "transaction": {
        "from": "0x08d811a358850892029251ccc8a565a32fd2dcb8",
        "to": "0x99a6d8f5673df9d0642e28b16321dcdac0cd4296",
        "gas": "0x2a963",
        "value": "0x0",
        "input": "0x4a444e57000000000000000000000000000000000000000000000000000000000000004000000000000000000000000000000000000000000000000000000000000000a00000000000000000000000000000000000000000000000000000000000000002000000000000000000000000000000000000000000000000000000000000000100000000000000000000000000000000000000000000000000000000000000020000000000000000000000000000000000000000000000000000000000000002000000000000000000000000000000000000000000000000000000000007a120000000000000000000000000000000000000000000000000000000000007a120",
        "nonce": "0x73",
        "chainId": "0xaa36a7"
      },
      "additionalContracts": [],
      "isFixedGasLimit": false
    },
    {
      "hash": "0x7dd7f9dc44bd07b420f0acd38759ae9fafefe0d4e4780f6090f914d65521b046",
      "transactionType": "CALL",
      "contractName": null,
      "contractAddress": "0x67212b4c2f2f3e2b15e9bf7f7e63c089a6c0de99",
      "function": "mint(uint256[],uint256,string)",
      "arguments": [
        "[1, 2]",
        "1000000",
        "Alice & Bob Gift"
      ],
      "transaction": {
        "from": "0x08d811a358850892029251ccc8a565a32fd2dcb8",
        "to": "0x67212b4c2f2f3e2b15e9bf7f7e63c089a6c0de99",
        "gas": "0x52446",
        "value": "0x0",
        "input": "0x0525a4ab000000000000000000000000000000000000000000000000000000000000006000000000000000000000000000000000000000000000000000000000000f424000000000000000000000000000000000000000000000000000000000000000c00000000000000000000000000000000000000000000000000000000000000002000000000000000000000000000000000000000000000000000000000000000100000000000000000000000000000000000000000000000000000000000000020000000000000000000000000000000000000000000000000000000000000010416c696365202620426f62204769667400000000000000000000000000000000",
        "nonce": "0x74",
        "chainId": "0xaa36a7"
      },
      "additionalContracts": [],
      "isFixedGasLimit": false
    }
  ],
  "receipts": [
    {
      "status": "0x1",
      "cumulativeGasUsed": "0xe3a37e",
      "logs": [
        {
          "address": "0xcac524bca292aaade2df8a05cc58f0a65b1b3bb9",
          "topics": [
            "0x8c5be1e5ebec7d5bd14f71427d1e84f3dd0314c0f7b2291e5b200ac8c7c3b925",
            "0x00000000000000000000000008d811a358850892029251ccc8a565a32fd2dcb8",
            "0x00000000000000000000000099a6d8f5673df9d0642e28b16321dcdac0cd4296"
          ],
          "data": "0x00000000000000000000000000000000000000000000000000000000000f4240",
          "blockHash": "0x1ef43fe40a7cb89ee7053678af8b5ecb1d69721eed18421b2248eb08016f82c2",
          "blockNumber": "0x8dc7c8",
          "blockTimestamp": "0x68d7f5a8",
          "transactionHash": "0x33848b14f650cfecab513b289aff61d26d7ed68df325ee0a10f806f2e07cd46f",
          "transactionIndex": "0xe7",
          "logIndex": "0x99",
          "removed": false
        }
      ],
      "logsBloom": "0x00000000000000000100000000000000001000000000000000000000000000000000080040000000000000000000800000000000000000000000000000200000000000000000000000000000000000000000000001000000000000000000000000000000000000000000000000000000000000000000000000000000000000000000000000000000000000000000000000000000000000000000000000000000020000000000000000000000000040000000000000000000000000000000000000000000000000000000000000000000200000000000000000000000000000000010000004000000000000000000000000000000000000000000000000000000",
      "type": "0x2",
      "transactionHash": "0x33848b14f650cfecab513b289aff61d26d7ed68df325ee0a10f806f2e07cd46f",
      "transactionIndex": "0xe7",
      "blockHash": "0x1ef43fe40a7cb89ee7053678af8b5ecb1d69721eed18421b2248eb08016f82c2",
      "blockNumber": "0x8dc7c8",
      "gasUsed": "0x9d34",
      "effectiveGasPrice": "0xf4249",
      "from": "0x08d811a358850892029251ccc8a565a32fd2dcb8",
      "to": "0xcac524bca292aaade2df8a05cc58f0a65b1b3bb9",
      "contractAddress": null
    },
    {
      "status": "0x1",
      "cumulativeGasUsed": "0xe590ce",
      "logs": [
        {
          "address": "0xcac524bca292aaade2df8a05cc58f0a65b1b3bb9",
          "topics": [
            "0xddf252ad1be2c89b69c2b068fc378daa952ba7f163c4a11628f55a4df523b3ef",
            "0x00000000000000000000000008d811a358850892029251ccc8a565a32fd2dcb8",
            "0x00000000000000000000000099a6d8f5673df9d0642e28b16321dcdac0cd4296"
          ],
          "data": "0x00000000000000000000000000000000000000000000000000000000000f4240",
          "blockHash": "0x1ef43fe40a7cb89ee7053678af8b5ecb1d69721eed18421b2248eb08016f82c2",
          "blockNumber": "0x8dc7c8",
          "blockTimestamp": "0x68d7f5a8",
          "transactionHash": "0x6dbf1972d9769a212e44ce8d994c0ca24f330f2b251dc81adf88de91bdff8869",
          "transactionIndex": "0xe8",
          "logIndex": "0x9a",
          "removed": false
        },
        {
          "address": "0x99a6d8f5673df9d0642e28b16321dcdac0cd4296",
          "topics": [
            "0x56d8b0175ac50851747e588707ec43b521ab960e41f6c520744499c33c20026d",
            "0x00000000000000000000000008d811a358850892029251ccc8a565a32fd2dcb8"
          ],
          "data": "0x00000000000000000000000000000000000000000000000000000000000f4240000000000000000000000000000000000000000000000000000000000000006000000000000000000000000000000000000000000000000000000000000000c00000000000000000000000000000000000000000000000000000000000000002000000000000000000000000000000000000000000000000000000000000000100000000000000000000000000000000000000000000000000000000000000020000000000000000000000000000000000000000000000000000000000000002000000000000000000000000000000000000000000000000000000000007a120000000000000000000000000000000000000000000000000000000000007a120",
          "blockHash": "0x1ef43fe40a7cb89ee7053678af8b5ecb1d69721eed18421b2248eb08016f82c2",
          "blockNumber": "0x8dc7c8",
          "blockTimestamp": "0x68d7f5a8",
          "transactionHash": "0x6dbf1972d9769a212e44ce8d994c0ca24f330f2b251dc81adf88de91bdff8869",
          "transactionIndex": "0xe8",
          "logIndex": "0x9b",
          "removed": false
        }
      ],
      "logsBloom": "0x00000000000000000100000000000000001000000000000000000000000000000000080040000000000000000000800000000000010000000000000000000000000000000000000000000008000000000000000001000000000000000000008000000000000000000000000000000000000000000000020000000010000000000000000000000000000000000000000000000000400000040000000000000000000000000000000000000000000040000000000000000000000000000000000000000002000000000000000000000000200000000000000000000000000000000000000004000000000000000000000000000000000000000000020000000000",
      "type": "0x2",
      "transactionHash": "0x6dbf1972d9769a212e44ce8d994c0ca24f330f2b251dc81adf88de91bdff8869",
      "transactionIndex": "0xe8",
      "blockHash": "0x1ef43fe40a7cb89ee7053678af8b5ecb1d69721eed18421b2248eb08016f82c2",
      "blockNumber": "0x8dc7c8",
      "gasUsed": "0x1ed50",
      "effectiveGasPrice": "0xf4249",
      "from": "0x08d811a358850892029251ccc8a565a32fd2dcb8",
      "to": "0x99a6d8f5673df9d0642e28b16321dcdac0cd4296",
      "contractAddress": null
    },
    {
      "status": "0x1",
      "cumulativeGasUsed": "0xe949c4",
      "logs": [
        {
          "address": "0x67212b4c2f2f3e2b15e9bf7f7e63c089a6c0de99",
          "topics": [
            "0xddf252ad1be2c89b69c2b068fc378daa952ba7f163c4a11628f55a4df523b3ef",
            "0x0000000000000000000000000000000000000000000000000000000000000000",
            "0x00000000000000000000000008d811a358850892029251ccc8a565a32fd2dcb8",
            "0x0000000000000000000000000000000000000000000000000000000000000005"
          ],
          "data": "0x",
          "blockHash": "0x1ef43fe40a7cb89ee7053678af8b5ecb1d69721eed18421b2248eb08016f82c2",
          "blockNumber": "0x8dc7c8",
          "blockTimestamp": "0x68d7f5a8",
          "transactionHash": "0x7dd7f9dc44bd07b420f0acd38759ae9fafefe0d4e4780f6090f914d65521b046",
          "transactionIndex": "0xe9",
          "logIndex": "0x9c",
          "removed": false
        },
        {
          "address": "0x67212b4c2f2f3e2b15e9bf7f7e63c089a6c0de99",
          "topics": [
            "0xf1fc75ee5568a62c47050c11ce69ace98674df4c34da17f71ae38b3ebd5f6ed2",
            "0x0000000000000000000000000000000000000000000000000000000000000005",
            "0x00000000000000000000000008d811a358850892029251ccc8a565a32fd2dcb8"
          ],
          "data": "0x000000000000000000000000000000000000000000000000000000000000008000000000000000000000000000000000000000000000000000000000000000e000000000000000000000000000000000000000000000000000000000000f424000000000000000000000000000000000000000000000000000000000000001400000000000000000000000000000000000000000000000000000000000000002000000000000000000000000000000000000000000000000000000000000000100000000000000000000000000000000000000000000000000000000000000020000000000000000000000000000000000000000000000000000000000000002000000000000000000000000000000000000000000000000000000000007a120000000000000000000000000000000000000000000000000000000000007a1200000000000000000000000000000000000000000000000000000000000000010416c696365202620426f62204769667400000000000000000000000000000000",
          "blockHash": "0x1ef43fe40a7cb89ee7053678af8b5ecb1d69721eed18421b2248eb08016f82c2",
          "blockNumber": "0x8dc7c8",
          "blockTimestamp": "0x68d7f5a8",
          "transactionHash": "0x7dd7f9dc44bd07b420f0acd38759ae9fafefe0d4e4780f6090f914d65521b046",
          "transactionIndex": "0xe9",
          "logIndex": "0x9d",
          "removed": false
        }
      ],
      "logsBloom": "0x00000000000000200100000000000000000000000000000000000000000000000000080000000100000000000000000000000000000000000000000000000000000010000000000000000008000000000000000001000000000000000000000000000000020000000000000002000800000000000000000000000010000000000000000000000000000000000000001000000800000000020000000000000000000000000000000000000000000000000000000000000000000000000000000000000002000000000000000000000000000000000000000000000000000021000000000008000000000000000000000000000000000000000000000000000000",
      "type": "0x2",
      "transactionHash": "0x7dd7f9dc44bd07b420f0acd38759ae9fafefe0d4e4780f6090f914d65521b046",
      "transactionIndex": "0xe9",
      "blockHash": "0x1ef43fe40a7cb89ee7053678af8b5ecb1d69721eed18421b2248eb08016f82c2",
      "blockNumber": "0x8dc7c8",
      "gasUsed": "0x3b8f6",
      "effectiveGasPrice": "0xf4249",
      "from": "0x08d811a358850892029251ccc8a565a32fd2dcb8",
      "to": "0x67212b4c2f2f3e2b15e9bf7f7e63c089a6c0de99",
      "contractAddress": null
    }
  ],
  "libraries": [],
  "pending": [],
  "returns": {},
  "timestamp": 1758983593,
  "chain": 11155111,
  "commit": "3d18ca5"
}